:020000040800F2
:10000000E00600200D230008DD030008DF030008E0
:10001000E3030008E7030008EB030008000000000A
:10002000000000000000000000000000EF030008D6
:10003000F103000800000000F3030008F5030008C6
:10004000910700082723000827230008272300081A
:100050002723000827230008B31F000827230008D0
:100060002723000827230008272300082723000848
:100070002723000827230008272300082723000838
:100080002723000827230008272300082723000828
:100090002723000827230008272300082723000818
:1000A0002723000827230008272300082723000808
:1000B0002723000817080008272300082723000823
:1000C00027230008272300082723000827230008E8
:1000D000272300088122000827230008272300087F
:1000E00027230008272300082723000800F002F830
:1000F00000F041F80AA090E8000C82448344AAF181
:100100000107DA4501D100F036F8AFF2090EBAE87E
:100110000F0013F0010F18BFFB1A43F0010318473B
:1001200098600000B8600000103A24BF78C878C119
:10013000FAD8520724BF30C830C144BF04680C60ED
:10014000704700000023002400250026103A28BF35
:1001500078C1FBD8520728BF30C148BF0B60704739
:10016000782904F04B81002070471FB5AFF3008061
:100170001FBD10B510BD04F0E3F91146FFF7F5FF00
:1001800000F006F804F001FAFFF7F3FF02F01EF8A2
:100190002DE9F04188B000F093F9482001F0C4FF48
:1001A00002F00EF84FF4165002F01EF800F008FAB4
:1001B00000F038FA00F059FC01F040FF4FF47840AD
:1001C0006049088060A232213C2001F091FE61A2CA
:1001D00046213C2001F08CFE62A25A213C2001F015
:1001E00087FE64A26E213C2001F082FE1F2055494B
:1001F000088063A282213C2001F07AFE63A296214E
:100200003C2001F075FE65A2AA213C2001F070FEA1
:1002100097E001F06FFF0446102300930423224669
:100220008221842001F0D2FD204605F0A6F8074681
:1002300004F0AAFFCDE906015DA00CC8069804F001
:1002400019FDCDE9040104F0C9F905462E462846FA
:1002500005F04EF884B21023009301232246962124
:10026000842001F0B3FD284605F042F800F0FF08B5
:10027000404605F082F80746294605F02CF9054668
:100280004D49284605F07EF8804605F031F80746CE
:1002900010230093032302469621942001F096FD3B
:1002A000304604F071FFCDE9060144A00CC8069861
:1002B00004F0C4FDCDE9040142A00CC8049804F088
:1002C000C3FACDE9020141A00CC8029804F0D0F9AC
:1002D000CDE9000104F082F90646304605F008F841
:1002E000C7B21023009302233A46AA218C2001F0C2
:1002F0006DFD304604F0FCFF00F0FF08404605F0BD
:100300003CF80746314605F0E6F8064631493046E6
:1003100005F038F8804604F0EBFF07461023009301
:1003200002230246AA21A42001F050FD2A480068B9
:1003300008B9012000E0002027490860FA2001F0F8
:1003400007FF66E7160000204D696E692053544D83
:100350003332000054454D504552415445205445D8
:100360005354000041544F4D40414C49454E544573
:100370004B000000323031302F362F3700000000A4
:1003800054454D505F56414C3A00000054454D5085
:100390005F564F4C3A302E303030560054454D5059
:1003A00045524154453A30302E3030430000000071
:1003B0006666666666664A3F00007A44E17A14AE75
:1003C00047E1F63F22FDF675E09C713F000000001A
:1003D000000039400000C842A0012142704700BF20
:1003E000FEE700BFFEE700BFFEE700BFFEE7704785
:1003F000704770477047000000200021674A12686C
:1004000042F48032654B1A6000BF644A126802F4FD
:100410000031401C11B9B0F5A06FF6D15F4A1268E7
:1004200012F4003F01D0012100E00021012942D156
:100430005B4A126842F01002594B1A601A46126861
:1004400022F003021A601A46126842F002021A6091
:10045000524A5268514B5A601A4652685A601A46BC
:10046000526842F480625A601A46526822F47C1242
:100470005A601A46526842F4E8125A601A461268E4
:1004800042F080721A6000BF444A126812F0007F86
:10049000FAD0424A526822F00302404B5A601A4690
:1004A000526842F002025A6000BF3C4A526802F0B1
:1004B0000C02082AF9D1704710B5FFF79DFF10BD57
:1004C00010B53648006840F001003449086008461D
:1004D000406834490840314948600846006832495C
:1004E00008402E4908600846006820F48020086013
:1004F0000846406820F4FE0048604FF41F00886002
:10050000FFF7DAFF4FF000602849086010BD10B512
:10051000002000210022214B5B6803F00C0020B179
:10052000042806D0082828D107E0214B214C23605D
:1005300027E01F4B1F4C236023E0184B5B6803F43C
:100540007011164B5B6803F48032022303EB914178
:1005500022B9194B4B43174C23600DE00F4B5B68DE
:1005600013F4003F04D0144B4B43124C236003E0C0
:100570000F4B4B430F4C236003E00D4B0D4C23609E
:1005800000BF00BF054B5B68C3F303130B4CE05C7B
:10059000084B1B68C340074C236010BD001002408D
:1005A000002002400000FFF8FFFFF6FE08ED00E02B
:1005B00000127A000000002000093D000400002025
:1005C00008B50121042002F075FD4FF48070ADF8EC
:1005D000000010208DF8030003208DF8020069460A
:1005E0000E4802F033FA4FF480710C4802F0D6FA4C
:1005F0000121202002F05EFD0420ADF80000102053
:100600008DF8030003208DF802006946044802F0CB
:100610001DFA0421024802F0C1FA08BD0008014099
:100620000014014008B50121042002F043FD4FF4FD
:100630002040ADF8000048208DF8030069462E48A0
:1006400002F004FA0120ADF8000028208DF8030024
:100650006946294802F0FAF908BD10B5012127487A
:1006600002F0BFFA2648007800282FD025480068FD
:1006700040B124480830006820B12248343800686E
:10068000012823D10A2001F063FD00201C490870D5
:100690001C48006828B901211B4802F0A2FA012079
:1006A00010BD18480830006828B90121164802F02A
:1006B00098FA0220F4E7134834380068012815D16D
:1006C0000121114802F08DFA0320E9E70D48006886
:1006D00001280BD10B4808300068012806D10948D1
:1006E0003438006810B90120054908700121064816
:1006F00002F077FA0020D3E7000801400004300040
:1007000014000020340121420002300070B504467C
:100710000D4645F2555002F0DDFA204602F0DDFAB2
:10072000284602F0DDFA02F0DEFA02F0E1FA70BDCE
:1007300010B502F0D8FA10BD08B500208DF8000001
:1007400002208DF8010003208DF80200684601F0B8
:1007500002FE08BD70B504460D4616460121C802CA
:1007600002F0B5FC304603F0C8FD284603F0CFFD8B
:10077000204603F0E2FD03F0EBFDFFF7DDFF03F0A1
:10078000D2FD70BD10B50446204603F0D6FD10BD65
:1007900010B57F2003F0CBFD03F0DAFD04480068BC
:1007A00008B9012000E000200149086010BD0000E8
:1007B000888122427FB504460D460121022002F0C5
:1007C00086FC41F28830ADF8080041F61F40ADF8D4
:1007D00004000020ADF80A00ADF8060001A9174892
:1007E00002F09EFD01224121144803F0E5F81D208E
:1007F0008DF8000000208DF8010003208DF8020024
:1008000001208DF80300684601F0A5FD01210B4889
:1008100003F0ADF87FBD10B50121084803F049FB96
:1008200058B10121054803F055FB0548006808B997
:10083000012000E000200249086010BD00040040D3
:10084000888122424FF48071FF4A51614900516111
:10085000FE49086080215161116189001161704772
:1008600010B504460B462046FFF7ECFF4FF48070AE
:10087000F549086140004861F44803608020486100
:1008800008618000086110BD70B504462046FFF77E
:10089000D9FF4FF08830ED490C390860EC49C1F8B8
:1008A000040C4FF6FF70E94908608815E6490861B5
:1008B0004000486140204861052001F064FC402070
:1008C000E1490861E248D0F8080C85B24815086192
:1008D0004FF03330DD490C390860091D08604FF6D0
:1008E000FF70DA490860284670BD00B52220FFF786
:1008F000A9FF00BD4FF48071D34A116149005161D5
:10090000D2490860802151611161890011617047ED
:1009100030B5014601F01F04C1F34513CA0AE502D0
:1009200005EB43151544A8B230BD70B504460D461D
:10093000F02C02DAB5F5A07F01DB002070BD29465E
:10094000204603F02DFE2220FFF77CFF4FF0883079
:10095000BE490C390860BE49C1F8040C4FF6FF705F
:10096000BA4908608815B8490861400048614020CC
:1009700048610861022001F006FC4020B24948614C
:10098000022001F000FC4020AF490861B048D0F8D7
:10099000080C86B2481508614FF03330AB490C396A
:1009A0000860091D08604FF6FF70A949C1F80C0CDA
:1009B000A8480088A0F58A4131390BD0A5480088A5
:1009C000A0F50941893905D0A2480088A0F5354134
:1009D000053901D13046B1E73046FFF799FFADE761
:1009E00000B540F273110720FFF73AFF00BD00B5D4
:1009F00000210720FFF734FF00BD70B504460D4607
:100A00002946204603F0CCFD2220FFF71BFF4FF4C0
:100A100080708D490861400048618F4800888B498B
:100A2000086080208849486108618000086170BDC5
:100A300070B5054600240021084603F0B1FDFFF71C
:100A400054FF00BF0DE04FF480707F490861400003
:100A500048617E4805608020486108618000086127
:100A6000641CB4F5963FEED370BD08B50121192082
:100A700002F020FB0121794802F0B3F84FF4F8604E
:100A8000ADF8000010208DF8030003208DF802005F
:100A900069466D4801F0DAFF4FF4F8616A4802F0E8
:100AA0007DF84FF6FF70ADF80000694667480C38D6
:100AB00001F0CCFF4FF6FF7164480C3802F06EF87D
:100AC000322001F045FB01210020FFF7C9FE322052
:100AD00001F03EFB0020FFF7D7FE5E490880084684
:100AE00001885FA003F042FC5A480088A0F513413A
:100AF00025397ED147F6F001E520FFF7B1FE4FF42E
:100B000080710120FFF7ACFE4FF4E0610220FFF797
:100B1000A7FE41F230010320FFF7A2FE00210420CE
:100B2000FFF79EFE40F202210820FFF799FE002108
:100B30000920FFF795FE00210A20FFF791FE002112
:100B40000C20FFF78DFE00210D20FFF789FE00210C
:100B50000F20FFF785FE00211020FFF781FE0721FF
:100B60001120FFF77DFE00211220FFF779FE002102
:100B70001320FFF775FE00210720FFF771FE41F2F9
:100B800090611020FFF76CFE40F227211120FFF743
:100B900067FE9D211220FFF763FE4FF4C85113201A
:100BA000FFF75EFE25212920FFF75AFE0D212B209D
:100BB000FFF756FE07213020FFF752FE40F20331C7
:100BC0003120FFF74DFE03213220FFF749FE40F2AE
:100BD00006213520FFF744FE08213620FFF740FEAE
:100BE00040F206413720FFF73BFE4FF441713820B9
:100BF00000E06AE0FFF734FE07213920FFF730FEFE
:100C000040F202613C20FFF72BFE08213D20FFF758
:100C100027FE00215020FFF723FEEF215120FFF790
:100C20001FFE00215220FFF71BFE40F23F11532010
:100C3000FFF716FE4FF427416020FFF711FE012158
:100C40006120FFF70DFE11E0001001400C0C014087
:100C5000000001401A0000201600002000023000B1
:100C6000204C43442049443A25780A0000216A2058
:100C7000FFF7F6FD00218020FFF7F2FD0021812023
:100C8000FFF7EEFD00218220FFF7EAFD002183201F
:100C9000FFF7E6FD00218420FFF7E2FD002185201B
:100CA000FFF7DEFD10219020FFF7DAFD4FF4C06161
:100CB0009220FFF7D5FD40F233110720FFF7D0FD5A
:100CC00022210020FFF7CCFD7EE3FF480088A0F53D
:100CD000134128397ED141F28F01EC20FFF7C0FD8E
:100CE00041F23421EF20FFF7BBFD4FF4807101206A
:100CF000FFF7B6FD4FF4E0610220FFF7B1FD4FF4BE
:100D000080710120FFF7ACFD4FF4E0610220FFF796
:100D1000A7FD41F230010320FFF7A2FD00210420CE
:100D2000FFF79EFD40F207210820FFF799FD002103
:100D30000920FFF795FD00210A20FFF791FD012111
:100D40000C20FFF78DFD00210D20FFF789FD00210C
:100D50000F20FFF785FD00211020FFF781FD0721FF
:100D60001120FFF77DFD00211220FFF779FD002102
:100D70001320FFF775FD322001F0EAF941F290519E
:100D80001020FFF76DFD40F227211120FFF768FDCD
:100D9000322001F0DDF99C211220FFF761FD3220A5
:100DA00001F0D6F94FF4C8511320FFF759FD232164
:100DB0002920FFF755FD0E212B20FFF751FD322092
:100DC00001F0C6F900212020FFF74AFD40F23F1153
:100DD000212000E079E0FFF743FD322001F0B8F96F
:100DE00007213020FFF73CFD40F207713120FFF76B
:100DF00037FD06213220FFF733FD40F20471352024
:100E0000FFF72EFD41F604713620FFF729FD04217E
:100E10003720FFF725FD00213820FFF721FD40F2A4
:100E200006713920FFF71CFD40F201713C20FFF7ED
:100E300017FD0F213D20FFF713FD322001F088F947
:100E400000215020FFF70CFDEF215120FFF708FD96
:100E500000215220FFF704FD40F23F115320FFF71D
:100E6000FFFC4FF427416020FFF7FAFC01216120CD
:100E7000FFF7F6FC00216A20FFF7F2FC002180203A
:100E8000FFF7EEFC00218120FFF7EAFC0021822021
:100E9000FFF7E6FC00218320FFF7E2FC002184201D
:100EA000FFF7DEFC00218520FFF7DAFC10219020FF
:100EB000FFF7D6FC4FF4C0619220FFF7D1FC40F25F
:100EC00033110720FFF7CCFCFEE67F480088A0F531
:100ED0001341203904D07C480088B0F5134F7ED1EF
:100EE00000210846FFF7BCFC4FF480710120FFF79A
:100EF000B7FC4FF4E0610220FFF7B2FC41F2300191
:100F00000320FFF7ADFC00210420FFF7A9FC40F20D
:100F100002210820FFF7A4FC00210920FFF7A0FC14
:100F200000210A20FFF79CFC01210C20FFF798FC10
:100F300000210D20FFF794FC00210F20FFF790FC0B
:100F4000322001F005F940F201110720FFF788FC7B
:100F5000322001F0FDF84FF486511020FFF780FC9D
:100F600007211120FFF77CFC4FF488711220FFF756
:100F700077FC4FF430611320FFF772FC0021292029
:100F8000FFF76EFC44F210012B20FFF769FC0021F3
:100F90005020FFF765FCEF215120FFF761FC002195
:100FA0005220FFF75DFC40F23F115320FFF758FC41
:100FB0004FF41C516020FFF753FC01216120FFF723
:100FC0004FFC00216A20FFF74BFC00218020FFF737
:100FD00047FC00218120FFF743FC002100E02DE0C9
:100FE0008220FFF73DFC00218320FFF739FC002120
:100FF0008420FFF735FC00218520FFF731FC10210C
:101000009020FFF72DFC00219220FFF729FC012101
:101010009320FFF725FC4FF488719520FFF720FC03
:1010200000219720FFF71CFC00219820FFF718FCF7
:1010300040F273110720FFF713FC45E622480088B1
:10104000A0F5A84108397DD14FF480710120FFF748
:1010500007FC4FF4E0610220FFF702FC41F230018F
:101060000320FFF7FDFB00210420FFF7F9FB40F20E
:1010700007210820FFF7F4FB00210920FFF7F0FB10
:1010800000210A20FFF7ECFB00210C20FFF7E8FB12
:1010900000210D20FFF7E4FB00210F20FFF7E0FB0C
:1010A000142001F055F841F2B0611020FFF7D8FB91
:1010B00001211120FFF7D4FB01211720FFF7D0FBFE
:1010C0004FF49C71122001E01A000020FFF7C8FBCA
:1010D0004FF400611320FFF7C3FB09212920FFF71C
:1010E000BFFB09212A20FFF7BBFB0021A420FFF74B
:1010F000B7FB00215020FFF7B3FBEF215120FFF792
:10110000AFFB00215220FFF7ABFB40F23F11532011
:10111000FFF7A6FB4FF41C516020FFF7A1FB012154
:101120006120FFF79DFB00216A20FFF799FB00215A
:101130008020FFF795FB00218120FFF791FB002124
:10114000822000E027E0FFF78BFB00218320FFF7E0
:1011500087FB00218420FFF783FB00218520FFF718
:101160007FFB13219020FFF77BFB00219220FFF7EC
:1011700077FB03219320FFF773FB4FF488719520D1
:10118000FFF76EFB40F273110720FFF769FB322077
:1011900000F0DEFF98E5FF480088A0F5A85105396A
:1011A0007ED10720FFF75CFB322000F0D1FF4FF427
:1011B0008E711220FFF754FB0121A420FFF750FB92
:1011C0000F210820FFF74CFB08210A20FFF748FBFE
:1011D00008210D20FFF744FB40F207713020FFF794
:1011E0003FFB07213120FFF73BFB40F20361322038
:1011F000FFF736FB4FF4E0613320FFF731FB40F29D
:1012000002213420FFF72CFB02213520FFF728FBB9
:1012100041F60F713620FFF723FB40F207713720AC
:10122000FFF71EFB00213820FFF71AFB00213920B1
:10123000FFF716FB40F207713A20FFF711FB002180
:101240003B20FFF70DFB07213C20FFF709FB0021A6
:101250003D20FFF705FB322000F07AFF0121072037
:10126000FFF7FEFA01211720FFF7FAFA322000F00B
:101270006FFF4FF4BD511020FFF7F2FA40F2172133
:101280001120FFF7EDFA4FF48F711220FFF7E8FA03
:101290004FF470611320FFF7E3FA00212A2000E0E9
:1012A00093E0FFF7DDFA0A212920FFF7D9FA4FF47E
:1012B0009F711220FFF7D4FA00215020FFF7D0FAD7
:1012C000EF215120FFF7CCFA00215220FFF7C8FA96
:1012D00040F23F115320FFF7C3FA4FF41C51602036
:1012E000FFF7BEFA01216120FFF7BAFA00216A2058
:1012F000FFF7B6FA00218020FFF7B2FA0021812023
:10130000FFF7AEFA00218220FFF7AAFA002183201E
:10131000FFF7A6FA00218420FFF7A2FA002185201A
:10132000FFF79EFA13219020FFF79AFA4FF44071CD
:101330009220FFF795FA05219320FFF791FA0021FB
:101340009520FFF78DFA00219720FFF789FA0021F9
:101350009820FFF785FA4FF480710120FFF780FA9B
:101360004FF4E0610220FFF77BFA41F230010320E5
:10137000FFF776FA00210420FFF772FA00210C2013
:10138000FFF76EFA00210F20FFF76AFA00212020F4
:10139000FFF766FA00212120FFF762FA21210720DA
:1013A000FFF75EFA142000F0D3FE61210720FFF75B
:1013B00057FA142000F0CCFE40F273110720FFF71B
:1013C0004FFA142000F0C4FE4AE372480088A0F5EA
:1013D000354105397DD10846FFF742FA002108461C
:1013E000FFF73EFA00210846FFF73AFA00210846C7
:1013F000FFF736FA0121A420FFF732FA142000F09B
:10140000A7FE4FF41C516020FFF72AFA40F2022198
:101410000820FFF725FA4FF405713020FFF720FA76
:1014200043F215713120FFF71BFA40F204613220BC
:10143000FFF716FA40F616613320FFF711FA42F271
:1014400011213420FFF70CFA4FF4A8513520FFF793
:1014500007FA48F207513620FFF702FA41F2074136
:101460003720FFF7FDF941F203413820FFF7F8F983
:1014700020213920FFF7F4F91A219020FFF7F0F925
:1014800000211020FFF7ECF907211120FFF7E8F900
:1014900000211220FFF7E4F900211320FFF7E0F903
:1014A000142000F055FE4FF4E6611020FFF7D8F944
:1014B00040F237111120FFF7D3F9142000F048FE55
:1014C0004FF4DC711220FFF7CBF9142000F040FE3E
:1014D00000E087E04FF470611320FFF7C1F980212D
:1014E0002A20FFF7BDF948212920FFF7B9F9142078
:1014F00000F02EFE4FF480710120FFF7B1F94FF498
:10150000E0610220FFF7ACF941F230210320FFF740
:10151000A7F940F202210820FFF7A2F900210A20D2
:10152000FFF79EF900210C20FFF79AF900210D200A
:10153000FFF796F930210E20FFF792F90021502095
:10154000FFF78EF9EF215120FFF78AF90021522091
:10155000FFF786F940F23F115320FFF781F94FF46E
:101560001C516020FFF77CF901216120FFF778F919
:1015700000216A20FFF774F911219020FFF770F91C
:101580004FF4C0619220FFF76BF940F202419320C3
:1015900002E000001A000020FFF762F90221942007
:1015A000FFF75EF9142000F0D3FD01210720FFF7BB
:1015B00057F9142000F0CCFD61210720FFF750F906
:1015C00040F273110720FFF74BF900212020FFF7AD
:1015D00047F900212120FFF743F922210020FFF7DE
:1015E0003FF93DE2FF480088A0F5094189397DD1E6
:1015F00001210020FFF734F94AF6A4010320FFF788
:101600002FF900210C20FFF72BF940F60C010D20DB
:10161000FFF726F94FF42C510E20FFF721F9B021E6
:101620001E20FFF71DF942F63F310120FFF718F9A0
:101630004FF4C0610220FFF713F900211020FFF7DB
:101640000FF946F270011120FFF70AF90021052079
:10165000FFF706F900210620FFF702F94EF61C718C
:101660001620FFF7FDF803211720FFF7F9F840F2E5
:1016700033210720FFF7F4F800210B20FFF7F0F8E3
:1016800000210F20FFF7ECF800214120FFF7E8F8D8
:1016900000214220FFF7E4F800214820FFF7E0F89E
:1016A00040F23F114920FFF7DBF800214A20FFF705
:1016B000D7F800214B20FFF7D3F84FF46F414420B7
:1016C000FFF7CEF800214520FFF7CAF840F23F119E
:1016D0004620FFF7C5F840F207713020FFF7C0F849
:1016E0004FF401713120FFF7BBF800E03DE04FF40B
:1016F00001713220FFF7B4F840F202513320FFF7B6
:10170000AFF840F207513420FFF7AAF84FF4017107
:101710003520FFF7A5F84FF401713620FFF7A0F848
:1017200040F202513720FFF79BF840F202313A2095
:10173000FFF796F840F202313B20FFF791F80021C5
:101740002320FFF78DF800212420FFF789F84FF4BC
:1017500000412520FFF784F800214F20FFF780F893
:1017600000214E20FFF77CF87AE19E480088A0F522
:101770008A4131397ED101210020FFF771F80A201A
:1017800000F0E6FC41F228611020FFF769F80E2115
:101790001220FFF765F840F639211320FFF760F8B3
:1017A0000A2000F0D5FC40211120FFF759F8502104
:1017B0001520FFF755F80A2000F0CAFC1E21122060
:1017C000FFF74EF80A2000F0C3FC4FF4B15110208F
:1017D000FFF746F842F639211320FFF741F80A20B7
:1017E00000F0B6FC4FF480710120FFF739F84FF498
:1017F00040710220FFF734F841F230010320FFF777
:101800002FF840F202210820FFF72AF808210A20C9
:10181000FFF726F800213020FFF722F840F20241BE
:101820003120FFF71DF84FF483713220FFF718F8CD
:1018300040F203513320FFF713F84FF48271342044
:10184000FFF70EF840F201313520FFF709F840F2BA
:1018500007713620FFF704F840F205313720FEF714
:10186000FFFF4FF402713820FEF7FAFF40F60B71CC
:10187000392000E03BE0FEF7F3FF02214120FEF7B4
:10188000EFFF4FF41C516020FEF7EAFF01216120B9
:10189000FEF7E6FF4FF404719020FEF7E1FF4FF4EE
:1018A00085719220FEF7DCFF04219320FEF7D8FF1C
:1018B0004FF48071A020FEF7D3FF01210720FEF72F
:1018C000CFFF21210720FEF7CBFF23210720FEF7C2
:1018D000C7FF33210720FEF7C3FF40F23311072073
:1018E000FEF7BEFF0021A020FEF7BAFFB8E03D489A
:1018F0000088A0F58A413539F8D130211520FEF74E
:10190000AFFF10219A20FEF7ABFF20211120FEF738
:10191000A7FF43F228411020FEF7A2FF0221122068
:10192000FEF79EFF41F238011320FEF799FF2820B1
:1019300000F00EFC12210846FEF792FF282000F06E
:1019400007FC43F220411020FEF78AFF43F23801E2
:101950001320FEF785FF462000F0FAFB002130201F
:10196000FEF77EFF40F202413120FEF779FF40F2A0
:1019700007313220FEF774FF4FF441713320FEF738
:101980006FFF04213420FEF76BFF40F20141352048
:10199000FEF766FF40F207713620FEF761FF40F266
:1019A00005313720FEF75CFF4FF4C2613820FEF7A7
:1019B00057FF4FF4C2613920FEF752FF4FF4807198
:1019C0000120FEF74DFF4FF440710220FEF748FF63
:1019D00041F230010320FEF743FF40F608010820E2
:1019E00002E000001A000020FEF73AFF08210A205A
:1019F000FEF736FF4FF41C516020FEF731FF012146
:101A00006120FEF72DFF4FF49F719020FEF728FF15
:101A10004FF480719220FEF723FF4FF480719320E2
:101A2000FEF71EFF4FF44051A020FEF719FF1021D2
:101A3000A320FEF715FF01210720FEF711FF21214A
:101A40000720FEF70DFF23210720FEF709FF3321B2
:101A50000720FEF705FF40F233110720FEF700FFD5
:101A60000120FF4908604FF6FF70FEF7E1FF08BD57
:101A70002DE9F05F04460D4616461F46DDF8288026
:101A80004FF0000B301B401C1FFA80FBA94620E0E2
:101A90004946204602F084FDFEF727FF4FF0000A7A
:101AA00011E04FF48070EF49086140004861EE4852
:101AB000C0F80C8C802048610861800008610AF140
:101AC00001001FFA80FADA45EBDB09F101001FFA89
:101AD00080F9B945DCDDBDE8F09F2DE9FF4F85B009
:101AE00004460D461646002004900390A6EB040819
:101AF0000898A0EB0509A3460095B8F1000F02DD98
:101B0000012001900AE0B8F1000F02D100200190FD
:101B100004E04FF0FF300190C8F10008B9F1000F68
:101B200002DD4FF0010A09E0B9F1000F02D14FF0D8
:101B3000000A03E04FF0FF3AC9F10009C84502DD91
:101B4000CDF8088001E0CDF80890002722E0009849
:101B500081B21FFA8BF0FEF750FF049840440490C6
:101B600003984844039002990498884205DD04993B
:101B70000298081A049001988344DDE90210884213
:101B800006DDDDE90210401A0390009850440090F1
:101B9000781C87B20298401C8742D8DD09B0BDE8A6
:101BA000F08F2DE9F04104460D4616461F462B46A0
:101BB000324629462046FFF790FF3B4622462946FB
:101BC0002046FFF78AFF3B46324639462046FFF75C
:101BD00084FF3B46324629463046FFF77EFFBDE88C
:101BE000F0812DE9F04704460D4616460027B04621
:101BF0000320A0EB460954E0EA1B91B2A4EB0802D3
:101C000090B2FEF7FAFEEA1B91B204EB080290B222
:101C1000FEF7F3FE05EB080291B2E21B90B2FEF76D
:101C2000ECFEEA1B91B2A4EB080290B2FEF7E5FECF
:101C3000A5EB080291B2E21B90B2FEF7DEFEEA19B4
:101C400091B204EB080290B2FEF7D7FEA5EB0802B2
:101C500091B2E21990B2FEF7D0FE05EB080291B204
:101C6000E21990B2FEF7C9FEEA1991B2A4EB08029C
:101C700090B2FEF7C2FE7F1CB9F1000F03DAB80084
:101C8000801D814406E0A7EB080080000A308144F3
:101C9000A8F1010805EB080291B2E21990B2FEF733
:101CA000ACFE4745A8DDBDE8F0872DE9F84F0446B6
:101CB0000D4616461F46A3466C4800880090E82C47
:101CC00002DCB5F59C7F01DDBDE8F88FA6F12000B0
:101CD000C6B20A98002839D1814634E00C2F07D1CA
:101CE00006EB4600624901EB800010F8098004E031
:101CF000604800EB061010F809804FF0000A16E06B
:101D000018F0010F03D059490098088003E05A48A1
:101D100000885649088029462046FEF76EFE4FEAA5
:101D20006808601C84B20AF1010000F0FF0A07EBAA
:101D3000D771BAEB610FE3DB5C46681C85B209F131
:101D4000010000F0FF09B945C8DB30E04FF00009A1
:101D50002BE00C2F07D106EB4600454901EB800034
:101D600010F8098004E0434800EB061010F80980E1
:101D70004FF0000A10E018F0010F07D005EB090240
:101D800091B204EB0A0290B2FEF737FE4FEA680800
:101D90000AF1010000F0FF0A07EBD771BAEB610FFF
:101DA000E9DB09F1010000F0FF09B945D1DB2F495A
:101DB0000098088088E710B50246012000E05043F3
:101DC0000B00A1F10104E1B2F9D110BD2DE9FF4FE3
:101DD00081B0044615461E460E9F4FF0000AD046BD
:101DE0004EE0A6EB0800401EC1B20A20FFF7E3FF59
:101DF000B5FBF0F00A21B0FBF1F201FB120000F09C
:101E0000FF09BAF1000F16D1701E404513DDB9F17C
:101E1000000F0ED10023BB4607EBD771491001FB21
:101E2000084188B200933B4620220299FFF73DFF0C
:101E300012E04FF0010A0023BB4607EBD7714910AF
:101E400001FB084188B200933B4609F13001CAB258
:101E50000299FFF72AFF00BF08F101000EE0000021
:101E6000A80122420010014000000140160000209D
:101E70002A5700089E5B00081800002000F0FF08A9
:101E8000B045AEDB05B0BDE8F08F2DE9F84F044654
:101E90000D4616461F46DDF828804FF0000923E066
:101EA000A7EB0900401EC1B20A20FFF784FFB6FB72
:101EB000F0F00A21B0FBF1F201FB120000F0FF0A82
:101EC0000B9BC34608EBD871491001FB094188B24E
:101ED000009343460AF13001CAB22946FFF7E5FEF6
:101EE00009F1010000F0FF09B945D9DBBDE8F88F21
:101EF000F8B504460D4616461BE0E82C03DD002429
:101F000005F1100085B2B5F59C7F06DD0020044682
:101F100005464FF6FF70FEF78BFD002300933278E5
:101F2000102329462046FFF7C0FE04F1080084B2C2
:101F3000761C30780028E0D1F8BD000010B50121F2
:101F4000042000F042FA0121080701F0C0F8012046
:101F500000F0F9FE00F019FF10BD10B500214FF49C
:101F6000FE7001F0C1F8FFF7E9FF10BD70B5002465
:101F7000002500202E4908601AE02D48A03800688E
:101F800018B1601CC4B2002508E0681CC5B2032D5E
:101F900004DD012026490860002070BD1E2000F0ED
:101FA000D7F8642C04DB0020214908600120F4E705
:101FB000E3E710B501201F490860FFF7D7FF08B11C
:101FC000FFF7CBFF10BD1FB50121052001F072F80E
:101FD0000120ADF80C0028208DF80F0003A9164849
:101FE00000F034FD0021084600F03FFE0120009083
:101FF00000208DF8040008208DF8050001208DF8E0
:102000000600684600F03AFC06208DF80800022021
:102010008DF809008DF80A0001208DF80B0002A848
:1020200000F099F9FFF7A2FF08B9FFF787FF1FBD7E
:10203000A0012142140401400008014000B587B00E
:1020400001214FF4017001F035F84FF4004000F029
:1020500095FF0F20ADF8040000208DF8070001A9BE
:102060002F4800F0F3FC2F4800F0E0F90020029028
:102070008DF80C008DF80D004FF4602004900020C6
:10208000059001208DF8180002A9264800F0F5F906
:10209000012000F09EFB0121224800F019FA21489E
:1020A00000F038FA00BF1F4800F039FA0028FAD1D2
:1020B0001C4800F03EFA00BF1A4800F03FFA002822
:1020C000FAD107B000BD10B504460723012221460E
:1020D000144800F068FA0121124800F039FA00BFF4
:1020E0000221104800F088FB0028F9D00D4800F0CC
:1020F000BFFA10BD70B50024002509E01020FFF7DD
:10210000E2FF204484B2052000F022F8681CC5B22A
:102110000A2DF3DB0A2094FBF0F080B270BD0000C2
:10212000000801400024014010B504466FF004008F
:1021300000F05EF9E11704EB5171C9101F4A1170EC
:10214000104600784FF47A714843911C088010BD06
:102150001A4A921C128842434FF0E0235A6100222F
:102160009A6101221A6100BF4FF0E022116911F05B
:10217000010F02D011F4803FF6D000224FF0E0238F
:102180001A619A6170470D4A127842434FF0E0237A
:102190005A6100229A6101221A6100BF4FF0E022C9
:1021A000116911F0010F02D011F4803FF6D0002226
:1021B0004FF0E0231A619A61704700001C00002074
:1021C00010B54FF4A06000F0C1F810BD014600BF8B
:1021D000704700BF494A128812F0400FFAD0C2B2CD
:1021E000464B1B1D1A80704710B586B0044601216E
:1021F00044F2050000F05EFF4FF40070ADF81400EB
:1022000003208DF8160018208DF8170005A93C480A
:1022100000F01CFC4FF48060ADF8140004208DF831
:10222000170005A9364800F011FC25208DF80000A4
:1022300003208DF801008DF8020001208DF80300C5
:10224000684600F088F801940020ADF80800ADF869
:102250000A00ADF80C00ADF810000C20ADF80E002F
:1022600001A9264801F07DFE012240F225512348B4
:1022700001F00EFF0121214801F0FEFE06B010BD65
:1022800010B540F225511D4801F0E9FF002834D077
:102290001A4801F064FFC4B21A48007810F0800FA9
:1022A0002BD11848007810F0400F0CD00A2C03D026
:1022B00000201449087020E01248007840F08000A7
:1022C0001049087019E00D2C06D10E48007840F036
:1022D00040000C49087010E00A48007800F03F0008
:1022E00009490C5407480078401C06490870084604
:1022F00000783F2801DD0020087010BD0038014043
:1023000000080140200000203C00002009488047D0
:1023100009480047FEE7FEE7FEE7FEE7FEE7FEE7C7
:10232000FEE7FEE7FEE7FEE704480549054A064BDF
:1023300070470000C1040008ED000008E000002024
:10234000E0060020E0020020E002002032490143C4
:10235000324A1160704770B5002100230F22C47803
:102360000CB32E4C246804F4E064C4F5E064210A44
:10237000C1F10403CA40447804FA03F1847814409C
:1023800021430901264C0678A155047804F01F0565
:102390000124AC4005786D114FF0E02606EB850571
:1023A000C5F8004109E0047804F01F040125A540A8
:1023B0001C4C0678761144F8265070BD1A4A0A4023
:1023C0000243164B1B1F1A60704741B1134A121D7E
:1023D000126802434FF0E023C3F8102D07E00F4AC4
:1023E000121D126882434FF0E023C3F8102D70478E
:1023F000042808D14FF0E021096941F004014FF0B1
:10240000E022116107E04FF0E021096921F00401A9
:102410004FF0E022116170470000FA050CED00E07A
:1024200000E400E080E100E080FFFF1F10B50446FB
:10243000F748844208D10121401500F055FE0021E3
:10244000601500F051FE17E0F248844208D10121E6
:10245000001500F049FE0021201500F045FE0BE0BC
:10246000ED48844208D10121C80300F03DFE00215F
:102470004FF4004000F038FE10BD30B500220023BC
:102480004268E64C22400D790C6844EA0524224358
:1024900042608268E24C2240D1E902542C434D79DB
:1024A00044EA450422438260C26A22F470020C7C32
:1024B000641EE4B2234342EA0352C26230BD0021EB
:1024C0000160017141718160C16001210174704737
:1024D00021B1826842F00102826003E0826822F04A
:1024E00001028260704721B1826842F4807282608A
:1024F00003E0826822F480728260704710B5002386
:10250000CBB21AB144681C43446002E044689C4367
:10251000446010BD816841F0080181607047014648
:1025200000208A6812F0080F01D0012000E000208E
:102530007047816841F004018160704701460020C6
:102540008A6812F0040F01D0012000E000207047DB
:1025500021B1826842F4A002826003E0826822F422
:10256000A00282607047014600208A6812F4800F42
:1025700001D0012000E00020704710B500220023A8
:10258000426822F460424B1E42EA4332426010BD70
:1025900021B1426842F40062426003E0426822F4E2
:1025A000006242607047F0B500240025092911DD62
:1025B000C468A1F10A0606EB4607072606FA07F5E6
:1025C000AC43A1F10A0606EB460603FA06F52C43D6
:1025D000C4600CE0046901EB4107072606FA07F521
:1025E000AC4301EB410603FA06F52C430461072ACC
:1025F0000FDA446B561E06EB86071F2606FA07F510
:10260000AC43561E06EB860601FA06F52C434463DE
:1026100022E00D2A0FDA046BD61F06EB86071F2671
:1026200006FA07F5AC43D61F06EB860601FA06F557
:102630002C43046310E0C46AA2F10D0606EB860782
:102640001F2606FA07F5AC43A2F10D0606EB860637
:1026500001FA06F52C43C462F0BD21B1826842F450
:102660008012826003E0826822F4801282607047E8
:102670000146C86C80B2704765484C3000687047AE
:1026800021B1426842F48062426003E0426822F471
:1026900080624260704721B1426842F480524260D9
:1026A00003E0426822F48052426070470022826850
:1026B00022F4E0420A438260704721B1826842F40A
:1026C0000042826003E0826822F400428260704728
:1026D00021B1826842F40212826003E0826822F42F
:1026E000021282607047014600208A6812F4001FBF
:1026F00001D0012000E000207047F0B50024002543
:102700000026092911DDC468A1F10A0707EB470C6F
:10271000072707FA0CF5AC43A1F10A0707EB4707B7
:1027200003FA07F52C43C4600CE0046901EB410C8B
:10273000072707FA0CF5AC4301EB410703FA07F54D
:102740002C430461846BC4F30156D71C06F1010CC1
:10275000A7EB0C0707EB870C1F2707FA0CF5AC4318
:10276000D71C06F1010CA7EB0C0707EB870701FA52
:1027700007F52C438463F0BD10B500220023826B63
:1027800022F440124B1E42EA0352826310BD10B580
:102790000023034618460B441A6010BD024600236E
:1027A00013461A4601F128000344186880B27047A6
:1027B000002242681B4B1A400A4342607047416244
:1027C000826270470022426822F01F020A43426080
:1027D000704740B10E490831096841F40001124ABE
:1027E000C2F8081407E00A490831096821F4000119
:1027F0000D4AC2F8081470470246002013680B42C5
:1028000001D0012000E000207047CA4302607047F9
:102810000024014000280140003C0140FFFEF0FF81
:10282000FDF7F1FFFFFD3FFF0020014070B50246BC
:102830000020002300240B125568CEB205EA0604DE
:1028400015681D4202D00CB1012000E0002070BDCF
:1028500000220A12D3430360704700000020484959
:1028600008604849C1F80404454908310860091D59
:1028700008604548424914310860704700214049CA
:102880008279002A40D03F4AD2F8002403689A4354
:102890003C4BC3F800241A46D2F8042403689A4338
:1028A0000B1D1A60027911440A6803681A430A6012
:1028B000344AD2F8082403689A43324BC3F80824F8
:1028C0001A46D2F80C2403689A432D4B0C331A6035
:1028D0004279102A10D12B4AD2F8082403681A43EF
:1028E000284BC3F808241A46D2F80C2403681A436C
:1028F000244BC3F80C240DE02149427911440A68A5
:1029000003681A430A6005E0027911440A68036803
:102910009A430A6070470021016001710C214171E6
:102920000021817170471649103109680143154A29
:10293000C2F81014704701460020114A1432126880
:102940000A4201D0012000E0002070470C491431F8
:1029500008607047014600200022094B1B6803EA0B
:102960000102084BD3F814340B4202D00AB1012003
:1029700000E00020704702491431086070470000F1
:102980000004014000000140FFFF0F0010B50446A5
:10299000C748844208D10121042000F0A5FB002192
:1029A000042000F0A1FB46E0C248844208D1012186
:1029B000082000F099FB0021082000F095FB3AE088
:1029C000BD48844208D10121102000F08DFB002178
:1029D000102000F089FB2EE0B848844208D1012184
:1029E000202000F081FB0021202000F07DFB22E070
:1029F000B348844208D10121402000F075FB00213A
:102A0000402000F071FB16E0AE48844208D101215D
:102A1000802000F069FB0021802000F065FB0AE0C7
:102A2000A948844207D10121801500F05DFB0021F7
:102A3000A01500F059FB10BD10B50121084600F0AB
:102A400053FB0021012000F04FFB10BDF0B5002228
:102A50000023002400250026002791F803C00CF075
:102A60000F0291F803C01CF0100F03D091F802C0C0
:102A70004CEA0202B1F800C01CF0FF0F31D006682A
:102A800000242BE04FF0010C0CFA04F5B1F800C063
:102A90000CEA0503AB4220D1A5004FF00F0C0CFA55
:102AA00005F7BE4302FA05FC4CEA060691F803C09E
:102AB000BCF1280F06D14FF0010C0CFA04FCC0F851
:102AC00014C00AE091F803C0BCF1480F05D14FF0E3
:102AD000010C0CFA04FCC0F810C0641C082CD1D303
:102AE0000660B1F800C0BCF1FF0F34DD4668002479
:102AF0002EE004F1080C4FF0010E0EFA0CF5B1F8BF
:102B000000C00CEA0503AB4221D1A5004FF00F0C29
:102B10000CFA05F7BE4302FA05FC4CEA060691F8EA
:102B200003C0BCF1280F05D104F1080C0EFA0CFE0D
:102B3000C0F814E091F803C0BCF1480F07D104F1CC
:102B4000080C4FF0010E0EFA0CFEC0F810E0641CE9
:102B5000082CCED34660F0BD4FF6FF7101800221F4
:102B600081700421C17070470246002093680B42B7
:102B700001D0012000E0002070470146886880B243
:102B8000704702460020D3680B4201D0012000E0CC
:102B9000002070470146C86880B2704701617047E5
:102BA000416170470AB1016100E041617047C16055
:102BB00070474FF480320A43826181618261826989
:102BC000826970470022414B1A684FF680731A40A1
:102BD00042EA00120A433D4B1A6070473C49C86103
:102BE0007047F0B5002200230024002500F00046C5
:102BF000B6F1004F02D1354EF46901E0334E7468EE
:102C0000C0F3034582B200F44016B6F5401F08D168
:102C100024F070642D4E766826F070662B4F7E602F
:102C200012E000F48016B6F5801F06D1032606FADE
:102C300005F39C4344F0706406E0460D360102FA49
:102C400006F6B44344F0706421B1460D360102FA31
:102C500006F6344300F00046B6F1004F02D11B4E99
:102C6000F46101E0194E7460F0BD30B500228B07AD
:102C70001C0F0F2303FA04F2144B08338C1053F883
:102C8000244094438D1043F825408C1053F8243091
:102C90008C07240F00FA04F423430C4C08348D10E5
:102CA00044F8253030BD0A49DC3108607047000027
:102CB00000080140000C01400010014000140140D8
:102CC00000180140001C01400020014000000140AC
:102CD000000020420E49086070470D494860704767
:102CE0000B49886070474AF6AA2009490860704776
:102CF0004CF6CC4006490860704701460020044A63
:102D0000D2680A4201D0012000E000207047000094
:102D10000030004010B50121080700F0F2F9002151
:102D20004FF0805000F0EDF910BD2C49086270475B
:102D30002A49086170470021294A116821F0E00101
:102D40000143116070472549A0310860704710B5F4
:102D50000022234B1A6822F0030202431A60214B1F
:102D60001B6843F004034FF0E024C4F8103D012930
:102D700001D130BF00E020BF1A4B1B6823F00403D1
:102D80004FF0E024C4F8103D10BD1548006840F035
:102D90000400134908600846006840F0020008601B
:102DA0001048006840F004004FF0E021C1F8100D19
:102DB00000BF00BF30BF704701460020084A52687C
:102DC0000A4201D0012000E0002070470449096850
:102DD00041EA8001024A11607047000000000E4283
:102DE0000070004010ED00E0DB48006840F001009A
:102DF000D949086008464068D8490840D649486023
:102E000008460068D6490840D3490860084600686B
:102E100020F4802008600846406820F4FE004860E6
:102E20004FF41F0088607047CB49096821F4803156
:102E3000C94A11601146096821F480211160B0F57A
:102E4000803F03D0B0F5802F0ED106E0C24909685B
:102E500041F48031C04A116007E0BF49096841F47C
:102E6000A021BD4A116000E000BF00BF704710B54F
:102E700001460022002300204A11012A02D1B64C4B
:102E8000236806E0022A02D1B34C236A01E0B24C67
:102E9000636A01F01F02012494401C4201D001200A
:102EA00000E0002010BD70B500240025002600BF02
:102EB0003120FFF7DCFF0646641CB4F5A06F01D09B
:102EC000002EF5D03120FFF7D2FF08B1012500E038
:102ED0000025284670BD00219F4A116821F0F801A5
:102EE00041EAC001116070479E49086070470022A6
:102EF000994B5A6822F47C1240EA01031A43964B1C
:102F00005A6070479749086670470021924A516895
:102F100021F003010143516070478F48406800F081
:102F20000C00704700218C4A516821F0F0010143E8
:102F3000516070470021884A516821F4E0610143E3
:102F4000516070470021844A516821F4605141EA80
:102F5000C0015160704729B17F4A527A02437E4BCB
:102F60005A7206E07C4A527AC343DBB21A407A4B6B
:102F70005A7270477B49D831086070470021764A01
:102F8000516821F440410143516070470021724A69
:102F900020321170704A82F82010012802D00428D3
:102FA0000AD104E001216C4A2032117005E00521AC
:102FB000694A2032117000E000BF00BF70476A49C3
:102FC000086070476449096A0143634A11627047A7
:102FD000654944390860704730B50021002200235C
:102FE00000245D4D6D6805F00C0121B1042905D068
:102FF000082923D105E05D4D056022E05B4D0560A9
:103000001FE0554D6D6805F47012534D6D6805F461
:103010008033022505EB92421BB9554D554305609F
:103020000BE04D4D6D6815F4003F03D0504D5543F6
:10303000056002E04D4D5543056002E04B4D0560D3
:1030400000BF00BF444D6D6805F0F0010909494D0E
:103050006C5C0568E54045603F4D6D6805F4E061D6
:10306000090A444D6C5C4568E54085603A4D6D68E1
:1030700005F46051C90A3F4D6C5C4568E540C56088
:10308000354D6D6805F44041890B3A4D10356C5C47
:10309000C568B5FBF4F5056130BD29B12E4A52690A
:1030A00002432D4B5A6104E02B4A526982432A4B5A
:1030B0005A61704729B1284A92690243264B9A61A6
:1030C00004E0254A92698243234B9A61704729B1F3
:1030D000214AD2690243204BDA6104E01E4AD269D8
:1030E00082431D4BDA61704729B11B4AD268024303
:1030F000194BDA6004E0184AD2688243164BDA6052
:10310000704729B1144A12690243134B1A6104E053
:10311000114A12698243104B1A61704712494039B3
:10312000086070470F49C86470470B49C871704701
:103130000948406A40F0807007494862704701467C
:103140000020054A92680A4201D0012000E00020D8
:103150007047014988727047001002400000FFF874
:10316000FFFFF6FE000042428004424200127A0055
:1031700000093D002800002010B50446FF488442A5
:1031800008D10121C014FFF7AFFF0021E014FFF7C1
:10319000ABFFC4E0B4F1804F08D101210846FFF72E
:1031A000B0FF00210120FFF7ACFFB8E0F4488442F3
:1031B00008D101210220FFF7A4FF00210220FFF720
:1031C000A0FFACE0EF48844208D101210420FFF7C2
:1031D00098FF00210420FFF794FFA0E0EA48844212
:1031E00008D101210820FFF78CFF00210820FFF7FC
:1031F00088FF94E0E548844208D101211020FFF7C0
:1032000080FF00211020FFF77CFF88E0E048844227
:1032100008D101212020FFF774FF00212020FFF7B3
:1032200070FF7CE0DB48844208D101214014FFF7A5
:103230005BFF00216014FFF757FF70E0D64884421F
:1032400009D10121C804FFF74FFF00214FF40020EE
:10325000FFF74AFF63E0D148844209D10121080504
:10326000FFF742FF00214FF48010FFF73DFF56E0CB
:10327000CB48844209D101214805FFF735FF0021E1
:103280004FF40010FFF730FF49E0C648844208D1F0
:1032900001214020FFF735FF00214020FFF731FFDB
:1032A0003DE0C148844208D101218020FFF729FF79
:1032B00000218020FFF725FF31E0BC48844208D17F
:1032C00001218015FFF71DFF0021A015FFF719FF51
:1032D00025E0B748844209D101210804FFF704FF23
:1032E00000214FF48030FFF7FFFE18E0B148844220
:1032F00009D101214804FFF7F7FE00214FF4003007
:10330000FFF7F2FE0BE0AC48844208D101218804AB
:10331000FFF7EAFE00214FF48020FFF7E5FE10BD25
:1033200000220288954B98420ED09A4B98420BD0BF
:10333000B0F1804F08D0924B984205D0914B984203
:1033400002D0914B984204D14FF68F731A404B88AC
:103350001A438E4B984207D08D4B984204D04FF6BB
:10336000FF431A40CB881A4302808B8883850B88E1
:103370000385824B98420BD0864B984208D08C4BE9
:10338000984205D08B4B984202D08B4B984201D18A
:103390000B7A038601238382704770B500220023D5
:1033A0000024058C4FF6FE7635400584038C848816
:1033B000028B4FF68F752A40B51E2A400D882A438E
:1033C000751E2B400D892B434D882B436B4DA84216
:1033D0000BD0704DA84208D0754DA84205D0754D50
:1033E000A84202D0744DA84213D14FF6F7752B4076
:1033F0004D892B434FF6FB752B408D882B434FF6A1
:10340000FF652C404FF6FF552C408D892C43CD890C
:103410002C4384800283CD888586038470BD70B57B
:10342000002200230024058C4FF6EF7635400584FA
:10343000038C8488028B48F6FF752A404FF6FF45BF
:103440002A400D882D0642EA15424FF6DF752B40C3
:103450000D892D0543EA15434D882D0543EA154393
:10346000464DA84202D04B4DA8421BD14FF67F7566
:103470002B404D892D0543EA15434FF6BF752B4070
:103480008D882D0543EA15434FF6FF352C404FF24A
:10349000FF752C408D89AD0444EA1544CD89AD04F7
:1034A00044EA154484800283CD880587038470BD77
:1034B00070B5002200230024058C4FF6FF663540CE
:1034C0000584038C8488828B4FF68F752A404FF6D3
:1034D000FC752A400D882A434FF6FF552B400D8975
:1034E0002D0643EA15434D882D0643EA1543234D27
:1034F000A84202D0274DA8421BD14FF2FF752B40A6
:103500004D892D0643EA15434FF6FF352B408D8834
:103510002D0643EA15434EF6FF752C404DF6FF7518
:103520002C408D892D0544EA1544CD892D0544EAAA
:10353000154484808283CD888587038470BD70B5EF
:10354000002200230024058C4EF6FF7635400584CA
:10355000038C8488828B48F6FF752A404FF6FF451E
:103560002A400D882D0642EA15424DF6FF752B4084
:103570000D892D0743EA15434D881FE0002C0140BB
:103580000004004000080040000C00400010004013
:103590000014004000340140004C01400050014044
:1035A0000054014000180040001C00400020004072
:1035B0000040014000440140004801402D0743EA1B
:1035C0001543F84DA84202D0F74DA84206D14BF65C
:1035D000FF752C408D89AD0544EA154484808283B3
:1035E000CD88A0F84050038470BD828B4FF2FF332A
:1035F0001A408283828B0B0642EA13428283704711
:10360000F0B5002400250026078C4EF6FF7C07EA63
:103610000C070784848B058C0F073E0C40F6FF4790
:103620003C40170644EA17441F0744EA1744DD4F9D
:10363000B8420ED0DC4FB8420BD0B0F1804F08D06A
:10364000DA4FB84205D0DA4FB84202D0D94FB8426B
:1036500006D14DF6FF773D4046F480573D4305E0E7
:1036600047F6FF573D4041F480573D43848305842E
:10367000F0BD828B4FF6F3731A408283828B0A432C
:1036800082837047F0B5002400250026078C4FF692
:10369000FF6C07EA0C070784848B058C0F063E0C31
:1036A0004FF60C773C401F0542EA17473C43BD4F9D
:1036B000B8420ED0BC4FB8420BD0B0F1804F08D00A
:1036C000BA4FB84205D0BA4FB84202D0B94FB8424B
:1036D00006D14FF6FF573D4046F480773D4305E065
:1036E0004FF2FF573D4041F480773D43848305848A
:1036F000F0BD028B4FF2FF331A400283028B0B06A0
:1037000042EA134202837047F0B5002400250026E8
:10371000078C4FF6EF7C07EA0C070784048B058CB7
:103720000F053E0C40F6FF473C401F0744EA174494
:10373000170644EA17449B4FB8420ED09A4FB8423E
:103740000BD0B0F1804F08D0984FB84205D0984FB9
:10375000B84202D0974FB84206D14FF6DF773D40CE
:1037600046F010073D4305E04FF65F773D4041F0DE
:1037700010073D4304830584F0BD028B4FF6F373BD
:103780001A400283028B0A4302837047F0B500247B
:103790000025068C4FF6FE773E400684048B058C90
:1037A0004FF60C7634401E0542EA164634437D4EF1
:1037B000B0420ED07C4EB0420BD0B0F1804F08D05A
:1037C0007A4EB04205D07A4EB04202D0794EB04225
:1037D00006D14FF6FD76354041F00106354305E050
:1037E0004FF6F576354041F00106354304830584F4
:1037F000F0BD70B504460D466A4884420ED06A4852
:1038000084420BD0B4F1804F08D06848844205D080
:103810006748844202D06748844200D100E000BF7C
:10382000288850B92B89AA8869882046FFF7AEFFFF
:10383000E9882046FFF7A1FF25E0288804280AD15F
:103840002B89AA8869882046FFF75EFFE988204611
:10385000FFF74FFF17E0288808280AD12B89AA888C
:1038600069882046FFF70EFFE9882046FFF701FF31
:1038700009E02B89AA8869882046FFF7C1FEE988FC
:103880002046FFF7B2FE70BD2DE9F04104460D461B
:1038900000260127688808B9022600E00026A888CB
:1038A000012801D1022700E001272888A0B92B892F
:1038B000AA8869882046FFF769FFE9882046FFF754
:1038C0005CFF2B893A4631462046FFF71DFFE98809
:1038D0002046FFF70EFF13E02B89AA88698820464F
:1038E000FFF712FFE9882046FFF703FF2B893A46CE
:1038F00031462046FFF74AFFE9882046FFF73DFFA3
:10390000BDE8F0810A884B881A438B881A43CB881C
:103910001A430B891A434B891A438B891A43A0F81F
:10392000442070474FF6FF71818000210180C180E3
:103930004180017270470021018041808180C180F7
:10394000018141818181C1817047002101804180D5
:10395000012181800021C180018170470021018007
:1039600041808180C180018141818181704721B185
:10397000028842F00102028004E002884FF6FE73E2
:103980001A400280704731B1B0F8442042F400423E
:10399000A0F8442005E0B0F84420C2F30E02A0F8DD
:1039A00044207047002C01400034014000040040D6
:1039B00000080040000C004010B51AB183890B4389
:1039C000838104E08389CC43A4B22340838110BD6A
:1039D0008182704741EA0203A0F84830704710B571
:1039E0001AB183890B43838104E08389CC43A4B259
:1039F0002340838110BD01894FF6F8721140018187
:103A00007047002202894FF68F731A400A430281E1
:103A1000704730B504460D4629462046FFF7F1FFB2
:103A2000208940F00700208130BD2DE9F041044697
:103A30000D4616461F46602D06D13B4601223146F3
:103A40002046FFF761FE05E03B4601223146204655
:103A5000FFF79CFE29462046FFF7D3FF208940F060
:103A600007002081BDE8F08130B500240489E4B26C
:103A70001D0642EA15450D432C43048130BD2DE956
:103A8000F04104460D461646984600274346324606
:103A900029462046FFF7E8FF27894FF6F8700740D0
:103AA00047F007074FF68F70074047F070072781F0
:103AB000BDE8F081F0B504460D4616461F463B466C
:103AC000324629462046FFF7CFFF208940F4804048
:103AD0002081F0BD018582827047002202884FF666
:103AE0008F731A400A4302807047F0B50024002506
:103AF00000260489058B068C4FF6F8773C400C4372
:103B00004FF6FC473D4040F201173D434FF6DD774D
:103B10003E401F0542EA17473E4304810583068461
:103B2000F0BD0022028B4FF68F731A400A430283C6
:103B300070470022028B48F6FF731A400B0642EAD8
:103B40001342028370470022828B4FF68F731A4014
:103B50000A43828370470022828B48F6FF731A4023
:103B60000B0642EA13428283704721B1028842F079
:103B70008002028004E002884FF67F731A400280C0
:103B8000704721B1828842F00402828004E082887A
:103B90004FF6FB731A408280704721B1828842F051
:103BA0000802828004E082884FF6F7731A40828010
:103BB000704721B1828842F00102828004E082884D
:103BC0004FF6FE731A40828070470022028B4FF638
:103BD000F7731A400A43028370470022028B4FF2A8
:103BE000FF731A400B0642EA134202837047002219
:103BF000828B4FF6F7731A400A4382837047002284
:103C0000828B4FF2FF731A400B0642EA1342828303
:103C100070470022028B4FF6FB731A400A4302835F
:103C200070470022028B4FF6FF331A400B0642EA20
:103C30001342028370470022828B4FF6FB731A40B7
:103C40000A43828370470022828B4FF6FF331A406B
:103C50000B0642EA1342828370470022028B4FF622
:103C60007F731A400A43028370470022028BC2F31B
:103C70000E020B0642EA1342028370470022828B37
:103C80004FF67F731A400A43828370470022828B6B
:103C9000C2F30E020B0642EA1342828370470022EF
:103CA000028C4FF6FD731A400A43028470470022CB
:103CB000028C4FF6F7731A400A43028470470022C1
:103CC000028C4FF6DF731A400B0542EA134202845E
:103CD00070470022028C4FF67F731A400B0542EAB0
:103CE0001342028470470022028C4FF6FF531A40A1
:103CF0000B0642EA1342028470470022028C4FF204
:103D0000FF731A400B0642EA1342028470470022F6
:103D1000028C4DF6FF731A400B0742EA13420284ED
:103D2000704730B5002301248C40A3B2048CDD43DE
:103D3000ADB22C400484048C02FA01F5ADB22C43E0
:103D4000048430BD30B5002304248C40A3B2048C1D
:103D5000DD43ADB22C400484048C02FA01F5ADB20F
:103D60002C43048430BD70B500230024034618465C
:103D7000183301258D40ACB2058CE643B6B2354010
:103D8000058409B1082909D103EB61031D6825F0F9
:103D900070051D601D6815431D600CE00D1FADB260
:103DA00003EB65031D6825F4E0451D601D681606DC
:103DB00045EA16451D6070BD21B1028842F002023D
:103DC000028004E002884FF6FD731A4002807047BB
:103DD00021B1028842F00402028004E002884FF61A
:103DE000FB731A400280704721B1828842F0800242
:103DF000828004E082884FF67F731A408280704789
:103E000002884FF6F7731A40028002880A43028044
:103E1000704782884FF68F731A40828082880A43E7
:103E20008280704702894FF6F8731A400281028936
:103E30000A430281704702894FF67F731A4002815C
:103E400002890A43028170478184704781857047E7
:103E5000818670470187704781877047A0F84010BE
:103E6000704702884FF6FF431A40028002880A43D7
:103E7000028070470146888E70470146088F704760
:103E80000146888F70470146B1F8400070470146EF
:103E9000888C70470146088D704702460020138ABF
:103EA0000B4201D0012000E000207047CA4302828B
:103EB000704730B50246002000230024158A05EA29
:103EC0000103958905EA010413B10CB1012000E05A
:103ED000002030BDCA4302827047000010B504467E
:103EE000FB48844209D101218803FFF7FDF8002136
:103EF0004FF48040FFF7F8F832E0F648844209D1E9
:103F000001214804FFF7FDF800214FF40030FFF7CE
:103F1000F8F825E0F048844209D101218804FFF730
:103F2000F0F800214FF48020FFF7EBF818E0EB48A1
:103F3000844209D10121C804FFF7E3F800214FF4BE
:103F40000020FFF7DEF80BE0E548844208D10121AC
:103F50000805FFF7D6F800214FF48010FFF7D1F8DD
:103F600010BD2DE9F04786B004460D460026002717
:103F700000BFB146B246A88900B100BFA246268A5A
:103F80004CF6FF700640E88806432682A6894EF666
:103F9000F3100640A8882989084369890843064325
:103FA000A681A68A4FF6FF400640A8890643A6824E
:103FB00001A8FFF711F85446C548824501D1049F76
:103FC00000E0039FA08910F4004F08D007EBC70062
:103FD00000EB071029684900B0FBF1F807E007EB98
:103FE000C70000EB071029688900B0FBF1F86420D6
:103FF000B8FBF0F006013009642101FB1089A089AB
:1040000010F4004F09D0322101EBC9006421B0FB4C
:10401000F1F000F00700064308E0322101EB09103F
:104020006421B0FBF1F000F00F000643268106B0DA
:10403000BDE8F0874FF41651016000218180C180F6
:1040400001810C21418100218181704710B500223E
:10405000028A4FF2FF031A400B884C8823438C8856
:104060002343CC8823431A43028210BD00210180E0
:1040700041808180C180704721B1828942F4005221
:10408000828104E082894DF6FF731A408281704775
:10409000F0B50024002500260023A1F510676A3F33
:1040A00000D100BF0346C1F3421401F01F050127F0
:1040B00007FA05F6012C01D10C3304E0022C01D1E2
:1040C000103300E014331AB11F6837431F6002E059
:1040D0001F68B7431F60F0BD10B51AB1838A0B4348
:1040E000838204E0838ACC43A4B22340838210BD40
:1040F000028A4FF6F0731A400282028A0A43028251
:10410000704782894FF2FF731A40828182890A4385
:104110008281704721B1828942F00202828104E0EB
:1041200082894FF6FD731A4082817047028A4FF6EA
:10413000DF731A400282028A0A430282704721B169
:10414000028A42F48042028204E0028A4BF6FF7344
:104150001A4002827047C1F308028280704701460C
:104160008888C0F308007047818941F0010181818E
:104170007047028BD2B20283028B42EA0122028391
:104180007047028B02F47F420283028B0A43028350
:10419000704721B1828A42F02002828204E0828A42
:1041A0004FF6DF731A408282704721B1828A42F053
:1041B0001002828204E0828A4FF6EF731A408282F4
:1041C000704721B1828A42F00802828204E0828A2A
:1041D0004FF6F7731A408282704721B1828942F408
:1041E0000042828103E08289C2F30E02828170471D
:1041F00021B1828A42F40062828204E0828A4FF214
:10420000FF731A4082827047828A4FF6FB731A400E
:104210008282828A0A438282704721B1828A42F076
:104220000202828204E0828A4FF6FD731A40828283
:10423000704702460020B1F5007F00D100BF13880F
:104240000B4201D0012000E00020704701F4007211
:10425000B2F5007F00D100BFCA430280704770B53D
:1042600002460023002400250020A1F510666A3EC6
:1042700000D100BFC1F3421501F01F04012606FA68
:1042800004F4012D02D19689344006E0022D02D1BA
:10429000168A344001E0968A34400B12012606FA51
:1042A00003F31688334014B10BB1012000E0002065
:1042B00070BD10B500220023A1F510646A3C00D146
:1042C00000BF0A1201249440A3B2DC43048010BD55
:1042D000003801400044004000480040004C0040CD
:1042E0000050004010B50121C802FEF70AFF00216E
:1042F0004FF40060FEF705FF10BD0021174A126859
:1043000022F4C0710143164AC2F8041C7047002110
:10431000124A126822F07F0100F07F021143104A16
:10432000C2F8041C704701200E490860704700F075
:104330007F010A4A121F1160704740F08001074A4E
:10434000121F116070470548001D0068C0B2704719
:1043500000200249091D086070470000042C00403D
:1043600000200040A4800542704700000FB4054AB9
:10437000054910B503AB7944029800F0CEF810BCA3
:104380005DF814FB2400002059DEFFFF2DE9F04109
:1043900004460E4600202BE0E1682046884748B3DB
:1043A000252802D0D4E901211FE0E168204600273A
:1043B000884705001ED0A5F14100192802D82035F4
:1043C0004FF400673246294620462760FBF7C8FEB7
:1043D00040B1012801D1361DDEE7F61D26F00706A3
:1043E0000836D9E7D4E9012128469047206A401CC5
:1043F0002062D1E7206ABDE8F081000070B5044674
:104400000D4621461068AFF300802168090502D5EA
:10441000104A7A4402E00F4A7A440E32002104F135
:10442000240306E000F00F064FEA1010965D5E547C
:10443000491C0028F6D120680023000704D5702D00
:1044400002D009B1113202232046BDE8704000F0CD
:1044500007B80000781D000070477047704770472C
:104460002DE9F0470D4604469246994600F124088E
:104470000168880604D5E06921F01001216000E0A0
:1044800001200027A84200DD471BA1697A1902EB31
:104490000900081AA0612068C00602D42046AFF3C4
:1044A0000080002608E0D4E901211AF806009047B0
:1044B000206A401C761C20624E45F4DB2068C00652
:1044C0000AD52046AFF3008006E0D4E90121302070
:1044D0009047206A401C2062381EA7F10107F4DCD7
:1044E00007E0D4E9012118F805009047206A401C34
:1044F0002062281EA5F10105F3DC2046AFF3008001
:1045000021680220090600D40120BDE8F0870000E0
:1045100001694A1C02610878704710B50C461946BB
:1045200090B0CDE9024200220692044A7A44CDE9D5
:10453000042001A8FFF72AFF10B010BDE1FFFFFF24
:10454000754600F029F8AE4605006946534620F04E
:104550000700854618B020B5FDF7E6FEBDE820400F
:104560004FF000064FF000074FF000084FF0000B2F
:1045700021F00701AC46ACE8C009ACE8C009ACE8E2
:10458000C009ACE8C0098D4670470446AFF300800F
:104590002046FBF7F9FD0000004870477C00002032
:1045A00030B504460D460C480088A0F5094189390C
:1045B00008D121464E20FCF753F929464F20FCF73D
:1045C0004FF907E021462020FCF74AF9294621202F
:1045D000FCF746F930BD00001A00002001F000434E
:1045E00021F0004181EA410212F0FE4F08BF12F4AF
:1045F000600F00F02880A1F16051B1F5801F1BDB36
:1046000002014FF0404C09D803D208BF4FF0000C14
:104610000AE000F000521CEB820C05D410F10050AF
:104620004FF0804C41F10001B1F17F6F06DA43EAAF
:10463000C10343EA50707047184670474FF0FF02BD
:1046400043EAC250704711F4801F01D118467047E9
:10465000DFF818C041EA030150EA013240F0EC8073
:10466000AFF3008021F4E0007047000088000004F0
:1046700010B591EA030F48BF83F0004300F1F283C5
:10468000841A71EB030E05D2121943EB0E03001BC3
:1046900061EB0E01DFF880C14FEA1154A4EB135E09
:1046A0001CEA430F18BF9CEA445F7DD023EA0C0349
:1046B00021EA045143F48013DEF1200C38D322FAAE
:1046C0000EFC10EB0C0023FA0EFC41EB0C01CEF1BA
:1046D000200C03FA0CFC10EB0C0051F10001B1F5B9
:1046E000801FCEF1200C38D201EB0451BDE8104000
:1046F00012FA0CF258BF7047401C38BF5FEA420202
:1047000018BF7047002814BF20F0010041F10001DC
:104710004FEA410313F5001F38BF704728BFB1F1BE
:10472000C0413E494FF0000048BF41F00041704792
:10473000012A43EB0302AEF1200EDEF11F0C32BF63
:104740004FF0000C23FA0EF310EB030041EB045181
:10475000B4EB115FCAD0A1EB045101F580114908F7
:1047600001EB0451BDE810405FEA30000CD350F17A
:10477000000038BF12FA0CFC06D1C3E7401C38BF5A
:104780005FEA4202C4D1BDE74FEA410313F5001FBF
:1047900038BF704728BFB1F1C04120494FF0000039
:1047A00048BF41F0004170479CEA445F08D0BDE833
:1047B000104011EA5C0F04BF01F000410020704777
:1047C000012841EB0104012A43EB030E644598BF25
:1047D000E645DFF84CC0BDE8104000F22580AFF39D
:1047E0000080012841EB0100012A43EB03029042C3
:1047F00008D010F5001F04BF0020704719464FF085
:104800000000704791EA030F4FF0000058BF704757
:1048100004494FF0000070470000E0FF0000F07F07
:10482000110000040000F87F02494FF0000000F082
:1048300032BF00000000F87F02494FF0000000F096
:104840002ABF00000000F87F70B5DFF8ECC33CEA37
:10485000111418BF3CEA131400F09B8081EA030591
:104860000CEA111444EAD5741CEA131518BF11EAB6
:104870000C1F00F074804FEAC1214FEAC32341EAC4
:10488000505143EA5253A4EB050404F17F7441F004
:10489000004143F000434FEAC0204FEAC22200F03B
:1048A000A9F846054FEAD02003EB244340EA4150E3
:1048B0004FEAD12101EB035282EAC47116D05FEABC
:1048C000460E38BF4FF0404610D314BF00234FF0C0
:1048D000004350F1000041F1000110EAD37F4FF096
:1048E000804620EAD37018BF4FF0404691EAC47F5B
:1048F000DFF848E316D412EA0E0F18BF3EEA010EA5
:1049000010D070BDE50754BF1EF4000F1EF4800FD9
:104910000ABF4FF080464FF0404610F1010041F1D0
:104920000001E3E7B4F1806FDEBF01F1C04101F0A7
:104930000041002000DC70BDA8BFA1F1C04146F0DD
:10494000140CA8BF4CF0805CBDE870406FF0000014
:1049500041EA500181EA10314FF00000704711EA3E
:104960000C1F00D00AE013EA0C1F00F03D804FF04E
:10497000000081EA030101F0004170BD6FF000000A
:1049800081EA030141EA500181EA10314FF0000051
:1049900070BD4FEA410EBEEB4C1F4FEA430508BF06
:1049A000002898BFB5EB4C1F08BF002ABDE8704037
:1049B000DFF88CC23FF638AFAFF300804FF4001C35
:1049C0001CEB410F09D11CEB430F0FD04B4021F0E2
:1049D000004148BF41F0004170474FF0000081EABC
:1049E000030303F000417047BDE870404FF0000042
:1049F00094497047E0B5054610B40C460FF23811E3
:104A00004FEA430C4FF0010E4FEA9C6C51F82CC05A
:104A10004FF00001ACFB02604FF00006ECFB03011D
:104A2000001841EB0101301A66EB0101E1FB0C6C4F
:104A30004FF00001ACFB02604FF00006ECFB0301FD
:104A4000001841EB0101301A66EB0101E1FB0C6C2F
:104A50004FF00001ACFB0560ECFB0401A2FB016719
:104A6000E3FB006E17EB0E074FF0000EE3FB017E39
:104A70004EF1000EB6197F414EEB0E0E764275EBED
:104A8000070764EB0E0EECFB0E01ACFB07E64FF0E4
:104A9000000E801941F10001A2FB0067B619E2FB8C
:104AA000017EE3FB007E7F4103FB01EE4EEB0E0E29
:104AB00076424FF0000676EB070765EB0E0EACFB77
:104AC0000E674FF0000E4FEA857C4FEA9505C0193E
:104AD00041F1000145EA847549084FEA3000A2FB24
:104AE00000677642E2FB017EE3FB007E7CEB07077A
:104AF00003FB01EE65EB0E0EB51A77EB03047EF1B6
:104B0000000E24BF2E46274650F1000041F100015F
:104B1000012E38BF012F404141EB010111F0004F40
:104B200018BF022301D0F0BC00BDF0BC4FF0010360
:104B3000001841EB010100BDFCC00FFC830F3EF8E3
:104B40005F8D89F4F0F0F0F0B50373EDEAA00EEAA2
:104B500048B4C2E6E3388EE31C3870E0A6C867DDCF
:104B6000A70D74DAE53594D7037BC7D4D2200DD2D4
:104B7000A87464CFCCCCCCCCE68745CA7C0CCEC71D
:104B80007BC865C5C3300CC3C0C0C0C00BFA82BEB1
:104B90000B6452BCA28B2EBAE00217B8B6600BB6FB
:104BA000B4400BB4C84216B2020B2CB05C414CAE00
:104BB000849176ACAAAAAAAA573FE8A839052FA7DC
:104BC00002B57EA53D0AD7A32BC337A2A0A0A0A003
:104BD000E765119F9DD8899D9CC0099CD9E7909A53
:104BE000511A1F99ED25B4976CDA4F964F09F2943C
:104BF000C4859A939224499209BCFD90EE23B88F04
:104C00006D35788E08CB3D8D8CC0088CFBF2D88A30
:104C10008940AE89888888885FAB67877D8A4B86A4
:104C20005308348542082184976E128382200882BB
:104C300008040281000000800000FF070000F07FF0
:104C4000140000040000F87F10F0004314BF41423C
:104C5000014643F08043B1FA81FC03F1F87311FA85
:104C60000CF1A3EB0C534FEA415008BF704703EB24
:104C7000E1217047DFF8B4C170B53CEA111E18BFDE
:104C80003CEA131E00F0A68081EA03050CEA111E1F
:104C90004EEAD57E1CEA131518BF11EA0C1F00F06E
:104CA0008F80AE4421EA4C1123EA4C13AEF17F7E93
:104CB00041F4801143F48013A1FB024CA0FB036577
:104CC000361955EB0C05A1FB034C4CF10003A0FB7E
:104CD000021C16EB0C06654153F10003094218BF94
:104CE00046F001064FF0140CB3F5007F4CF1000CB8
:104CF000CCF1200425FA0CF203FA04F141EA020196
:104D000005FA04F026FA0CF240EA02006FF0030202
:104D100042EB2E4216FA04F401EB025585EACE71FD
:104D200015D05FEA440C38BF4FF040440FD308BFA2
:104D300043F0004350F1000041F1000110EAD37F3D
:104D40004FF0804420EAD37018BF4FF0404415F074
:104D5000004FDFF8DCC017D415EA0C0F18BF3CEA8F
:104D6000010C11D070BD5FEACE7454BF1CF4000F6B
:104D70001CF4800F0ABF4FF080444FF0404410F104
:104D8000010041F10001E2E7BEF1806FA2BFA1F195
:104D9000C04144F0130C4CF0805CBDE8704006DA72
:104DA0004FF0000001F1C04101F0004170476FF089
:104DB000000041EA500181EA10314FF000007047D5
:104DC0004FEACE714FF0000070BD4FEACE714FF048
:104DD000000070BD4FEA4105B5EB4C1F4FEA43069A
:104DE00008BF002898BFB6EB4C1F08BF002ABDE8DB
:104DF0007040DFF840C03FF617ADAFF300804FF4CE
:104E0000001CBCEB410F98BFBCEB430F0AD84FF01E
:104E1000000081EA030101F0004141F0FE4141F44C
:104E20007001704704494FF0000070470000FF0711
:104E30000000F07F130000040000F87F91EA030FE8
:104E400010B581F000413FF51BAC83F0004300F04A
:104E500009B8000010B591EA030F48BF83F0004382
:104E60003FF50EAC841A71EB030E07D212198EF0C7
:104E7000004E43EB0E03001B61EB0E01DFF810C286
:104E80004FEA1154A4EB135E1CEA430F18BF9CEACF
:104E9000445F00F0C58023EA6C03524221EA0451CA
:104EA000C3EB6C0338BF5B1EDEF1200C29D322FA62
:104EB0000EFC10EB0C0043FA0EFC41EB0C01CEF1A2
:104EC000200C03FA0CFC10EB0C0051F10001CEF1A8
:104ED000200C2DD401EB0451BDE8104012FA0CF265
:104EE0004FF0120C4CF0804C58BF7047401C1CBF58
:104EF000B2F1004F704700280CBF491C20F00100A0
:104F0000704712EB020C43EB030218BF4FF0010C89
:104F10004CEA4202AEF1200EDEF11E0C63D943FAD8
:104F20000EFC10EB0C0051F1FF31CEF11E0CD1D56F
:104F30000CF1010C12FA0CFC404141EB010101EBB8
:104F4000445E5FEA5E5E10D901EB0451BDE810409B
:104F500010EBDC7038BFBCF1004F18BF7047002861
:104F60000CBF491C20F0010070473FD211F5001121
:104F700008BF002801D1BDE810403FD04FEAD42E31
:104F800024F40064B1FA81F2202AA4F1020404BFDF
:104F9000B0FA80F3D218A2F10B02B2F12003A4EB15
:104FA00002040CD2C2F1200301FA02F120FA03F349
:104FB00041EA030100FA02F0C2F1200303E000FA23
:104FC00003F14FF0000001EBCE71002C01EB045116
:104FD000BDE81040A8BF704701F1C0414FF000008C
:104FE00001F00041704701EB045110BD491001EB85
:104FF0000451BDE810404FEA300002E04FF00001DC
:1050000070474FF0120C4A0008BF0042F6D0B2F5CC
:10501000001F28BF704701F000414FF000007047AB
:105020009CEA445F07D0BDE8104011EA5C0F04BF62
:10503000002100207047012841EB0104012A43EBC5
:10504000030E644598BFE645DFF848C0BDE8104050
:105050003FF6EAABAFF30080012841EB0100012AE3
:1050600043EB0302904209D010F5001F04BF00205B
:10507000704783F000414FF00000704791EA030F42
:105080004FF0000048BF704703494FF000007047E1
:105090000000E0FF120000040000F87F094248BF52
:1050A0004CF4803C4FF4C0634FEA115203F101030A
:1050B00021EA025122F400629A1A48BF6FF0FE0200
:1050C00041F48011352A3CD830D0152A1ED3203A1D
:1050D0000CD90028C2F1200321FA02F001FA03F2F0
:1050E00018BF42F001024FF0000130E0C2F10003AE
:1050F00002F1200201FA03F120FA02F241EA020170
:1051000000FA03F208464FF0000120E0C2F120034C
:1051100010B400FA03F401FA03F320FA02F021FAC2
:1051200002F1224610BC43EA000010E050EA0132CE
:105130004FF000004FF000014FF0004218BF521C2A
:1051400005E04FF001024FF000014FF000001CF4A9
:10515000803F2CF4803C18BF41F00041124208BF50
:105160007047520003D303D0401C41F10001704747
:105170005FEAAC72F8D4FAD1401C41F1000120F092
:105180000100F4E77047704700F5000C1CF0FE4F7B
:1051900009D0C1104FEA407001F1605158BF70470B
:1051A000A1F1E04170471CF4000F08D00146400017
:1051B00008BF70474FF000004FEA30017047DFF83A
:1051C00014C0420240F08E80AFF3008040F4E00152
:1051D000104670471800000490EA010F48BF81F0A4
:1051E000004100F18A81421A3CBF801A89184FEAB7
:1051F000D0524FF07F4C1CEA410FA2EBD15318BFA5
:105200009CEA026F00F040804FF0004C4CEA002016
:105210004CEA012121FA03FC10EB0C0C23D202F121
:10522000FF325FEA1C2040EBC25038BF70471CF0D1
:105230007F0F4FEA400C18BFBCF17F4F38BF70475B
:10524000C3F12003994008BF20F00100BCF17F4F5B
:1052500038BF7047A0F1C0404FF0FF0141EAD05184
:105260004FEAC15070474FEA3C00000A40EBC25081
:1052700028BF1CF0FF0F4FEA400CE1D018BFBCF173
:105280007F4F38BF7047E5E79CEA026F05D010EA10
:105290005C0F08BF00F000407047BCEB410F4FEAC5
:1052A000400228BF9445DFF828C0C0F01580AFF356
:1052B0000080B2EB410F05D012F1807F08BF70472C
:1052C0000846704790EA010F58BF70470148704781
:1052D000010000040000C07F014800F0DCB90000BC
:1052E0000000C07F014800F0D6B900000000C07F78
:1052F000C2154FEA002318BF43F0004305D4D2F192
:105300009E020AD323FA02F070474FEA4001B1F13E
:10531000FE4F02D24FF000007047DFF828C04FEA7E
:105320004001B1F17F4F88BF4CF4803C3FF6DAAFCB
:105330001CBF6FEAE0707047AFF300806FEAE07067
:10534000704700006800020410F0004218BF40429D
:1053500042F08042B0FA80F18840A2EBC15202F1E3
:10536000786208BF7047410642EB202018BF5FF00B
:10537000806C28BF20F0010070474FF08042FFF79B
:10538000E9BF00004FF47F0C1CEAD0121EBF1CEADC
:10539000D11392EA0C0F93EA0C0F00F04A8090EAC6
:1053A000010F48BF42F480724FF0004C4CEA0020DD
:1053B0004CEA01211A44A0FB01C3A2F50002BCF192
:1053C000000F18BF43F0010302F4807CB3F1004FDB
:1053D00038BF5B0042EB2242180A40EBC25028BFA4
:1053E00013F07F0F18BFB2F57C0F38BF704708BFAE
:1053F00020F00100B2F57C0F38BF70470BD582F06A
:10540000FF0212F5803FC8BF704700F1C040D8BF0F
:1054100000F00040704700F5000C5FEA4C0C48BFFC
:105420007047B0F1C0404FF07F404CBF4010400883
:10543000704790EA010F0CEAD11348BF42F4807222
:10544000624538BF634504D280EA010000F00040A5
:1054500070474FF0807C1CEB400F98BF1CEB410F56
:105460004FF0030C4CF0806C3FF636AFAFF300808A
:1054700012F47F0F1FBF13F47F0F42F0FF02D0051D
:1054800070470148704700000000C07F10B412F45C
:105490007F0F4FEA00204FEA012110D1B0FA80F4CB
:1054A00000FA04F0A2EB044213F47F0F02F58032FD
:1054B00018BF41F0004100D010BC18BF604740F059
:1054C0000040B1FA81F401FA04F1A3EB044310BCEB
:1054D00003F58033604780F0004090EA010F7FF5CC
:1054E00082AE81F0004100F008B8000090EA010FA0
:1054F00048BF81F000413FF576AE421A3EBF82F0D0
:105500000042801A89184FEAD0524FF07F4C1CEAB3
:10551000410FA2EBD15318BF9CEA026F4FD04FF05E
:10552000004C4CEA00204CEA012121FA03FCB0EBCC
:105530000C0C0FD412F0FE0F18BF5FEA4C001DD503
:10554000001240EBC25038BF70471CF03F0F18BF2D
:1055500070470BE0A2F101025FEA1C2040EBC25051
:1055600038BF70471CF07F0F18BF7047C3F120038E
:10557000994014BF401E20F0010070474FEA1223EB
:1055800016D0004204BF002070474FEA9000B0FAE6
:1055900080FCA2EB0C02CCF1280C60FA0CF093EA30
:1055A000122F04BF00EBC25070474FEAC370704720
:1055B0005FEADC1008BF70474FEAC37070479CEA8F
:1055C000026F04D010EA5C0F08BF00207047BCEBEC
:1055D000410F4FEA400228BF9445DFF82CC0FFF48A
:1055E0007BAEAFF30080B2EB410F06D012F1807FAB
:1055F00008BF704781F00040704790EA010F48BF34
:105600007047024870470000020000040000C07F9D
:1056100000F0004343EAD05323F48073C3F1C10385
:1056200023F0004117291FD8C3F1200310FA03F11A
:10563000C3F1200320F07F4040F4000020FA03F083
:1056400003F0004340EA03000DD00B46590009D394
:1056500018BF401C06D17FEAE27398BF401C38BFD8
:1056600020F0010070477047182903EB912318BF01
:105670006FF00041013168BF03F0004009D64002DD
:1056800003F0004000F1010004BF12F0004F20F0D1
:105690000100704770470CF00F03092B08BF08206A
:1056A00000F02B800A2B0BD0082B18BF704708BFC7
:1056B0001CF0400F0AD04FF000004FF0000170477F
:1056C0001CF0400F18BF4FF0004070471CF0100F47
:1056D00008D020F0704300F07F4242EAD3014FEA45
:1056E0004370704700F0604021F07F4242EA0002C0
:1056F00001F07F4040EA727070471CF4801F11D0A7
:105700001CF4E02F03D06FEACC31490070474FF012
:105710004050EFF3008222F0704242EA000282F32E
:10572000008870474FF00000704700000000000044
:10573000000000000000000004040404040400044D
:10574000000000140A0A0000000000000000000031
:1057500014143F140A3F0A0A000000041E1505062F
:105760000C14150F0400000012150D0A142C2A1237
:1057700000000000040A0A1E151509360000000288
:1057800002010000000000000000002010080808CE
:105790000808081020000002040808080808080487
:1057A000020000000004150E0E15040000000000A9
:1057B0000404041F040404000000000000000000B2
:1057C00000000002020100000000001F00000000B5
:1057D00000000000000000000000000200000010B7
:1057E0000808080404020202010000000E11111151
:1057F0001111110E00000000040604040404040E3C
:10580000000000000E1111080402011F000000003A
:105810000E11100C1010110E00000000080C0A0AE6
:10582000091E0818000000001F01010F1010110EC2
:10583000000000000E09010F1111110E0000000000
:105840001F09080404040404000000000E11110ED6
:105850001111110E000000000E1111111E10120E78
:105860000000000000000400000000040000000030
:1058700000000004000000040400002010080402DE
:10588000040810200000000000001F00001F00009E
:1058900000000002040810201008040200000000AC
:1058A0000E11110804040004000000000E11191567
:1058B000151D011E0000000004040C0A0A1E12330C
:1058C000000000000F12120E1212120F0000000052
:1058D0001E1101010101110E000000000F12121231
:1058E0001212120F000000001F120A0E0A02121FED
:1058F000000000001F120A0E0A020207000000004A
:105900001C1201013911120C000000003312121E8A
:1059100012121233000000001F0404040404041FC8
:10592000000000003E0808080808080907000000F9
:1059300037120A060A0A12370000000007020202A4
:105940000202223F000000001B1B1B1B1515151532
:10595000000000003B1216161A1A12170000000071
:105960000E1111111111110E000000000F12120E74
:1059700002020207000000000E1111111117190E8A
:10598000180000000F12120E0A1212370000000059
:105990001E1101060810110F000000001F1504045D
:1059A0000404040E00000000331212121212120C32
:1059B000000000003312120A0A0C04040000000068
:1059C0001515150E0A0A0A0A000000001B0A0A042F
:1059D000040A0A1B000000001B0A0A040404040E47
:1059E000000000001F0908040402121F0000001C30
:1059F00004040404040404041C000002020204045D
:105A0000080808100000000E080808080808080820
:105A10000E0000040A00000000000000000000006A
:105A20000000000000000000003F00040000000033
:105A300000000000000000000000000C121C123CDE
:105A4000000000000302020E1212120E00000000FD
:105A50000000001C1202021C000000001810101CA4
:105A60001212123C000000000000000C121E021C6A
:105A7000000000003804041E0404041E000000009E
:105A80000000003C120C021E221C00000302020E49
:105A90001212123700000000040000060404040E75
:105AA000000000000800000C0808080808070000B3
:105AB0000302023A0A0E1237000000000704040431
:105AC0000404041F000000000000000F1515151548
:105AD000000000000000000F12121237000000004A
