:020000040800F2
:10000000D8060020590A0008E5010008E7010008A9
:10001000EB010008EF010008F301000800000000F8
:10002000000000000000000000000000F7010008D0
:10003000F901000800000000FB010008FD010008B4
:100040001D070008730A0008730A0008730A0008F5
:10005000730A0008730A0008FB050008730A000809
:10006000730A0008730A0008730A0008730A00087C
:10007000730A0008730A0008730A0008730A00086C
:10008000730A0008730A0008730A0008730A00085C
:10009000730A0008730A0008730A0008730A00084C
:1000A000730A0008730A0008730A0008730A00083C
:1000B000730A0008A3070008730A0008730A0008FF
:1000C000730A0008730A0008730A0008730A00081C
:1000D000730A0008CD090008730A0008730A0008B3
:1000E00035060008730A0008730A000800F002F8D9
:1000F00000F03CF80AA090E8000C82448344AAF186
:100100000107DA4501D100F031F8AFF2090EBAE883
:100110000F0013F0010F18BFFB1A43F0010318473B
:10012000F824000018250000103A24BF78C878C1D0
:10013000FAD8520724BF30C830C144BF04680C60ED
:10014000704700000023002400250026103A28BF35
:1001500078C1FBD8520728BF30C148BF0B60704739
:100160001FB5AFF300801FBD10B510BD02F025FA1A
:100170001146FFF7F5FF00F007F802F043FAFFF72A
:10018000F3FF00F0C9FB000070B50024012500F06A
:100190009BF8482000F06EFB00F0B8FB4FF41650BF
:1001A00000F0C8FB00F010F900F040F900214FF416
:1001B000617000F00DFB12E00A2000F06FFB15B13A
:1001C000601C84B201E0601E84B2B4F5967F00DD4D
:1001D000002504B901252146014801F05FFFEBE746
:1001E00000040040704700BFFEE700BFFEE700BF0D
:1001F000FEE700BFFEE7704770477047704700009A
:1002000000200021674A126842F48032654B1A6070
:1002100000BF644A126802F40031401C11B9B0F505
:10022000A06FF6D15F4A126812F4003F01D001219D
:1002300000E00021012942D15B4A126842F010021D
:10024000594B1A601A46126822F003021A601A46C5
:10025000126842F002021A60524A5268514B5A60C8
:100260001A4652685A601A46526842F480625A60CE
:100270001A46526822F47C125A601A46526842F4B6
:10028000E8125A601A46126842F080721A6000BF83
:10029000444A126812F0007FFAD0424A526822F0B3
:1002A0000302404B5A601A46526842F002025A60FA
:1002B00000BF3C4A526802F00C02082AF9D170478C
:1002C00010B5FFF79DFF10BD10B53648006840F02F
:1002D0000100344908600846406834490840314903
:1002E000486008460068324908402E4908600846C0
:1002F000006820F4802008600846406820F4FE0072
:1003000048604FF41F008860FFF7DAFF4FF000608D
:100310002849086010BD10B5002000210022214BA3
:100320005B6803F00C0020B1042806D0082828D10F
:1003300007E0214B214C236027E01F4B1F4C23601B
:1003400023E0184B5B6803F47011164B5B6803F4F1
:100350008032022303EB914122B9194B4B43174CD6
:1003600023600DE00F4B5B6813F4003F04D0144B87
:100370004B43124C236003E00F4B4B430F4C236065
:1003800003E00D4B0D4C236000BF00BF054B5B68C5
:10039000C3F303130B4CE05C084B1B68C340074CD2
:1003A000236010BD00100240002002400000FFF852
:1003B000FFFFF6FE08ED00E000127A0000000020CA
:1003C00000093D000400002008B50121042000F0D0
:1003D00095FF4FF48070ADF8000010208DF80300F9
:1003E00003208DF8020069460E4800F0BDFC4FF472
:1003F00080710C4800F060FD0121202000F07EFF9C
:100400000420ADF8000010208DF8030003208DF8C3
:1004100002006946044800F0A7FC0421024800F0ED
:100420004BFD08BD000801400014014008B5012142
:10043000042000F063FF4FF42040ADF80000482096
:100440008DF8030069462E4800F08EFC0120ADF8BF
:10045000000028208DF803006946294800F084FC3C
:1004600008BD10B50121274800F049FD2648007855
:1004700000282FD02548006840B124480830006883
:1004800020B1224834380068012823D10A2000F026
:1004900005FA00201C4908701C48006828B9012191
:1004A0001B4800F02CFD012010BD184808300068E2
:1004B00028B90121164800F022FD0220F4E7134874
:1004C00034380068012815D10121114800F017FDCA
:1004D0000320E9E70D48006801280BD10B480830DC
:1004E0000068012806D109483438006810B9012095
:1004F000054908700121064800F001FD0020D3E7FE
:1005000000080140000430001400002034012142A2
:10051000000230001FB501215A4800F0F0FC012113
:10052000052000F0EBFE4FF42040ADF80C00482011
:100530008DF80F0003A9544800F016FC0120ADF817
:100540000C0028208DF80F0003A94F4800F00CFC88
:100550000D21002000F017FD4FF400500190002005
:100560008DF808000C208DF8090001208DF80A0094
:1005700001A800F011FB0F21002000F004FD4FF452
:100580000040019000208DF808000C208DF8090033
:1005900001208DF80A0001A800F0FEFA00210846AB
:1005A00000F0F1FC0120019000208DF808000820E7
:1005B0008DF8090001208DF80A0001A800F0ECFA7E
:1005C00028208DF8000002208DF8010001208DF810
:1005D00002008DF80300684600F063FA06208DF8EB
:1005E000000002208DF801008DF8020001208DF836
:1005F0000300684600F055FA1FBD10B50A2000F050
:100600004DF9012000F034FB80B12048006808B9A2
:10061000012000E000201D4908601D48D0F8880135
:1006200008B9012000E000201A490860012000F00C
:1006300030FB10BD10B50A2000F030F94FF4005027
:1006400000F016FB40B11148006808B9012000E035
:1006500000200E4908600CE04FF4004000F008FB59
:1006600038B10C48006808B9012000E000200949B1
:1006700008604FF4005000F00CFB4FF4004000F015
:1006800008FB10BD0002300000080140A00121421B
:10069000008022428881224270B504460D4645F210
:1006A000555000F0A5FC204600F0A5FC284600F0BF
:1006B000A5FC00F0A6FC00F0A9FC70BD10B500F090
:1006C000A0FC10BD08B500208DF8000002208DF8B8
:1006D000010003208DF80200684600F0E2F908BD31
:1006E00070B504460D4616460121C80200F013FEFF
:1006F000304601F026FF284601F02DFF204601F08C
:1007000040FF01F049FFFFF7DDFF01F030FF70BD52
:1007100010B50446204601F034FF10BD10B57F200F
:1007200001F029FF01F038FF0448006808B90120F2
:1007300000E000200149086010BD000088812242CD
:100740007FB504460D460121022000F0E4FD41F290
:100750008830ADF8080041F61F40ADF804000020D5
:10076000ADF80A00ADF8060001A9174800F0FCFE3C
:1007700001224121144801F043FA1D208DF80000A8
:1007800000208DF8010003208DF8020001208DF873
:100790000300684600F085F901210B4801F00BFACF
:1007A0007FBD10B50121084801F0A7FC58B1012117
:1007B000054801F0B3FC0548006808B9012000E0D5
:1007C00000200249086010BD0004004088812242D8
:1007D00030B589B004460D460121022000F09BFD92
:1007E0000121052000F08AFD4FF48070ADF8200053
:1007F00004208DF8230008A91C4800F0B5FA8020D9
:10080000ADF8200018208DF8230003208DF8220079
:1008100008A9164800F0A8FAADF81840ADF8145031
:100820000020ADF81A00ADF8160005A9104800F038
:100830009BFE7020ADF804000120ADF806000020FA
:10084000ADF80A00ADF80C0001A9094800F00BFF53
:100850000821074801F0E5FA0121054801F0A9FA4D
:100860000121034801F0A7F909B030BD000801409B
:100870000004004010B504466FF0040000F05EF97B
:10088000E11704EB5171C9101F4A1170104600782E
:100890004FF47A714843911C088010BD1A4A921C8B
:1008A000128842434FF0E0235A6100229A610122EC
:1008B0001A6100BF4FF0E022116911F0010F02D060
:1008C00011F4803FF6D000224FF0E0231A619A61C4
:1008D00070470D4A127842434FF0E0235A610022DC
:1008E0009A6101221A6100BF4FF0E022116911F0F4
:1008F000010F02D011F4803FF6D000224FF0E02328
:100900001A619A61704700001600002010B54FF47C
:10091000A06000F0C1F810BD014600BF704700BFE5
:10092000494A128812F0400FFAD0C2B2464B1B1D42
:100930001A80704710B586B00446012144F20500C4
:1009400000F0DCFC4FF40070ADF8140003208DF8CB
:10095000160018208DF8170005A93C4800F004FA8D
:100960004FF48060ADF8140004208DF8170005A93D
:10097000364800F0F9F925208DF8000003208DF8A5
:1009800001008DF8020001208DF80300684600F098
:1009900088F801940020ADF80800ADF80A00ADF821
:1009A0000C00ADF810000C20ADF80E0001A926488F
:1009B00001F0FBFB012240F22551234801F08CFCA1
:1009C0000121214801F07CFC06B010BD10B540F2B9
:1009D00025511D4801F067FD002834D01A4801F068
:1009E000E2FCC4B21A48007810F0800F2BD11848EE
:1009F000007810F0400F0CD00A2C03D000201449CE
:100A0000087020E01248007840F08000104908701B
:100A100019E00D2C06D10E48007840F040000C493A
:100A2000087010E00A48007800F03F0009490C54B3
:100A300007480078401C06490870084600783F289F
:100A400001DD0020087010BD0038014000080140A1
:100A50001C00002038000020094880470948004752
:100A6000FEE7FEE7FEE7FEE7FEE7FEE7FEE7FEE75E
:100A7000FEE7FEE704480549054A064B70470000BB
:100A8000C9020008ED000008D8000020D8060020A8
:100A9000D8020020D802002032490143324A1160B6
:100AA000704770B5002100230F22C4780CB32E4C80
:100AB000246804F4E064C4F5E064210AC1F104038D
:100AC000CA40447804FA03F18478144021430901B0
:100AD000264C0678A155047804F01F050124AC408B
:100AE00005786D114FF0E02606EB8505C5F800414D
:100AF00009E0047804F01F040125A5401C4C067889
:100B0000761144F8265070BD1A4A0A400243164B2B
:100B10001B1F1A60704741B1134A121D126802432D
:100B20004FF0E023C3F8102D07E00F4A121D1268A2
:100B300082434FF0E023C3F8102D7047042808D1FA
:100B40004FF0E021096941F004014FF0E02211610A
:100B500007E04FF0E021096921F004014FF0E022A5
:100B6000116170470000FA050CED00E000E400E0C0
:100B700080E100E080FFFF1F0020484908604849ED
:100B8000C1F80404454908310860091D086045485A
:100B90004249143108607047002140498279002A97
:100BA00040D03F4AD2F8002403689A433C4BC3F834
:100BB00000241A46D2F8042403689A430B1D1A60D5
:100BC000027911440A6803681A430A60344AD2F869
:100BD000082403689A43324BC3F808241A46D2F813
:100BE0000C2403689A432D4B0C331A604279102A67
:100BF00010D12B4AD2F8082403681A43284BC3F8B3
:100C000008241A46D2F80C2403681A43244BC3F86C
:100C10000C240DE02149427911440A6803681A4303
:100C20000A6005E0027911440A6803689A430A6081
:100C300070470021016001710C2141710021817117
:100C400070471649103109680143154AC2F810145B
:100C5000704701460020114A143212680A4201D03E
:100C6000012000E0002070470C49143108607047F3
:100C7000014600200022094B1B6803EA0102084BD1
:100C8000D3F814340B4202D00AB1012000E0002056
:100C900070470249143108607047000000040140A9
:100CA00000000140FFFF0F0010B50446C748844212
:100CB00008D10121042000F03BFB0021042000F0BA
:100CC00037FB46E0C248844208D10121082000F0E9
:100CD0002FFB0021082000F02BFB3AE0BD488442A6
:100CE00008D10121102000F023FB0021102000F08A
:100CF0001FFB2EE0B848844208D10121202000F0DB
:100D000017FB0021202000F013FB22E0B3488442AF
:100D100008D10121402000F00BFB0021402000F011
:100D200007FB16E0AE48844208D10121802000F084
:100D3000FFFA0021802000F0FBFA0AE0A948844273
:100D400007D10121801500F0F3FA0021A01500F071
:100D5000EFFA10BD10B50121084600F0E9FA0021B4
:100D6000012000F0E5FA10BDF0B5002200230024B8
:100D700000250026002791F803C00CF00F0291F81F
:100D800003C01CF0100F03D091F802C04CEA02021D
:100D9000B1F800C01CF0FF0F31D0066800242BE032
:100DA0004FF0010C0CFA04F5B1F800C00CEA050391
:100DB000AB4220D1A5004FF00F0C0CFA05F7BE4353
:100DC00002FA05FC4CEA060691F803C0BCF1280FB4
:100DD00006D14FF0010C0CFA04FCC0F814C00AE074
:100DE00091F803C0BCF1480F05D14FF0010C0CFA8B
:100DF00004FCC0F810C0641C082CD1D30660B1F804
:100E000000C0BCF1FF0F34DD466800242EE004F181
:100E1000080C4FF0010E0EFA0CF5B1F800C00CEA08
:100E20000503AB4221D1A5004FF00F0C0CFA05F7DA
:100E3000BE4302FA05FC4CEA060691F803C0BCF179
:100E4000280F05D104F1080C0EFA0CFEC0F814E0CE
:100E500091F803C0BCF1480F07D104F1080C4FF022
:100E6000010E0EFA0CFEC0F810E0641C082CCED364
:100E70004660F0BD4FF6FF710180022181700421B0
:100E8000C17070470246002093680B4201D00120D8
:100E900000E0002070470146886880B27047024633
:100EA0000020D3680B4201D0012000E000207047F1
:100EB0000146C86880B27047016170474161704760
:100EC0000AB1016100E041617047C16070474FF4B1
:100ED00080320A43826181618261826982697047DE
:100EE0000022414B1A684FF680731A4042EA001202
:100EF0000A433D4B1A6070473C49C8617047F0B5E2
:100F0000002200230024002500F00046B6F1004F27
:100F100002D1354EF46901E0334E7468C0F30345E5
:100F200082B200F44016B6F5401F08D124F0706478
:100F30002D4E766826F070662B4F7E6012E000F42E
:100F40008016B6F5801F06D1032606FA05F39C43EA
:100F500044F0706406E0460D360102FA06F6B4432A
:100F600044F0706421B1460D360102FA06F63443AE
:100F700000F00046B6F1004F02D11B4EF46101E0D3
:100F8000194E7460F0BD30B500228B071C0F0F2383
:100F900003FA04F2144B08338C1053F824409443A2
:100FA0008D1043F825408C1053F824308C07240F03
:100FB00000FA04F423430C4C08348D1044F8253017
:100FC00030BD0A49DC31086070470000000801406C
:100FD000000C0140001001400014014000180140C5
:100FE000001C0140002001400000014000002042A0
:100FF0000E49086070470D49486070470B4988608A
:1010000070474AF6AA200949086070474CF6CC4060
:1010100006490860704701460020044AD2680A4227
:1010200001D0012000E000207047000000300040A7
:10103000DB48006840F00100D94908600846406874
:10104000D8490840D649486008460068D649084053
:10105000D34908600846006820F4802008600846EC
:10106000406820F4FE0048604FF41F00886070471D
:10107000CB49096821F48031C94A116011460968D9
:1010800021F480211160B0F5803F03D0B0F5802FAE
:101090000ED106E0C249096841F48031C04A1160AE
:1010A00007E0BF49096841F4A021BD4A116000E092
:1010B00000BF00BF704710B501460022002300208A
:1010C0004A11012A02D1B64C236806E0022A02D155
:1010D000B34C236A01E0B24C636A01F01F020124A1
:1010E00094401C4201D0012000E0002010BD70B5EA
:1010F00000240025002600BF3120FFF7DCFF064654
:10110000641CB4F5A06F01D0002EF5D03120FFF79C
:10111000D2FF08B1012500E00025284670BD00215E
:101120009F4A116821F0F80141EAC001116070473F
:101130009E49086070470022994B5A6822F47C123D
:1011400040EA01031A43964B5A6070479749086674
:1011500070470021924A516821F003010143516018
:1011600070478F48406800F00C00704700218C4A9F
:10117000516821F0F0010143516070470021884A15
:10118000516821F4E0610143516070470021844AB5
:10119000516821F4605141EAC0015160704729B1A2
:1011A0007F4A527A02437E4B5A7206E07C4A527A58
:1011B000C343DBB21A407A4B5A7270477B49D8312D
:1011C000086070470021764A516821F4404101438C
:1011D000516070470021724A20321170704A82F8C3
:1011E0002010012802D004280AD104E001216C4A11
:1011F0002032117005E00521694A2032117000E0AB
:1012000000BF00BF70476A49086070476449096AB7
:101210000143634A11627047654944390860704769
:1012200030B500210022002300245D4D6D6805F0DB
:101230000C0121B1042905D0082923D105E05D4D19
:10124000056022E05B4D05601FE0554D6D6805F4BB
:101250007012534D6D6805F48033022505EB924200
:101260001BB9554D554305600BE04D4D6D6815F4A8
:10127000003F03D0504D5543056002E04D4D5543AE
:10128000056002E04B4D056000BF00BF444D6D6836
:1012900005F0F0010909494D6C5C0568E5404560C1
:1012A0003F4D6D6805F4E061090A444D6C5C45688A
:1012B000E54085603A4D6D6805F46051C90A3F4DBF
:1012C0006C5C4568E540C560354D6D6805F440418E
:1012D000890B3A4D10356C5CC568B5FBF4F50561BA
:1012E00030BD29B12E4A526902432D4B5A6104E0A8
:1012F0002B4A526982432A4B5A61704729B1284AC6
:1013000092690243264B9A6104E0254A926982431E
:10131000234B9A61704729B1214AD2690243204B7D
:10132000DA6104E01E4AD26982431D4BDA617047DC
:1013300029B11B4AD2680243194BDA6004E0184A0B
:10134000D2688243164BDA60704729B1144A126999
:101350000243134B1A6104E0114A12698243104B95
:101360001A61704712494039086070470F49C864D4
:1013700070470B49C87170470948406A40F0807057
:1013800007494862704701460020054A92680A42B0
:1013900001D0012000E000207047014988727047A9
:1013A000001002400000FFF8FFFFF6FE000042427E
:1013B0008004424200127A0000093D00240000200F
:1013C00010B50446FF48844208D10121C014FFF73C
:1013D000AFFF0021E014FFF7ABFFC4E0B4F1804F92
:1013E00008D101210846FFF7B0FF00210120FFF7D7
:1013F000ACFFB8E0F448844208D101210220FFF795
:10140000A4FF00210220FFF7A0FFACE0EF488442D8
:1014100008D101210420FFF798FF00210420FFF7E5
:1014200094FFA0E0EA48844208D101210820FFF798
:101430008CFF00210820FFF788FF94E0E5488442F4
:1014400008D101211020FFF780FF00211020FFF7B5
:101450007CFF88E0E048844208D101212020FFF78A
:1014600074FF00212020FFF770FF7CE0DB488442FE
:1014700008D101214014FFF75BFF00216014FFF742
:1014800057FF70E0D648844209D10121C804FFF714
:101490004FFF00214FF40020FFF74AFF63E0D148DF
:1014A000844209D101210805FFF742FF00214FF4D2
:1014B0008010FFF73DFF56E0CB48844209D101215F
:1014C0004805FFF735FF00214FF40010FFF730FF0C
:1014D00049E0C648844208D101214020FFF735FF8A
:1014E00000214020FFF731FF3DE0C148844208D190
:1014F00001218020FFF729FF00218020FFF725FF31
:1015000031E0BC48844208D101218015FFF71DFF5E
:101510000021A015FFF719FF25E0B748844209D143
:1015200001210804FFF704FF00214FF48030FFF78A
:10153000FFFE18E0B148844209D101214804FFF7B9
:10154000F7FE00214FF40030FFF7F2FE0BE0AC484D
:10155000844208D101218804FFF7EAFE00214FF4FC
:101560008020FFF7E5FE10BD00220288954B9842CF
:101570000ED09A4B98420BD0B0F1804F08D0924BCE
:10158000984205D0914B984202D0914B984204D199
:101590004FF68F731A404B881A438E4B984207D0F0
:1015A0008D4B984204D04FF6FF431A40CB881A4324
:1015B00002808B8883850B880385824B98420BD0F1
:1015C000864B984208D08C4B984205D08B4B984262
:1015D00002D08B4B984201D10B7A03860123838280
:1015E000704770B5002200230024058C4FF6FE766C
:1015F00035400584038C8488028B4FF68F752A4012
:10160000B51E2A400D882A43751E2B400D892B4399
:101610004D882B436B4DA8420BD0704DA84208D08B
:10162000754DA84205D0754DA84202D0744DA84210
:1016300013D14FF6F7752B404D892B434FF6FB75B1
:101640002B408D882B434FF6FF652C404FF6FF55FE
:101650002C408D892C43CD892C4384800283CD88F6
:101660008586038470BD70B5002200230024058C9C
:101670004FF6EF7635400584038C8488028B48F65C
:10168000FF752A404FF6FF452A400D882D0642EA95
:1016900015424FF6DF752B400D892D0543EA1543A2
:1016A0004D882D0543EA1543464DA84202D04B4DC7
:1016B000A8421BD14FF67F752B404D892D0543EA7B
:1016C00015434FF6BF752B408D882D0543EA154312
:1016D0004FF6FF352C404FF2FF752C408D89AD043D
:1016E00044EA1544CD89AD0444EA1544848002835C
:1016F000CD880587038470BD70B5002200230024C7
:10170000058C4FF6FF6635400584038C8488828BF8
:101710004FF68F752A404FF6FC752A400D882A43F4
:101720004FF6FF552B400D892D0643EA15434D8892
:101730002D0643EA1543234DA84202D0274DA84267
:101740001BD14FF2FF752B404D892D0643EA1543FF
:101750004FF6FF352B408D882D0643EA15434EF694
:10176000FF752C404DF6FF752C408D892D0544EA00
:101770001544CD892D0544EA154484808283CD88A3
:101780008587038470BD70B5002200230024058C7A
:101790004EF6FF7635400584038C8488828B48F6AC
:1017A000FF752A404FF6FF452A400D882D0642EA74
:1017B00015424DF6FF752B400D892D0743EA154361
:1017C0004D881FE0002C014000040040000800404C
:1017D000000C0040001000400014004000340140A4
:1017E000004C0140005001400054014000180040EE
:1017F000001C004000200040004001400044014027
:10180000004801402D0743EA1543F84DA84202D095
:10181000F74DA84206D14BF6FF752C408D89AD05DA
:1018200044EA154484808283CD88A0F84050038424
:1018300070BD828B4FF2FF331A408283828B0B067E
:1018400042EA134282837047F0B500240025002647
:10185000078C4EF6FF7C07EA0C070784848B058C07
:101860000F073E0C40F6FF473C40170644EA17447A
:101870001F0744EA1744DD4FB8420ED0DC4FB84290
:101880000BD0B0F1804F08D0DA4FB84205D0DA4F14
:10189000B84202D0D94FB84206D14DF6FF773D404D
:1018A00046F480573D4305E047F6FF573D4041F47D
:1018B00080573D4384830584F0BD828B4FF6F373DC
:1018C0001A408283828B0A4382837047F0B50024DA
:1018D00000250026078C4FF6FF6C07EA0C070784EB
:1018E000848B058C0F063E0C4FF60C773C401F0591
:1018F00042EA17473C43BD4FB8420ED0BC4FB842F6
:101900000BD0B0F1804F08D0BA4FB84205D0BA4FD3
:10191000B84202D0B94FB84206D14FF6FF573D400A
:1019200046F480773D4305E04FF2FF573D4041F4D8
:1019300080773D4384830584F0BD028B4FF2FF33F3
:101940001A400283028B0B0642EA1342028370475D
:10195000F0B5002400250026078C4FF6EF7C07EA3F
:101960000C070784048B058C0F053E0C40F6FF47DF
:101970003C401F0744EA1744170644EA17449B4FAC
:10198000B8420ED09A4FB8420BD0B0F1804F08D079
:10199000984FB84205D0984FB84202D0974FB842FE
:1019A00006D14FF6DF773D4046F010073D4305E096
:1019B0004FF65F773D4041F010073D4304830584B7
:1019C000F0BD028B4FF6F3731A400283028B0A4379
:1019D00002837047F0B500240025068C4FF6FE7791
:1019E0003E400684048B058C4FF60C7634401E0571
:1019F00042EA164634437D4EB0420ED07C4EB04291
:101A00000BD0B0F1804F08D07A4EB04205D07A4E5C
:101A1000B04202D0794EB04206D14FF6FD76354045
:101A200041F00106354305E04FF6F576354041F0CB
:101A30000106354304830584F0BD70B504460D46A8
:101A40006A4884420ED06A4884420BD0B4F1804F79
:101A500008D06848844205D06748844202D067486D
:101A6000844200D100E000BF288850B92B89AA88A1
:101A700069882046FFF7AEFFE9882046FFF7A1FFFF
:101A800025E0288804280AD12B89AA88698820465D
:101A9000FFF75EFFE9882046FFF74FFF17E0288831
:101AA00008280AD12B89AA8869882046FFF70EFFEB
:101AB000E9882046FFF701FF09E02B89AA88698899
:101AC0002046FFF7C1FEE9882046FFF7B2FE70BD51
:101AD0002DE9F04104460D4600260127688808B923
:101AE000022600E00026A888012801D1022700E094
:101AF00001272888A0B92B89AA8869882046FFF782
:101B000069FFE9882046FFF75CFF2B893A4631469A
:101B10002046FFF71DFFE9882046FFF70EFF13E080
:101B20002B89AA8869882046FFF712FFE98820469A
:101B3000FFF703FF2B893A4631462046FFF74AFF5D
:101B4000E9882046FFF73DFFBDE8F0810A884B8811
:101B50001A438B881A43CB881A430B891A434B8943
:101B60001A438B891A43A0F8442070474FF6FF713F
:101B7000818000210180C180418001727047002175
:101B8000018041808180C180018141818181C18149
:101B90007047002101804180012181800021C180A6
:101BA000018170470021018041808180C1800181D5
:101BB00041818181704721B1028842F00102028097
:101BC00004E002884FF6FE731A400280704731B17C
:101BD000B0F8442042F40042A0F8442005E0B0F8F8
:101BE0004420C2F30E02A0F844207047002C0140AC
:101BF000003401400004004000080040000C004098
:101C000010B51AB183890B43838104E08389CC43E7
:101C1000A4B22340838110BD8182704741EA020350
:101C2000A0F84830704710B51AB183890B438381FF
:101C300004E08389CC43A4B22340838110BD018991
:101C40004FF6F872114001817047002202894FF669
:101C50008F731A400A430281704730B504460D461F
:101C600029462046FFF7F1FF208940F00700208138
:101C700030BD2DE9F04104460D4616461F46602D45
:101C800006D13B46012231462046FFF761FE05E0C2
:101C90003B46012231462046FFF79CFE294620465E
:101CA000FFF7D3FF208940F007002081BDE8F081D5
:101CB00030B500240489E4B21D0642EA15450D43FF
:101CC0002C43048130BD2DE9F04104460D461646F3
:101CD000984600274346324629462046FFF7E8FF4C
:101CE00027894FF6F870074047F007074FF68F70C7
:101CF000074047F070072781BDE8F081F0B5044642
:101D00000D4616461F463B46324629462046FFF7FB
:101D1000CFFF208940F480402081F0BD0185828280
:101D20007047002202884FF68F731A400A430280E0
:101D30007047F0B50024002500260489058B068C29
:101D40004FF6F8773C400C434FF6FC473D4040F2DD
:101D500001173D434FF6DD773E401F0542EA174726
:101D60003E43048105830684F0BD0022028B4FF6BA
:101D70008F731A400A43028370470022028B48F691
:101D8000FF731A400B0642EA134202837047002297
:101D9000828B4FF68F731A400A438283704700226A
:101DA000828B48F6FF731A400B0642EA1342828385
:101DB000704721B1028842F08002028004E002886C
:101DC0004FF67F731A400280704721B1828842F03B
:101DD0000402828004E082884FF6FB731A408280FE
:101DE000704721B1828842F00802828004E0828834
:101DF0004FF6F7731A408280704721B1828842F013
:101E00000102828004E082884FF6FE731A408280CD
:101E100070470022028B4FF6F7731A400A43028381
:101E200070470022028B4FF2FF731A400B0642EA02
:101E30001342028370470022828B4FF6F7731A40D9
:101E40000A43828370470022828B4FF2FF731A404D
:101E50000B0642EA1342828370470022028B4FF640
:101E6000FB731A400A43028370470022028B4FF62D
:101E7000FF331A400B0642EA1342028370470022E6
:101E8000828B4FF6FB731A400A438283704700220D
:101E9000828B4FF6FF331A400B0642EA13428283CD
:101EA00070470022028B4FF67F731A400A43028369
:101EB00070470022028BC2F30E020B0642EA134265
:101EC000028370470022828B4FF67F731A400A43C9
:101ED000828370470022828BC2F30E020B0642EA15
:101EE0001342828370470022028C4FF6FD731A4022
:101EF0000A43028470470022028C4FF6F7731A409F
:101F00000A43028470470022028C4FF6DF731A40A6
:101F10000B0542EA1342028470470022028C4FF6FE
:101F20007F731A400B0542EA134202847047002275
:101F3000028C4FF6FF531A400B0642EA134202840A
:101F400070470022028C4FF2FF731A400B0642EAE0
:101F50001342028470470022028C4DF6FF731A4030
:101F60000B0742EA13420284704730B50023012474
:101F70008C40A3B2048CDD43ADB22C400484048CAD
:101F800002FA01F5ADB22C43048430BD30B5002314
:101F900004248C40A3B2048CDD43ADB22C400484F5
:101FA000048C02FA01F5ADB22C43048430BD70B547
:101FB0000023002403461846183301258D40ACB297
:101FC000058CE643B6B23540058409B1082909D12C
:101FD00003EB61031D6825F070051D601D68154346
:101FE0001D600CE00D1FADB203EB65031D6825F409
:101FF000E0451D601D68160645EA16451D6070BD6A
:1020000021B1028842F00202028004E002884FF609
:10201000FD731A400280704721B1028842F0040229
:10202000028004E002884FF6FB731A40028070477A
:1020300021B1828842F08002828004E082884FF6DB
:102040007F731A408280704702884FF6F7731A40F8
:10205000028002880A430280704782884FF68F739D
:102060001A40828082880A438280704702894FF634
:10207000F8731A40028102890A430281704702897B
:102080004FF67F731A40028102890A43028170472A
:1020900081847047818570478186704701877047CA
:1020A00081877047A0F84010704702884FF6FF43C1
:1020B0001A40028002880A43028070470146888ED7
:1020C00070470146088F70470146888F7047014668
:1020D000B1F8400070470146888C70470146088D72
:1020E000704702460020138A0B4201D0012000E015
:1020F00000207047CA430282704730B50246002074
:1021000000230024158A05EA0103958905EA0104E4
:1021100013B10CB1012000E0002030BDCA4302829F
:102120007047000010B50446FB48844209D10121E4
:102130008803FFF7FDF800214FF48040FFF7F8F81F
:1021400032E0F648844209D101214804FFF7FDF846
:1021500000214FF40030FFF7F8F825E0F048844202
:1021600009D101218804FFF7F0F800214FF4802005
:10217000FFF7EBF818E0EB48844209D10121C804CD
:10218000FFF7E3F800214FF40020FFF7DEF80BE043
:10219000E548844208D101210805FFF7D6F800215F
:1021A0004FF48010FFF7D1F810BD2DE9F04786B04D
:1021B00004460D460026002700BFB146B246A88956
:1021C00000B100BFA246268A4CF6FF700640E888A0
:1021D00006432682A6894EF6F3100640A888298970
:1021E0000843698908430643A681A68A4FF6FF4043
:1021F0000640A8890643A68201A8FFF711F85446B5
:10220000C548824501D1049F00E0039FA08910F4D6
:10221000004F08D007EBC70000EB07102968490002
:10222000B0FBF1F807E007EBC70000EB07102968E7
:102230008900B0FBF1F86420B8FBF0F0060130092A
:10224000642101FB1089A08910F4004F09D03221CC
:1022500001EBC9006421B0FBF1F000F00700064378
:1022600008E0322101EB09106421B0FBF1F000F02D
:102270000F000643268106B0BDE8F0874FF41651E3
:10228000016000218180C18001810C2141810021F8
:102290008181704710B50022028A4FF2FF031A4075
:1022A0000B884C8823438C882343CC8823431A43D0
:1022B000028210BD0021018041808180C180704771
:1022C00021B1828942F40052828104E082894DF674
:1022D000FF731A4082817047F0B500240025002664
:1022E0000023A1F510676A3F00D100BF0346C1F388
:1022F000421401F01F05012707FA05F6012C01D150
:102300000C3304E0022C01D1103300E014331AB175
:102310001F6837431F6002E01F68B7431F60F0BDAE
:1023200010B51AB1838A0B43838204E0838ACC43BD
:10233000A4B22340838210BD028A4FF6F0731A4084
:102340000282028A0A430282704782894FF2FF7337
:102350001A40828182890A438281704721B1828931
:1023600042F00202828104E082894FF6FD731A4036
:1023700082817047028A4FF6DF731A400282028A16
:102380000A430282704721B1028A42F480420282EB
:1023900004E0028A4BF6FF731A4002827047C1F3D1
:1023A00008028280704701468888C0F308007047A1
:1023B000818941F0010181817047028BD2B2028391
:1023C000028B42EA012202837047028B02F47F42B1
:1023D0000283028B0A430283704721B1828A42F052
:1023E0002002828204E0828A4FF6DF731A408282E2
:1023F000704721B1828A42F01002828204E0828A10
:102400004FF6EF731A408282704721B1828A42F000
:102410000802828204E0828A4FF6F7731A408282B1
:10242000704721B1828942F40042828103E08289AF
:10243000C2F30E028281704721B1828A42F40062A7
:10244000828204E0828A4FF2FF731A4082827047D0
:10245000828A4FF6FB731A408282828A0A43828202
:10246000704721B1828A42F00202828204E0828AAD
:102470004FF6FD731A408282704702460020B1F584
:10248000007F00D100BF13880B4201D0012000E083
:102490000020704701F40072B2F5007F00D100BF48
:1024A000CA430280704770B502460023002400250D
:1024B0000020A1F510666A3E00D100BFC1F34215AD
:1024C00001F01F04012606FA04F4012D02D19689B9
:1024D000344006E0022D02D1168A344001E0968A8B
:1024E00034400B12012606FA03F31688334014B168
:1024F0000BB1012000E0002070BD10B500220023C8
:10250000A1F510646A3C00D100BF0A120124944076
:10251000A3B2DC43048010BD0038014000440040F9
:1025200000480040004C00400050004010B5012120
:10253000C802FEF70AFF00214FF40060FEF705FF16
:1025400010BD0021174A126822F4C0710143164AD7
:10255000C2F8041C70470021124A126822F07F0161
:1025600000F07F021143104AC2F8041C704701209A
:102570000E490860704700F07F010A4A121F11607F
:10258000704740F08001074A121F116070470548EC
:10259000001D0068C0B2704700200249091D086094
:1025A00070470000042C004000200040A480054239
:1025B00070477047704770477047754600F028F8BD
:1025C000AE4605006946534620F00700854618B020
:1025D00020B5FEF74FFABDE820404FF000064FF05F
:1025E00000074FF000084FF0000B21F00701AC4648
:1025F000ACE8C009ACE8C009ACE8C009ACE8C00967
:102600008D4670470446AFF300802046FDF7B7FDC6
:10261000004870477800002038260008000000209D
:10262000380000002801000870260008380000204B
:10263000A00600004401000800A24A0400000000B7
:102640000000000001020304060708090100000061
:10265000000000000000000000000000000000007A
:102660000102030401020304060708090204060824
:04000005080000ED02
:00000001FF
