:020000040800F2
:10000000D80600201D090008DD010008DF010008F6
:10001000E3010008E7010008EB0100080000000010
:10002000000000000000000000000000EF010008D8
:10003000F101000800000000F3010008F5010008CC
:1000400015070008370900083709000837090008B4
:100050003709000837090008F305000837090008C8
:100060003709000837090008370900083709000870
:100070003709000837090008370900083709000860
:100080003709000837090008370900083709000850
:100090003709000837090008370900083709000840
:1000A0003709000837090008370900083709000830
:1000B0003709000837090008370900083709000820
:1000C0003709000837090008370900083709000810
:1000D00037090008910800083709000837090008A7
:1000E0002D060008370900083709000800F002F85B
:1000F00000F03CF80AA090E8000C82448344AAF186
:100100000107DA4501D100F031F8AFF2090EBAE883
:100110000F0013F0010F18BFFB1A43F0010318473B
:100120005816000078160000103A24BF78C878C12D
:10013000FAD8520724BF30C830C144BF04680C60ED
:10014000704700000023002400250026103A28BF35
:1001500078C1FBD8520728BF30C148BF0B60704739
:100160001FB5AFF300801FBD10B510BD01F0D5FA6B
:100170001146FFF7F5FF00F007F801F0F3FAFFF77B
:10018000F3FF00F02BFB000010B500F099F84820B9
:1001900000F0D2FA00F01CFB4FF4165000F02CFBDC
:1001A00000F00EF900F03EF94FF4967000F0D8FA26
:1001B00040F27121042000F06BFA0020064908602B
:1001C00008E000F04AF9032801D100F073FA0A2090
:1001D00000F0C6FAF5E70000A0012142704700BF19
:1001E000FEE700BFFEE700BFFEE700BFFEE7704787
:1001F000704770477047000000200021674A12686E
:1002000042F48032654B1A6000BF644A126802F4FF
:100210000031401C11B9B0F5A06FF6D15F4A1268E9
:1002200012F4003F01D0012100E00021012942D158
:100230005B4A126842F01002594B1A601A46126863
:1002400022F003021A601A46126842F002021A6093
:10025000524A5268514B5A601A4652685A601A46BE
:10026000526842F480625A601A46526822F47C1244
:100270005A601A46526842F4E8125A601A461268E6
:1002800042F080721A6000BF444A126812F0007F88
:10029000FAD0424A526822F00302404B5A601A4692
:1002A000526842F002025A6000BF3C4A526802F0B3
:1002B0000C02082AF9D1704710B5FFF79DFF10BD59
:1002C00010B53648006840F001003449086008461F
:1002D000406834490840314948600846006832495E
:1002E00008402E4908600846006820F48020086015
:1002F0000846406820F4FE0048604FF41F00886004
:10030000FFF7DAFF4FF000602849086010BD10B514
:10031000002000210022214B5B6803F00C0020B17B
:10032000042806D0082828D107E0214B214C23605F
:1003300027E01F4B1F4C236023E0184B5B6803F43E
:100340007011164B5B6803F48032022303EB91417A
:1003500022B9194B4B43174C23600DE00F4B5B68E0
:1003600013F4003F04D0144B4B43124C236003E0C2
:100370000F4B4B430F4C236003E00D4B0D4C2360A0
:1003800000BF00BF054B5B68C3F303130B4CE05C7D
:10039000084B1B68C340074C236010BD001002408F
:1003A000002002400000FFF8FFFFF6FE08ED00E02D
:1003B00000127A000000002000093D000400002027
:1003C00008B50121042000F0FBFE4FF48070ADF869
:1003D000000010208DF8030003208DF8020069460C
:1003E0000E4800F023FC4FF480710C4800F0C6FC6E
:1003F0000121202000F0E4FE0420ADF800001020D0
:100400008DF8030003208DF802006946044800F0CF
:100410000DFC0421024800F0B1FC08BD00080140B9
:100420000014014008B50121042000F0C9FE4FF47A
:100430002040ADF8000048208DF8030069462E48A2
:1004400000F0F4FB0120ADF8000028208DF8030037
:100450006946294800F0EAFB08BD10B5012127488C
:1004600000F0AFFC2648007800282FD0254800680F
:1004700040B124480830006820B122483438006870
:10048000012823D10A2000F06BF900201C490870D4
:100490001C48006828B901211B4800F092FC01208B
:1004A00010BD18480830006828B90121164800F02E
:1004B00088FC0220F4E7134834380068012815D17D
:1004C0000121114800F07DFC0320E9E70D48006898
:1004D00001280BD10B4808300068012806D10948D3
:1004E0003438006810B90120054908700121064818
:1004F00000F067FC0020D3E7000801400004300052
:100500001400002034012142000230001FB50121F7
:100510005A4800F056FC0121052000F051FE4FF42E
:100520002040ADF80C0048208DF80F0003A9544876
:1005300000F07CFB0120ADF80C0028208DF80F00A6
:1005400003A94F4800F072FB0D21002000F07DFC54
:100550004FF40050019000208DF808000C208DF819
:10056000090001208DF80A0001A800F077FA0F2198
:10057000002000F06AFC4FF40040019000208DF84C
:1005800008000C208DF8090001208DF80A0001A850
:1005900000F064FA0021084600F057FC01200190A9
:1005A00000208DF8080008208DF8090001208DF842
:1005B0000A0001A800F052FA28208DF8000002205D
:1005C0008DF8010001208DF802008DF803006846C7
:1005D00000F0C9F906208DF8000002208DF8010016
:1005E0008DF8020001208DF80300684600F0BBF989
:1005F0001FBD10B50A2000F0B3F8012000F09AFAF0
:1006000080B12048006808B9012000E000201D49A1
:1006100008601D48D0F8880108B9012000E00020DA
:100620001A490860012000F096FA10BD10B50A20A2
:1006300000F096F84FF4005000F07CFA40B11148F9
:10064000006808B9012000E000200E4908600CE0B5
:100650004FF4004000F06EFA38B10C48006808B959
:10066000012000E00020094908604FF4005000F02C
:1006700072FA4FF4004000F06EFA10BD0002300034
:1006800000080140A00121420080224288812242CC
:1006900070B504460D4645F2555000F00BFC20465F
:1006A00000F00BFC284600F00BFC00F00CFC00F006
:1006B0000FFC70BD10B500F006FC10BD08B50020A1
:1006C0008DF8000002208DF8010003208DF8020053
:1006D000684600F048F908BD70B504460D46164658
:1006E0000121C80200F079FD304600F0DAFF28460B
:1006F00000F0E1FF204600F0F4FF00F0FDFFFFF7FF
:10070000DDFF00F0E4FF70BD10B50446204600F0A8
:10071000E8FF10BD10B57F2000F0DDFF00F0ECFF1A
:100720000448006808B9012000E000200149086081
:1007300010BD00008881224210B504466FF004000D
:1007400000F05EF9E11704EB5171C9101F4A1170F6
:10075000104600784FF47A714843911C088010BD10
:100760001A4A921C128842434FF0E0235A61002239
:100770009A6101221A6100BF4FF0E022116911F065
:10078000010F02D011F4803FF6D000224FF0E02399
:100790001A619A6170470D4A127842434FF0E02384
:1007A0005A6100229A6101221A6100BF4FF0E022D3
:1007B000116911F0010F02D011F4803FF6D0002230
:1007C0004FF0E0231A619A61704700001600002084
:1007D00010B54FF4A06000F0C1F810BD014600BF95
:1007E000704700BF494A128812F0400FFAD0C2B2D7
:1007F000464B1B1D1A80704710B586B00446012178
:1008000044F2050000F0DCFC4FF40070ADF8140079
:1008100003208DF8160018208DF8170005A93C4814
:1008200000F004FA4FF48060ADF8140004208DF855
:10083000170005A9364800F0F9F925208DF80000C9
:1008400003208DF801008DF8020001208DF80300CF
:10085000684600F088F801940020ADF80800ADF873
:100860000A00ADF80C00ADF810000C20ADF80E0039
:1008700001A9264800F049FD012240F225512348F4
:1008800000F0DAFD0121214800F0CAFD06B010BDDC
:1008900010B540F225511D4800F0B5FE002834D0B7
:1008A0001A4800F030FEC4B21A48007810F0800FE9
:1008B0002BD11848007810F0400F0CD00A2C03D030
:1008C00000201449087020E01248007840F08000B1
:1008D0001049087019E00D2C06D10E48007840F040
:1008E00040000C49087010E00A48007800F03F0012
:1008F00009490C5407480078401C0649087008460E
:1009000000783F2801DD0020087010BD003801404C
:10091000000801401C0000203800002009488047E2
:1009200009480047FEE7FEE7FEE7FEE7FEE7FEE7D1
:10093000FEE7FEE7FEE7FEE704480549054A064BE9
:1009400070470000C1020008ED000008D800002038
:10095000D8060020D8020020D802002032490143E6
:10096000324A1160704770B5002100230F22C4780D
:100970000CB32E4C246804F4E064C4F5E064210A4E
:10098000C1F10403CA40447804FA03F184781440A6
:1009900021430901264C0678A155047804F01F056F
:1009A0000124AC4005786D114FF0E02606EB85057B
:1009B000C5F8004109E0047804F01F040125A540B2
:1009C0001C4C0678761144F8265070BD1A4A0A402D
:1009D0000243164B1B1F1A60704741B1134A121D88
:1009E000126802434FF0E023C3F8102D07E00F4ACE
:1009F000121D126882434FF0E023C3F8102D704798
:100A0000042808D14FF0E021096941F004014FF0BA
:100A1000E022116107E04FF0E021096921F00401B3
:100A20004FF0E022116170470000FA050CED00E084
:100A300000E400E080E100E080FFFF1F0020484963
:100A400008604849C1F80404454908310860091D97
:100A50000860454842491431086070470021404908
:100A60008279002A40D03F4AD2F8002403689A4392
:100A70003C4BC3F800241A46D2F8042403689A4376
:100A80000B1D1A60027911440A6803681A430A6050
:100A9000344AD2F8082403689A43324BC3F8082436
:100AA0001A46D2F80C2403689A432D4B0C331A6073
:100AB0004279102A10D12B4AD2F8082403681A432D
:100AC000284BC3F808241A46D2F80C2403681A43AA
:100AD000244BC3F80C240DE02149427911440A68E3
:100AE00003681A430A6005E0027911440A68036842
:100AF0009A430A6070470021016001710C21417125
:100B00000021817170471649103109680143154A67
:100B1000C2F81014704701460020114A14321268BE
:100B20000A4201D0012000E0002070470C49143136
:100B300008607047014600200022094B1B6803EA49
:100B40000102084BD3F814340B4202D00AB1012041
:100B500000E000207047024914310860704700002F
:100B60000004014000000140FFFF0F0010B50446E3
:100B7000C748844208D10121042000F03BFB00213A
:100B8000042000F037FB46E0C248844208D101212E
:100B9000082000F02FFB0021082000F02BFB3AE09A
:100BA000BD48844208D10121102000F023FB002120
:100BB000102000F01FFB2EE0B848844208D101212C
:100BC000202000F017FB0021202000F013FB22E082
:100BD000B348844208D10121402000F00BFB0021E2
:100BE000402000F007FB16E0AE48844208D1012106
:100BF000802000F0FFFA0021802000F0FBFA0AE0DC
:100C0000A948844207D10121801500F0F3FA0021A0
:100C1000A01500F0EFFA10BD10B50121084600F054
:100C2000E9FA0021012000F0E5FA10BDF0B500223C
:100C30000023002400250026002791F803C00CF0B3
:100C40000F0291F803C01CF0100F03D091F802C0FE
:100C50004CEA0202B1F800C01CF0FF0F31D0066868
:100C600000242BE04FF0010C0CFA04F5B1F800C0A1
:100C70000CEA0503AB4220D1A5004FF00F0C0CFA93
:100C800005F7BE4302FA05FC4CEA060691F803C0DC
:100C9000BCF1280F06D14FF0010C0CFA04FCC0F88F
:100CA00014C00AE091F803C0BCF1480F05D14FF021
:100CB000010C0CFA04FCC0F810C0641C082CD1D341
:100CC0000660B1F800C0BCF1FF0F34DD46680024B7
:100CD0002EE004F1080C4FF0010E0EFA0CF5B1F8FD
:100CE00000C00CEA0503AB4221D1A5004FF00F0C68
:100CF0000CFA05F7BE4302FA05FC4CEA060691F829
:100D000003C0BCF1280F05D104F1080C0EFA0CFE4B
:100D1000C0F814E091F803C0BCF1480F07D104F10A
:100D2000080C4FF0010E0EFA0CFEC0F810E0641C27
:100D3000082CCED34660F0BD4FF6FF710180022132
:100D400081700421C17070470246002093680B42F5
:100D500001D0012000E0002070470146886880B281
:100D6000704702460020D3680B4201D0012000E00A
:100D7000002070470146C86880B270470161704723
:100D8000416170470AB1016100E041617047C16093
:100D900070474FF480320A438261816182618269C7
:100DA000826970470022414B1A684FF680731A40DF
:100DB00042EA00120A433D4B1A6070473C49C86141
:100DC0007047F0B5002200230024002500F0004603
:100DD000B6F1004F02D1354EF46901E0334E74682C
:100DE000C0F3034582B200F44016B6F5401F08D1A7
:100DF00024F070642D4E766826F070662B4F7E606E
:100E000012E000F48016B6F5801F06D1032606FA1C
:100E100005F39C4344F0706406E0460D360102FA87
:100E200006F6B44344F0706421B1460D360102FA6F
:100E300006F6344300F00046B6F1004F02D11B4ED7
:100E4000F46101E0194E7460F0BD30B500228B07EB
:100E50001C0F0F2303FA04F2144B08338C1053F8C1
:100E6000244094438D1043F825408C1053F82430CF
:100E70008C07240F00FA04F423430C4C08348D1023
:100E800044F8253030BD0A49DC3108607047000065
:100E900000080140000C0140001001400014014016
:100EA00000180140001C01400020014000000140EA
:100EB000000020420E49086070470D4948607047A5
:100EC0000B49886070474AF6AA20094908607047B4
:100ED0004CF6CC4006490860704701460020044AA1
:100EE000D2680A4201D0012000E0002070470000D3
:100EF00000300040DB48006840F00100D94908603C
:100F000008464068D8490840D64948600846006805
:100F1000D6490840D34908600846006820F480207C
:100F200008600846406820F4FE0048604FF41F0047
:100F300088607047CB49096821F48031C94A116043
:100F40001146096821F480211160B0F5803F03D07B
:100F5000B0F5802F0ED106E0C249096841F4803116
:100F6000C04A116007E0BF49096841F4A021BD4AA9
:100F7000116000E000BF00BF704710B501460022BD
:100F8000002300204A11012A02D1B64C236806E052
:100F9000022A02D1B34C236A01E0B24C636A01F029
:100FA0001F02012494401C4201D0012000E00020D7
:100FB00010BD70B500240025002600BF3120FFF7CA
:100FC000DCFF0646641CB4F5A06F01D0002EF5D0FE
:100FD0003120FFF7D2FF08B1012500E000252846A7
:100FE00070BD00219F4A116821F0F80141EAC0015B
:100FF000116070479E49086070470022994B5A68FB
:1010000022F47C1240EA01031A43964B5A6070475F
:101010009749086670470021924A516821F0030100
:101020000143516070478F48406800F00C007047E2
:1010300000218C4A516821F0F00101435160704752
:101040000021884A516821F4E061014351607047F2
:101050000021844A516821F4605141EAC001516085
:10106000704729B17F4A527A02437E4B5A7206E09A
:101070007C4A527AC343DBB21A407A4B5A727047A9
:101080007B49D831086070470021764A516821F4C5
:1010900040410143516070470021724A2032117073
:1010A000704A82F82010012802D004280AD104E0F6
:1010B00001216C4A2032117005E00521694A203275
:1010C000117000E000BF00BF70476A4908607047B8
:1010D0006449096A0143634A1162704765494439AA
:1010E0000860704730B500210022002300245D4DC8
:1010F0006D6805F00C0121B1042905D0082923D120
:1011000005E05D4D056022E05B4D05601FE0554D3B
:101110006D6805F47012534D6D6805F48033022537
:1011200005EB92421BB9554D554305600BE04D4D03
:101130006D6815F4003F03D0504D5543056002E043
:101140004D4D5543056002E04B4D056000BF00BFAB
:10115000444D6D6805F0F0010909494D6C5C056866
:10116000E54045603F4D6D6805F4E061090A444D76
:101170006C5C4568E54085603A4D6D6805F46051EA
:10118000C90A3F4D6C5C4568E540C560354D6D68EA
:1011900005F44041890B3A4D10356C5CC568B5FBD0
:1011A000F4F5056130BD29B12E4A526902432D4B39
:1011B0005A6104E02B4A526982432A4B5A617047B4
:1011C00029B1284A92690243264B9A6104E0254AD4
:1011D00092698243234B9A61704729B1214AD269AF
:1011E0000243204BDA6104E01E4AD26982431D4B60
:1011F000DA61704729B11B4AD2680243194BDA60A1
:1012000004E0184AD2688243164BDA60704729B16D
:10121000144A12690243134B1A6104E0114A12691D
:101220008243104B1A617047124940390860704779
:101230000F49C86470470B49C87170470948406A34
:1012400040F0807007494862704701460020054A17
:1012500092680A4201D0012000E000207047014955
:1012600088727047001002400000FFF8FFFFF6FE92
:10127000000042428004424200127A0000093D0010
:101280002400002010B50446FB48844209D1012106
:101290008803FFF7AFFF00214FF48040FFF7AAFF5C
:1012A00032E0F648844209D101214804FFF7AFFF3C
:1012B00000214FF40030FFF7AAFF25E0F0488442F8
:1012C00009D101218804FFF7A2FF00214FF48020FB
:1012D000FFF79DFF18E0EB48844209D10121C804C3
:1012E000FFF795FF00214FF40020FFF790FF0BE080
:1012F000E548844208D101210805FFF788FF002155
:101300004FF48010FFF783FF10BD2DE9F04786B042
:1013100004460D460026002700BFB146B246A88904
:1013200000B100BFA246268A4CF6FF700640E8884E
:1013300006432682A6894EF6F3100640A88829891E
:101340000843698908430643A681A68A4FF6FF40F1
:101350000640A8890643A68201A8FFF7C3FE5446AB
:10136000C548824501D1049F00E0039FA08910F485
:10137000004F08D007EBC70000EB071029684900B1
:10138000B0FBF1F807E007EBC70000EB0710296896
:101390008900B0FBF1F86420B8FBF0F006013009D9
:1013A000642101FB1089A08910F4004F09D032217B
:1013B00001EBC9006421B0FBF1F000F00700064327
:1013C00008E0322101EB09106421B0FBF1F000F0DC
:1013D0000F000643268106B0BDE8F0874FF4165192
:1013E000016000218180C18001810C2141810021A7
:1013F0008181704710B50022028A4FF2FF031A4024
:101400000B884C8823438C882343CC8823431A437E
:10141000028210BD0021018041808180C18070471F
:1014200021B1828942F40052828104E082894DF622
:10143000FF731A4082817047F0B500240025002612
:101440000023A1F510676A3F00D100BF0346C1F336
:10145000421401F01F05012707FA05F6012C01D1FE
:101460000C3304E0022C01D1103300E014331AB124
:101470001F6837431F6002E01F68B7431F60F0BD5D
:1014800010B51AB1838A0B43838204E0838ACC436C
:10149000A4B22340838210BD028A4FF6F0731A4033
:1014A0000282028A0A430282704782894FF2FF73E6
:1014B0001A40828182890A438281704721B18289E0
:1014C00042F00202828104E082894FF6FD731A40E5
:1014D00082817047028A4FF6DF731A400282028AC5
:1014E0000A430282704721B1028A42F4804202829A
:1014F00004E0028A4BF6FF731A4002827047C1F380
:1015000008028280704701468888C0F3080070474F
:10151000818941F0010181817047028BD2B202833F
:10152000028B42EA012202837047028B02F47F425F
:101530000283028B0A430283704721B1828A42F000
:101540002002828204E0828A4FF6DF731A40828290
:10155000704721B1828A42F01002828204E0828ABE
:101560004FF6EF731A408282704721B1828A42F0AF
:101570000802828204E0828A4FF6F7731A40828260
:10158000704721B1828942F40042828103E082895E
:10159000C2F30E028281704721B1828A42F4006256
:1015A000828204E0828A4FF2FF731A40828270477F
:1015B000828A4FF6FB731A408282828A0A438282B1
:1015C000704721B1828A42F00202828204E0828A5C
:1015D0004FF6FD731A408282704702460020B1F533
:1015E000007F00D100BF13880B4201D0012000E032
:1015F0000020704701F40072B2F5007F00D100BFF7
:10160000CA430280704770B50246002300240025BB
:101610000020A1F510666A3E00D100BFC1F342155B
:1016200001F01F04012606FA04F4012D02D1968967
:10163000344006E0022D02D1168A344001E0968A39
:1016400034400B12012606FA03F31688334014B116
:101650000BB1012000E0002070BD10B50022002376
:10166000A1F510646A3C00D100BF0A120124944025
:10167000A3B2DC43048010BD0038014000440040A8
:1016800000480040004C00400050004010B50121CF
:10169000C802FFF7BCFD00214FF40060FFF7B7FD63
:1016A00010BD0021174A126822F4C0710143164A86
:1016B000C2F8041C70470021124A126822F07F0110
:1016C00000F07F021143104AC2F8041C7047012049
:1016D0000E490860704700F07F010A4A121F11602E
:1016E000704740F08001074A121F1160704705489B
:1016F000001D0068C0B2704700200249091D086043
:1017000070470000042C004000200040A4800542E7
:1017100070477047704770477047754600F028F86B
:10172000AE4605006946534620F00700854618B0CE
:1017300020B5FFF701F9BDE820404FF000064FF05B
:1017400000074FF000084FF0000B21F00701AC46F6
:10175000ACE8C009ACE8C009ACE8C009ACE8C00915
:101760008D4670470446AFF300802046FEF707FD24
:1017700000487047780000209817000800000020FB
:101780003800000028010008D017000838000020A9
:10179000A00600004401000800A24A040000000066
:1017A0000000000001020304060708090100000010
:1017B0000000000000000000000000000000000029
:1017C00001020304010203040607080902040608D3
:04000005080000ED02
:00000001FF
