:020000040800F2
:10000000E8060020C5220008D5040008D70400082F
:10001000DB040008DF040008E3040008000000001F
:10002000000000000000000000000000E7040008DD
:10003000E904000800000000EB040008ED040008DB
:1000400089080008DF220008DF220008DF220008FC
:10005000DF220008DF220008FB1E00080F20000836
:10006000DF220008DF220008DF220008DF2200086C
:10007000DF220008DF220008DF220008DF2200085C
:10008000DF220008DF220008DF220008DF2200084C
:10009000DF220008DF220008DF220008DF2200083C
:1000A000DF220008DF220008DF220008DF2200082C
:1000B000DF2200080F090008DF220008DF22000805
:1000C000DF220008DF220008DF220008DF2200080C
:1000D000DF22000839220008DF220008DF220008A2
:1000E000DF220008DF220008DF22000800F002F80B
:1000F00000F041F80AA090E8000C82448344AAF181
:100100000107DA4501D100F036F8AFF2090EBAE87E
:100110000F0013F0010F18BFFB1A43F0010318473B
:10012000D04A0000F04A0000103A24BF78C878C1D5
:10013000FAD8520724BF30C830C144BF04680C60ED
:10014000704700000023002400250026103A28BF35
:1001500078C1FBD8520728BF30C148BF0B60704739
:10016000782903F00F87002070471FB5AFF3008098
:100170001FBD10B510BD03F0A7FF1146FFF7F5FF37
:1001800000F006F803F0C5FFFFF7F3FF01F0FAFFF8
:1001900038B500F011FA482001F0A2FF01F0ECFFA1
:1001A0004FF4165001F0FCFF00F086FA00F0B6FAAA
:1001B00000F0D7FC01F0E6FE4FF478408449088057
:1001C00084A232213C2001F02FFE85A246213C2052
:1001D00001F02AFE85A25A213C2001F025FE87A2CB
:1001E0006E213C2001F020FE87A282211E2001F01A
:1001F0001BFE87A28221084601F016FE86A29621E8
:100200001E2001F011FEE1E085480078002872D040
:1002100001F03DFF04461023009303232246822170
:10022000562001F07FFD1023009303237D480278C0
:100230008221BA2001F076FD2046622C3DD017DCE9
:10024000302871D00BDC10286FD003DC48B30228B3
:100250002CD138E0182869D02228F9D145E0382877
:100260004AD042286FD052286ED05A28F0D18AE066
:10027000A8284DD00CDC902850D004DC682856D03B
:100280007A28E5D173E0982857D0A228E0D10EE073
:10029000B0285AD0C22822D0E02833D0E228D7D1C3
:1002A00017E061A29621562001F0BEFD7DE060A21C
:1002B0009621562001F0B8FD77E05FA296215620E6
:1002C00001F0B2FD71E05EA29621562001F0ACFD76
:1002D0006BE05DA29621562001F0A6FD65E05CA2D0
:1002E0009621562001F0A0FD5FE05BA296215620EA
:1002F00001F09AFD59E059E059A29621562001F0EB
:1003000093FD52E058A29621562001F08DFD4CE05D
:1003100057A29621562001F087FD46E056A296216D
:10032000562001F081FD40E015E026E019E054A2DE
:100330009621562001F078FD37E053A296215620F1
:1003400001F072FD31E024E029E051A2962156200F
:1003500001F06AFD29E050A29621562001F064FDCB
:1003600023E04FA29621562001F05EFD1DE04EA233
:100370009621562001F058FD17E04DA296215620F7
:1003800001F052FD11E04CA29621562001F04CFDE7
:100390000BE04BA29621562001F046FD05E04AA253
:1003A0009621562001F040FD00BF02E0022001F03E
:1003B000ABFE681CC5B2C82D08D1002544480068B2
:1003C00008B9012000E00020414908601CE7000056
:1003D000160000204D696E692053544D33320000E1
:1003E00052454D4F544520544553540041544F4DB0
:1003F00040414C49454E54454B00000032303131AC
:100400002F312F31000000004B455956414C3A0026
:100410004B4559434E543A0053594D424F4C3A00C4
:1004200021000020200000204552524F52000000C1
:10043000504F57455200000055502020202000000A
:10044000504C415920200000414C49454E200000AD
:1004500052494748542000004C4546542020000093
:100460003820202020200000564F4C2D2020000056
:10047000444F574E20200000564F4C2B20200000A8
:1004800031202020202000003220202020200000C9
:1004900033202020202000003420202020200000B5
:1004A00035202020202000003620202020200000A1
:1004B000372020202020000039202020202000008C
:1004C000302020202020000044454C4554450000A9
:1004D000A0012142704700BFFEE700BFFEE700BF5A
:1004E000FEE700BFFEE770477047704770470000A7
:1004F00000200021674A126842F48032654B1A607E
:1005000000BF644A126802F40031401C11B9B0F512
:10051000A06FF6D15F4A126812F4003F01D00121AA
:1005200000E00021012942D15B4A126842F010022A
:10053000594B1A601A46126822F003021A601A46D2
:10054000126842F002021A60524A5268514B5A60D5
:100550001A4652685A601A46526842F480625A60DB
:100560001A46526822F47C125A601A46526842F4C3
:10057000E8125A601A46126842F080721A6000BF90
:10058000444A126812F0007FFAD0424A526822F0C0
:100590000302404B5A601A46526842F002025A6007
:1005A00000BF3C4A526802F00C02082AF9D1704799
:1005B00010B5FFF79DFF10BD10B53648006840F03C
:1005C0000100344908600846406834490840314910
:1005D000486008460068324908402E4908600846CD
:1005E000006820F4802008600846406820F4FE007F
:1005F00048604FF41F008860FFF7DAFF4FF000609B
:100600002849086010BD10B5002000210022214BB0
:100610005B6803F00C0020B1042806D0082828D11C
:1006200007E0214B214C236027E01F4B1F4C236028
:1006300023E0184B5B6803F47011164B5B6803F4FE
:100640008032022303EB914122B9194B4B43174CE3
:1006500023600DE00F4B5B6813F4003F04D0144B94
:100660004B43124C236003E00F4B4B430F4C236072
:1006700003E00D4B0D4C236000BF00BF054B5B68D2
:10068000C3F303130B4CE05C084B1B68C340074CDF
:10069000236010BD00100240002002400000FFF85F
:1006A000FFFFF6FE08ED00E000127A0000000020D7
:1006B00000093D000400002008B50121042002F0DB
:1006C000BDFA4FF48070ADF8000010208DF80300E3
:1006D00003208DF8020069460E4801F07BFF4FF4BD
:1006E00080710C4802F01EF80121202002F0A6FAC9
:1006F0000420ADF8000010208DF8030003208DF8D1
:1007000002006946044801F065FF0421024802F036
:1007100009F808BD000801400014014008B5012196
:10072000042002F08BFA4FF42040ADF8000048207E
:100730008DF8030069462E4801F04CFF0120ADF80A
:10074000000028208DF803006946294801F042FF87
:1007500008BD10B50121274802F007F826480078A7
:1007600000282FD02548006840B124480830006890
:1007700020B1224834380068012823D10A2001F032
:10078000C3FC00201C4908701C48006828B90121DE
:100790001B4801F0EAFF012010BD1848083000682E
:1007A00028B90121164801F0E0FF0220F4E71348C0
:1007B00034380068012815D10121114801F0D5FF16
:1007C0000320E9E70D48006801280BD10B480830E9
:1007D0000068012806D109483438006810B90120A2
:1007E000054908700121064801F0BFFF0020D3E74A
:1007F00000080140000430001400002034012142B0
:100800000002300070B504460D4645F2555002F026
:1008100025F8204602F025F8284602F025F802F0D7
:1008200026F802F029F870BD10B502F020F810BDCE
:1008300008B500208DF8000002208DF8010003208B
:100840008DF80200684601F062FD08BD70B50446EF
:100850000D4616460121C80202F0FDF9304603F0AC
:1008600010FB284603F017FB204603F02AFB03F099
:1008700033FBFFF7DDFF03F01AFB70BD10B5044634
:10088000204603F01EFB10BD10B57F2003F013FBC4
:1008900003F022FB0448006808B9012000E00020B2
:1008A0000149086010BD0000888122427FB50446DE
:1008B0000D460121022002F0CEF941F28830ADF858
:1008C000080041F61F40ADF804000020ADF80A0012
:1008D000ADF8060001A9174802F0E6FA012241210D
:1008E000144802F02DFE1D208DF8000000208DF828
:1008F000010003208DF8020001208DF803006846F6
:1009000001F005FD01210B4802F0F5FD7FBD10B59A
:100910000121084803F091F858B10121054803F07E
:100920009DF80548006808B9012000E00020024950
:10093000086010BD00040040888122424FF480719D
:10094000FF4A516149005161FE49086080215161AF
:10095000116189001161704710B504460B462046AD
:10096000FFF7ECFF4FF48070F549086140004861E3
:10097000F44803608020486108618000086110BD70
:1009800070B504462046FFF7D9FF4FF08830ED4997
:100990000C390860EC49C1F8040C4FF6FF70E949C6
:1009A00008608815E64908614000486140204861B8
:1009B000052001F0C4FB4020E1490861E248D0F87D
:1009C000080C85B2481508614FF03330DD490C3909
:1009D0000860091D08604FF6FF70DA490860284674
:1009E00070BD00B52220FFF7A9FF00BD4FF4807154
:1009F000D34A116149005161D24908608021516197
:100A0000116189001161704730B5014601F01F0482
:100A1000C1F34513CA0AE50205EB43151544A8B214
:100A200030BD70B504460D46F02C02DAB5F5A07F56
:100A300001DB002070BD2946204603F075FB222013
:100A4000FFF77CFF4FF08830BE490C390860BE4983
:100A5000C1F8040C4FF6FF70BA4908608815B84910
:100A6000086140004861402048610861022001F0AF
:100A700066FB4020B2494861022001F060FB402043
:100A8000AF490861B048D0F8080C86B24815086133
:100A90004FF03330AB490C390860091D08604FF640
:100AA000FF70A949C1F80C0CA8480088A0F58A413C
:100AB00031390BD0A5480088A0F50941893905D006
:100AC000A2480088A0F53541053901D13046B1E78B
:100AD0003046FFF799FFADE700B540F273110720EC
:100AE000FFF73AFF00BD00B500210720FFF734FFF4
:100AF00000BD70B504460D462946204603F014FBA0
:100B00002220FFF71BFF4FF480708D4908614000E1
:100B100048618F4800888B49086080208849486177
:100B200008618000086170BD70B505460024002191
:100B3000084603F0F9FAFFF754FF00BF0DE04FF449
:100B400080707F490861400048617E4805608020D0
:100B50004861086180000861641CB4F5963FEED3DB
:100B600070BD08B50121192002F068F8012179480B
:100B700001F0FBFD4FF4F860ADF8000010208DF897
:100B8000030003208DF8020069466D4801F022FD44
:100B90004FF4F8616A4801F0C5FD4FF6FF70ADF8FB
:100BA0000000694667480C3801F014FD4FF6FF71EC
:100BB00064480C3801F0B6FD322001F0A5FA01219D
:100BC0000020FFF7C9FE322001F09EFA0020FFF757
:100BD000D7FE5E490880084601885FA003F08AF9C5
:100BE0005A480088A0F51341253905D05748008898
:100BF000A0F5134128397ED141F28F01EC20FFF797
:100C0000ABFE41F23421EF20FFF7A6FE4FF48071D6
:100C10000120FFF7A1FE4FF4E0610220FFF79CFEE8
:100C20004FF480710120FFF797FE4FF4E06102203E
:100C3000FFF792FE41F230010320FFF78DFE002105
:100C40000420FFF789FE40F207210820FFF784FE09
:100C500000210920FFF780FE00210A20FFF77CFE1B
:100C600001210C20FFF778FE00210D20FFF774FE14
:100C700000210F20FFF770FE00211020FFF76CFE0F
:100C800007211120FFF768FE00211220FFF764FE04
:100C900000211320FFF760FE322001F035FA41F207
:100CA00090511020FFF758FE40F227211120FFF746
:100CB00053FE322001F028FA9C211220FFF74CFE4F
:100CC000322001F021FA4FF4C8511320FFF744FEFF
:100CD00023212920FFF740FE0E212B20FFF73CFEA9
:100CE000322001F011FA00212020FFF735FE40F2FA
:100CF0003F11212000E08DE0FFF72EFE322001F0B1
:100D000003FA07213020FFF727FE40F20771312058
:100D1000FFF722FE06213220FFF71EFE40F204718B
:100D20003520FFF719FE41F604713620FFF714FE57
:100D300004213720FFF710FE0021382012E00000C8
:100D4000001001400C0C0140000001401A0000207E
:100D50001600002000023000204C43442049443A51
:100D600025780A00FFF7F8FD40F206713920FFF7F9
:100D7000F3FD40F201713C20FFF7EEFD0F213D2015
:100D8000FFF7EAFD322001F0BFF900215020FFF704
:100D9000E3FDEF215120FFF7DFFD00215220FFF797
:100DA000DBFD40F23F115320FFF7D6FD4FF4274102
:100DB0006020FFF7D1FD01216120FFF7CDFD00216B
:100DC0006A20FFF7C9FD00218020FFF7C5FD002143
:100DD0008120FFF7C1FD00218220FFF7BDFD00212A
:100DE0008320FFF7B9FD00218420FFF7B5FD002126
:100DF0008520FFF7B1FD10219020FFF7ADFD4FF4E6
:100E0000C0619220FFF7A8FD40F233110720FFF7E1
:100E1000A3FD7FE2FF480088A0F51341203904D0EC
:100E2000FC480088B0F5134F7ED100210846FFF73B
:100E300093FD4FF480710120FFF78EFD4FF4E061C8
:100E40000220FFF789FD41F230010320FFF784FD06
:100E500000210420FFF780FD40F202210820FFF767
:100E60007BFD00210920FFF777FD00210A20FFF715
:100E700073FD01210C20FFF76FFD00210D20FFF70E
:100E80006BFD00210F20FFF767FD322001F03CF9D8
:100E900040F201110720FFF75FFD322001F034F925
:100EA0004FF486511020FFF757FD07211120FFF75F
:100EB00053FD4FF488711220FFF74EFD4FF430615F
:100EC0001320FFF749FD00212920FFF745FD44F2DB
:100ED00010012B20FFF740FD00215020FFF73CFDC3
:100EE000EF215120FFF738FD00215220FFF734FD9C
:100EF00040F23F115320FFF72FFD4FF41C516020AB
:100F0000FFF72AFD01216120FFF726FD00216A205D
:100F1000FFF722FD00218020FFF71EFD0021812028
:100F2000FFF71AFD002100E02DE08220FFF714FDFD
:100F300000218320FFF710FD00218420FFF70CFD26
:100F400000218520FFF708FD10219020FFF704FD08
:100F500000219220FFF700FD01219320FFF7FCFC08
:100F60004FF488719520FFF7F7FC00219720FFF7D9
:100F7000F3FC00219820FFF7EFFC40F273110720EB
:100F8000FFF7EAFC45E7A3480088A0F5A841083927
:100F90007ED14FF480710120FFF7DEFC4FF4E06159
:100FA0000220FFF7D9FC41F230010320FFF7D4FC07
:100FB00000210420FFF7D0FC40F207210820FFF7B2
:100FC000CBFC00210920FFF7C7FC00210A20FFF716
:100FD000C3FC00210C20FFF7BFFC00210D20FFF710
:100FE000BBFC00210F20FFF7B7FC142001F08CF8A8
:100FF00041F2B0611020FFF7AFFC01211120FFF793
:10100000ABFC01211720FFF7A7FC4FF49C711220C5
:10101000FFF7A2FC4FF400611320FFF79DFC0921AC
:101020002920FFF799FC09212A20FFF795FC0021D0
:10103000A420FFF791FC00215020FFF78DFCEF2149
:101040005120FFF789FC00215220FFF785FC40F278
:101050003F115320FFF780FC4FF41C516020FFF735
:101060007BFC01216120FFF777FC00216A20FFF75C
:1010700073FC00218020FFF76FFC00218120FFF727
:101080006BFC00218220FFF767FC0021832000E039
:1010900023E0FFF761FC00218420FFF75DFC0021C5
:1010A0008520FFF759FC13219020FFF755FC002104
:1010B0009220FFF751FC03219320FFF74DFC4FF4E2
:1010C00088719520FFF748FC40F273110720FFF765
:1010D00043FC322001F018F89BE64E480088A0F54A
:1010E000A85105397ED10720FFF736FC322001F0E8
:1010F0000BF84FF48E711220FFF72EFC0121A42073
:10110000FFF72AFC0F210820FFF726FC08210A2000
:10111000FFF722FC08210D20FFF71EFC40F20771AB
:101120003020FFF719FC07213120FFF715FC40F2B2
:1011300003613220FFF710FC4FF4E0613320FFF72A
:101140000BFC40F202213420FFF706FC022135207F
:10115000FFF702FC41F60F713620FFF7FDFB40F26E
:1011600007713720FFF7F8FB00213820FFF7F4FB69
:1011700000213920FFF7F0FB40F207713A20FFF71A
:10118000EBFB00213B20FFF7E7FB07213C20FFF7AB
:10119000E3FB00213D20FFF7DFFB322000F0B4FF2E
:1011A00001210720FFF7D8FB01211720FFF7D4FB0F
:1011B000322000F0A9FF4FF4BD511020FFF7CCFB07
:1011C00040F217211120FFF7C7FB4FF48F71122057
:1011D000FFF7C2FB4FF470611320FFF7BDFB002146
:1011E0002A2000E097E0FFF7B7FB0A212920FFF74C
:1011F000B3FB4FF49F711220FFF7AEFB002150208C
:10120000FFF7AAFBEF215120FFF7A6FB0021522098
:1012100002E000001A000020FFF79EFB40F23F11A1
:101220005320FFF799FB4FF41C516020FFF794FB0C
:1012300001216120FFF790FB00216A20FFF78CFB62
:1012400000218020FFF788FB00218120FFF784FB2D
:1012500000218220FFF780FB00218320FFF77CFB29
:1012600000218420FFF778FB00218520FFF774FB25
:1012700013219020FFF770FB4FF440719220FFF78D
:101280006BFB05219320FFF767FB00219520FFF7FB
:1012900063FB00219720FFF75FFB00219820FFF7F9
:1012A0005BFB4FF480710120FFF756FB4FF4E061C8
:1012B0000220FFF751FB41F230010320FFF74CFB06
:1012C00000210420FFF748FB00210C20FFF744FB1E
:1012D00000210F20FFF740FB00212020FFF73CFBFF
:1012E00000212120FFF738FB21210720FFF734FBE5
:1012F000142000F009FF61210720FFF72DFB1420C7
:1013000000F002FF40F273110720FFF725FB1420C5
:1013100000F0FAFE45E3FF480088A0F535410539A5
:101320007DD10846FFF718FB00210846FFF714FBA4
:1013300000210846FFF710FB00210846FFF70CFBD1
:101340000121A420FFF708FB142000F0DDFE4FF47C
:101350001C516020FFF700FB40F202210820FFF73C
:10136000FBFA4FF405713020FFF7F6FA43F21571DE
:101370003120FFF7F1FA40F204613220FFF7ECFA76
:1013800040F616613320FFF7E7FA42F211213420CC
:10139000FFF7E2FA4FF4A8513520FFF7DDFA48F2E3
:1013A00007513620FFF7D8FA41F207413720FFF7FF
:1013B000D3FA41F203413820FFF7CEFA2021392039
:1013C000FFF7CAFA1A219020FFF7C6FA0021102071
:1013D000FFF7C2FA07211120FFF7BEFA0021122001
:1013E000FFF7BAFA00211320FFF7B6FA142000F035
:1013F0008BFE4FF4E6611020FFF7AEFA40F2371192
:101400001120FFF7A9FA142000F07EFE4FF4DC71E2
:101410001220FFF7A1FA142000F076FE00E083E02E
:101420004FF470611320FFF797FA80212A20FFF70D
:1014300093FA48212920FFF78FFA142000F064FE68
:101440004FF480710120FFF787FA4FF4E06102202A
:10145000FFF782FA41F230210320FFF77DFA40F2D4
:1014600002210820FFF778FA00210A20FFF774FA1A
:1014700000210C20FFF770FA00210D20FFF76CFA15
:1014800030210E20FFF768FA00215020FFF764FAA0
:10149000EF215120FFF760FA00215220FFF75CFA9C
:1014A00040F23F115320FFF757FA4FF41C516020D0
:1014B000FFF752FA01216120FFF74EFA00216A205E
:1014C000FFF74AFA11219020FFF746FA4FF4C06166
:1014D0009220FFF741FA40F202419320FFF73CFAD5
:1014E00002219420FFF738FA142000F00DFE0121AC
:1014F0000720FFF731FA142000F006FE61210720D3
:10150000FFF72AFA40F273110720FFF725FA0021AE
:101510002020FFF721FA00212120FFF71DFA2221C8
:101520000020FFF719FA3CE27A480088A0F509414B
:1015300089397DD101210020FFF70EFA4AF6A40176
:101540000320FFF709FA00210C20FFF705FA40F607
:101550000C010D20FFF700FA4FF42C510E20FFF77D
:10156000FBF9B0211E20FFF7F7F942F63F310120C9
:10157000FFF7F2F94FF4C0610220FFF7EDF9002107
:101580001020FFF7E9F946F270011120FFF7E4F9A6
:1015900000210520FFF7E0F900210620FFF7DCF924
:1015A0004EF61C711620FFF7D7F903211720FFF71D
:1015B000D3F940F233210720FFF7CEF900210B20A9
:1015C000FFF7CAF900210F20FFF7C6F900214120DB
:1015D000FFF7C2F900214220FFF7BEF900214820A1
:1015E000FFF7BAF940F23F114920FFF7B5F90021A2
:1015F0004A20FFF7B1F900214B20FFF7ADF94FF476
:101600006F414420FFF7A8F900214520FFF7A4F916
:1016100040F23F114620FFF79FF940F2077130205A
:10162000FFF79AF94FF401713120FFF795F900E0C7
:101630003DE04FF401713220FFF78EF940F2025184
:101640003320FFF789F940F207513420FFF784F97E
:101650004FF401713520FFF77FF94FF40171362007
:10166000FFF77AF940F202513720FFF775F940F29F
:1016700002313A20FFF770F940F202313B20FFF7C8
:101680006BF900212320FFF767F900212420FFF7E1
:1016900063F94FF400412520FFF75EF900214F2048
:1016A000FFF75AF900214E20FFF756F979E1194862
:1016B0000088A0F58A4131397ED101210020FFF751
:1016C0004BF90A2000F020FD41F228611020FFF7BD
:1016D00043F90E211220FFF73FF940F6392113207C
:1016E000FFF73AF90A2000F00FFD40211120FFF723
:1016F00033F950211520FFF72FF90A2000F004FDDF
:101700001E211220FFF728F90A2000F0FDFC4FF4FB
:10171000B15101E01A0000201020FFF71DF942F638
:1017200039211320FFF718F90A2000F0EDFC4FF4DF
:1017300080710120FFF710F94FF440710220FFF78C
:101740000BF941F230010320FFF706F940F20221C4
:101750000820FFF701F908210A20FFF7FDF8002112
:101760003020FFF7F9F840F202413120FFF7F4F89A
:101770004FF483713220FFF7EFF840F2035133202A
:10178000FFF7EAF84FF482713420FFF7E5F840F2F2
:1017900001313520FFF7E0F840F207713620FFF7FE
:1017A000DBF840F205313720FFF7D6F84FF402712D
:1017B0003820FFF7D1F800E03EE040F60B71392009
:1017C000FFF7CAF802214120FFF7C6F84FF41C5179
:1017D0006020FFF7C1F801216120FFF7BDF84FF449
:1017E00004719020FFF7B8F84FF485719220FFF74D
:1017F000B3F804219320FFF7AFF84FF48071A020D5
:10180000FFF7AAF801210720FFF7A6F821210720FA
:10181000FFF7A2F823210720FFF79EF833210720C6
:10182000FFF79AF840F233110720FFF795F80021EF
:10183000A020FFF791F8B4E0F9480088A0F58A41AC
:101840003539F8D130211520FFF786F810219A207C
:10185000FFF782F820211120FFF77EF843F228419C
:101860001020FFF779F802211220FFF775F841F2F6
:1018700038011320FFF770F8282000F045FC1221F2
:101880000846FFF769F8282000F03EFC43F22041AB
:101890001020FFF761F843F238011320FFF75CF8DE
:1018A000462000F031FC00213020FFF755F840F2CF
:1018B00002413120FFF750F840F207313220FFF7A4
:1018C0004BF84FF441713320FFF746F804213420E0
:1018D000FFF742F840F201413520FFF73DF840F2B2
:1018E00007713620FFF738F840F205313720FFF74F
:1018F00033F84FF4C2613820FFF72EF84FF4C2617D
:101900003920FFF729F84FF480710120FFF724F800
:101910004FF440710220FFF71FF841F2300103201D
:10192000FFF71AF840F608010820FFF715F808211C
:101930000A20FFF711F84FF41C516020FFF70CF854
:1019400001216120FFF708F84FF49F719020FFF705
:1019500003F84FF480719220FEF7FEFF4FF4807180
:101960009320FEF7F9FF4FF44051A020FEF7F4FF5B
:101970001021A320FEF7F0FF01210720FEF7ECFF66
:1019800021210720FEF7E8FF23210720FEF7E4FFCF
:1019900033210720FEF7E0FF40F233110720FEF766
:1019A000DBFF01209F4908604FF6FF70FFF7BCF88E
:1019B00008BD2DE9F05F04460D4616461F46DDF8CA
:1019C00028804FF0000B301B401C1FFA80FBA946FB
:1019D00020E04946204602F0A7FBFFF702F84FF04F
:1019E000000A11E04FF480708F490861400048619F
:1019F0008E48C0F80C8C8020486108618000086126
:101A00000AF101001FFA80FADA45EBDB09F1010067
:101A10001FFA80F9B945DCDDBDE8F09F2DE9FF4FE5
:101A200085B004460D461646002004900390A6EBB0
:101A300004080898A0EB0509A3460095B8F1000F2B
:101A400002DD012001900AE0B8F1000F02D1002070
:101A5000019004E04FF0FF300190C8F10008B9F1A7
:101A6000000F02DD4FF0010A09E0B9F1000F02D1C9
:101A70004FF0000A03E04FF0FF3AC9F10009C845F2
:101A800002DDCDF8088001E0CDF80890002722E0C3
:101A9000009881B21FFA8BF0FFF72BF804984044AE
:101AA000049003984844039002990498884205DD05
:101AB00004990298081A049001988344DDE9021001
:101AC000884206DDDDE90210401A03900098504478
:101AD0000090781C87B20298401C8742D8DD09B07C
:101AE000BDE8F08F2DE9F04104460D4616461F462D
:101AF0002B46324629462046FFF790FF3B462246BA
:101B000029462046FFF78AFF3B46324639462046A3
:101B1000FFF784FF3B46324629463046FFF77EFFFB
:101B2000BDE8F0812DE9F04704460D461646002732
:101B3000B0460320A0EB460954E0EA1B91B2A4EBA7
:101B4000080290B2FEF7D5FFEA1B91B204EB08023F
:101B500090B2FEF7CEFF05EB080291B2E21B90B205
:101B6000FEF7C7FFEA1B91B2A4EB080290B2FEF7A2
:101B7000C0FFA5EB080291B2E21B90B2FEF7B9FFDD
:101B8000EA1991B204EB080290B2FEF7B2FFA5EB9E
:101B9000080291B2E21990B2FEF7ABFF05EB080222
:101BA00091B2E21990B2FEF7A4FFEA1991B2A4EB48
:101BB000080290B2FEF79DFF7F1CB9F1000F03DA17
:101BC000B800801D814406E0A7EB080080000A30C1
:101BD0008144A8F1010805EB080291B2E21990B224
:101BE000FEF787FF4745A8DDBDE8F0872DE9F84FF0
:101BF00004460D4616461F46A3460D480088009031
:101C0000E82C02DCB5F59C7F01DDBDE8F88FA6F17C
:101C10002000C6B20A98002844D181463FE0000067
:101C20001A000020A80122420010014000000140DB
:101C3000160000200C2F07D106EB46008D4901EB62
:101C4000800010F8098004E08B4800EB061010F8C3
:101C500009804FF0000A16E018F0010F03D0874901
:101C60000098088003E08648008884490880294657
:101C70002046FEF73EFF4FEA6808601C84B20AF176
:101C8000010000F0FF0A07EBD771BAEB610FE3DB4D
:101C90005C46681C85B209F1010000F0FF09B945F6
:101CA000C8DB30E04FF000092BE00C2F07D106EB2A
:101CB0004600704901EB800010F8098004E06E488E
:101CC00000EB061010F809804FF0000A10E018F041
:101CD000010F07D005EB090291B204EB0A0290B2A2
:101CE000FEF707FF4FEA68080AF1010000F0FF0A5B
:101CF00007EBD771BAEB610FE9DB09F1010000F0E6
:101D0000FF09B945D1DB5D49009808807DE710B532
:101D10000246012000E050430B00A1F10104E1B2B2
:101D2000F9D110BD2DE9FF4F81B0044615461E467E
:101D30000E9F4FF0000AD0463EE0A6EB0800401E82
:101D4000C1B20A20FFF7E3FFB5FBF0F00A21B0FBB8
:101D5000F1F201FB120000F0FF09BAF1000F16D1F9
:101D6000701E404513DDB9F1000F0ED10023BB46B4
:101D700007EBD771491001FB084188B200933B463D
:101D800020220299FFF732FF12E04FF0010A0023F0
:101D9000BB4607EBD771491001FB084188B200939D
:101DA0003B4609F13001CAB20299FFF71FFF00BF9D
:101DB00008F1010000F0FF08B045BEDB05B0BDE84A
:101DC000F08F2DE9F84F04460D4616461F46DDF804
:101DD00028804FF0000923E0A7EB0900401EC1B2A4
:101DE0000A20FFF794FFB6FBF0F00A21B0FBF1F2F6
:101DF00001FB120000F0FF0A0B9BC34608EBD871F1
:101E0000491001FB094188B2009343460AF13001B1
:101E1000CAB22946FFF7EAFE09F1010000F0FF0906
:101E2000B945D9DBBDE8F88FF8B504460D4616462E
:101E30001BE0E82C03DD002405F1100085B2B5F5A8
:101E40009C7F06DD0020044605464FF6FF70FEF736
:101E50006BFE002300933278102329462046FFF7BB
:101E6000C5FE04F1080084B2761C30780028E0D169
:101E7000F8BD000064410008D845000816000020A5
:101E80001800002010B50121042000F07AFA012189
:101E9000080700F0E0FE012000F019FD00F039FD18
:101EA00010BD10B500214FF4FE7000F0E1FEFFF709
:101EB000E9FF10BD70B50024002500202E49086000
:101EC0001AE02D48A038006818B1601CC4B2002583
:101ED00008E0681CC5B2032D04DD01202649086016
:101EE000002070BD1E2000F00FF9642C04DB0020E0
:101EF000214908600120F4E7E3E710B501201F49FC
:101F00000860FFF7D7FF08B1FFF7CBFF10BD1FB583
:101F10000121052000F092FE0120ADF80C002820E0
:101F20008DF80F0003A9164800F054FB0021084665
:101F300000F05FFC0120009000208DF804000820D4
:101F40008DF8050001208DF80600684600F05AFA69
:101F500006208DF8080002208DF809008DF80A008F
:101F600001208DF80B0002A800F0D1F9FFF7A2FFC5
:101F700008B9FFF787FF1FBDA001214214040140EB
:101F8000000801401FB50121052000F057FE022086
:101F9000ADF80C0048208DF80F0003208DF80E00DE
:101FA00003A94A4800F016FB0121002000F021FCA3
:101FB0000220009000208DF804000C208DF8050010
:101FC00001208DF80600684600F01CFA07208DF805
:101FD000080002208DF8090001208DF80A008DF814
:101FE0000B0002A800F093F91FBD10B5002408E013
:101FF000601CC4B2142000F0A2F8FA2C01D12046D3
:1020000010BD334800680028F2D12046F8E770B5CB
:1020100000240025002634E02D480068002830D038
:10202000FFF7E3FF0446FA2C00D12BE0C82C03DBBA
:10203000FA2C01DA012517E0552C0ADBC82C08DA46
:1020400001202449087024480078401C2249087067
:1020500018E0322C03DB552C01DA012604E00A2CAF
:1020600002DB322C00DA00265DB11C48006840001B
:102070001A49086008460068304408600020164984
:102080000870C9E700BF022000F039FA70BD13489C
:102090000068010E11480068C0F3074200200D4B94
:1020A0001870D043C0B281420DD161B90B480068AD
:1020B000C0F3072109480068C2B2D043C0B28142D0
:1020C00001D1084670470020FCE7000000080140ED
:1020D0000401214221000020200000201C000020DB
:1020E00010B504466FF0040000F05EF9E11704EB50
:1020F0005171C9101F4A1170104600784FF47A715F
:102100004843911C088010BD1A4A921C1288424311
:102110004FF0E0235A6100229A6101221A6100BF48
:102120004FF0E022116911F0010F02D011F4803F4D
:10213000F6D000224FF0E0231A619A6170470D4AF1
:10214000127842434FF0E0235A6100229A61012243
:102150001A6100BF4FF0E022116911F0010F02D0A7
:1021600011F4803FF6D000224FF0E0231A619A610B
:10217000704700002200002010B54FF4A06000F06E
:10218000C1F810BD014600BF704700BF494A128820
:1021900012F0400FFAD0C2B2464B1B1D1A80704796
:1021A00010B586B00446012144F2050000F046FD5A
:1021B0004FF40070ADF8140003208DF816001820BD
:1021C0008DF8170005A93C4800F004FA4FF4806030
:1021D000ADF8140004208DF8170005A9364800F06A
:1021E000F9F925208DF8000003208DF801008DF805
:1021F000020001208DF80300684600F088F8019481
:102200000020ADF80800ADF80A00ADF80C00ADF8FC
:1022100010000C20ADF80E0001A9264801F065FC65
:10222000012240F22551234801F0F6FC012121480A
:1022300001F0E6FC06B010BD10B540F225511D4876
:1022400001F0D1FD002834D01A4801F04CFDC4B291
:102250001A48007810F0800F2BD11848007810F041
:10226000400F0CD00A2C03D000201449087020E045
:102270001248007840F080001049087019E00D2CD9
:1022800006D10E48007840F040000C49087010E07C
:102290000A48007800F03F0009490C5407480078CC
:1022A000401C06490870084600783F2801DD0020E0
:1022B000087010BD003801400008014028000020CF
:1022C000440000200948804709480047FEE7FEE730
:1022D000FEE7FEE7FEE7FEE7FEE7FEE7FEE7FEE7D6
:1022E00004480549054A064B70470000B905000837
:1022F000ED000008E8000020E8060020E8020020C9
:10230000E802002032490143324A1160704770B53B
:10231000002100230F22C4780CB32E4C246804F44F
:10232000E064C4F5E064210AC1F10403CA404478C2
:1023300004FA03F18478144021430901264C0678FD
:10234000A155047804F01F050124AC4005786D11F7
:102350004FF0E02606EB8505C5F8004109E004785A
:1023600004F01F040125A5401C4C0678761144F8A2
:10237000265070BD1A4A0A400243164B1B1F1A60B2
:10238000704741B1134A121D126802434FF0E02317
:10239000C3F8102D07E00F4A121D126882434FF058
:1023A000E023C3F8102D7047042808D14FF0E02136
:1023B000096941F004014FF0E022116107E04FF09C
:1023C000E021096921F004014FF0E022116170471A
:1023D0000000FA050CED00E000E400E080E100E020
:1023E00080FFFF1F0020484908604849C1F80404E5
:1023F000454908310860091D0860454842491431C3
:1024000008607047002140498279002A40D03F4A45
:10241000D2F8002403689A433C4BC3F800241A46C0
:10242000D2F8042403689A430B1D1A600279114400
:102430000A6803681A430A60344AD2F80824036819
:102440009A43324BC3F808241A46D2F80C24036886
:102450009A432D4B0C331A604279102A10D12B4A23
:10246000D2F8082403681A43284BC3F808241A46F4
:10247000D2F80C2403681A43244BC3F80C240DE053
:102480002149427911440A6803681A430A6005E049
:10249000027911440A6803689A430A607047002170
:1024A000016001710C214171002181717047164951
:1024B000103109680143154AC2F8101470470146EB
:1024C0000020114A143212680A4201D0012000E0B3
:1024D000002070470C491431086070470146002005
:1024E0000022094B1B6803EA0102084BD3F814349D
:1024F0000B4202D00AB1012000E0002070470249DF
:1025000014310860704700000004014000000140E1
:10251000FFFF0F0010B50446C748844208D10121CF
:10252000042000F0A5FB0021042000F0A1FB46E000
:10253000C248844208D10121082000F099FB002103
:10254000082000F095FB3AE0BD48844208D1012103
:10255000102000F08DFB0021102000F089FB2EE000
:10256000B848844208D10121202000F081FB0021DD
:10257000202000F07DFB22E0B348844208D10121F5
:10258000402000F075FB0021402000F071FB16E0B8
:10259000AE48844208D10121802000F069FB00216F
:1025A000802000F065FB0AE0A948844207D10121A0
:1025B000801500F05DFB0021A01500F059FB10BD57
:1025C00010B50121084600F053FB0021012000F066
:1025D0004FFB10BDF0B5002200230024002500268B
:1025E000002791F803C00CF00F0291F803C01CF013
:1025F000100F03D091F802C04CEA0202B1F800C0FB
:102600001CF0FF0F31D0066800242BE04FF0010CC6
:102610000CFA04F5B1F800C00CEA0503AB4220D176
:10262000A5004FF00F0C0CFA05F7BE4302FA05FCAB
:102630004CEA060691F803C0BCF1280F06D14FF012
:10264000010C0CFA04FCC0F814C00AE091F803C0B5
:10265000BCF1480F05D14FF0010C0CFA04FCC0F896
:1026600010C0641C082CD1D30660B1F800C0BCF1C6
:10267000FF0F34DD466800242EE004F1080C4FF013
:10268000010E0EFA0CF5B1F800C00CEA0503AB42DE
:1026900021D1A5004FF00F0C0CFA05F7BE4302FA4A
:1026A00005FC4CEA060691F803C0BCF1280F05D1E1
:1026B00004F1080C0EFA0CFEC0F814E091F803C007
:1026C000BCF1480F07D104F1080C4FF0010E0EFACF
:1026D0000CFEC0F810E0641C082CCED34660F0BDA0
:1026E0004FF6FF710180022181700421C170704793
:1026F0000246002093680B4201D0012000E0002038
:1027000070470146886880B2704702460020D3684F
:102710000B4201D0012000E0002070470146C8684C
:1027200080B2704701617047416170470AB1016131
:1027300000E041617047C16070474FF480320A4346
:102740008261816182618269826970470022414BA6
:102750001A684FF680731A4042EA00120A433D4B52
:102760001A6070473C49C8617047F0B500220023E9
:102770000024002500F00046B6F1004F02D1354E8E
:10278000F46901E0334E7468C0F3034582B200F48B
:102790004016B6F5401F08D124F070642D4E7668BF
:1027A00026F070662B4F7E6012E000F48016B6F5BE
:1027B000801F06D1032606FA05F39C4344F070649B
:1027C00006E0460D360102FA06F6B44344F07064A2
:1027D00021B1460D360102FA06F6344300F00046F8
:1027E000B6F1004F02D11B4EF46101E0194E746046
:1027F000F0BD30B500228B071C0F0F2303FA04F243
:10280000144B08338C1053F8244094438D1043F834
:1028100025408C1053F824308C07240F00FA04F460
:1028200023430C4C08348D1044F8253030BD0A4940
:10283000DC3108607047000000080140000C0140D6
:10284000001001400014014000180140001C01402C
:102850000020014000000140000020420E490860B5
:1028600070470D49486070470B49886070474AF6C9
:10287000AA200949086070474CF6CC400649086018
:10288000704701460020044AD2680A4201D0012064
:1028900000E00020704700000030004010B501212A
:1028A000080700F0F2F900214FF0805000F0EDF938
:1028B00010BD2C49086270472A4908617047002101
:1028C000294A116821F0E001014311607047254950
:1028D000A0310860704710B50022234B1A6822F01F
:1028E000030202431A60214B1B6843F004034FF0BC
:1028F000E024C4F8103D012901D130BF00E020BF21
:102900001A4B1B6823F004034FF0E024C4F8103D79
:1029100010BD1548006840F00400134908600846DF
:10292000006840F0020008601048006840F00400B1
:102930004FF0E021C1F8100D00BF00BF30BF70475D
:1029400001460020084A52680A4201D0012000E0F6
:10295000002070470449096841EA8001024A116079
:102960007047000000000E420070004010ED00E0D3
:10297000DB48006840F00100D9490860084640681B
:10298000D8490840D649486008460068D6490840FA
:10299000D34908600846006820F480200860084693
:1029A000406820F4FE0048604FF41F0088607047C4
:1029B000CB49096821F48031C94A11601146096880
:1029C00021F480211160B0F5803F03D0B0F5802F55
:1029D0000ED106E0C249096841F48031C04A116055
:1029E00007E0BF49096841F4A021BD4A116000E039
:1029F00000BF00BF704710B5014600220023002031
:102A00004A11012A02D1B64C236806E0022A02D1FB
:102A1000B34C236A01E0B24C636A01F01F02012447
:102A200094401C4201D0012000E0002010BD70B590
:102A300000240025002600BF3120FFF7DCFF0646FA
:102A4000641CB4F5A06F01D0002EF5D03120FFF743
:102A5000D2FF08B1012500E00025284670BD002105
:102A60009F4A116821F0F80141EAC00111607047E6
:102A70009E49086070470022994B5A6822F47C12E4
:102A800040EA01031A43964B5A607047974908661B
:102A900070470021924A516821F0030101435160BF
:102AA00070478F48406800F00C00704700218C4A46
:102AB000516821F0F0010143516070470021884ABC
:102AC000516821F4E0610143516070470021844A5C
:102AD000516821F4605141EAC0015160704729B149
:102AE0007F4A527A02437E4B5A7206E07C4A527AFF
:102AF000C343DBB21A407A4B5A7270477B49D831D4
:102B0000086070470021764A516821F44041014332
:102B1000516070470021724A20321170704A82F869
:102B20002010012802D004280AD104E001216C4AB7
:102B30002032117005E00521694A2032117000E051
:102B400000BF00BF70476A49086070476449096A5E
:102B50000143634A11627047654944390860704710
:102B600030B500210022002300245D4D6D6805F082
:102B70000C0121B1042905D0082923D105E05D4DC0
:102B8000056022E05B4D05601FE0554D6D6805F462
:102B90007012534D6D6805F48033022505EB9242A7
:102BA0001BB9554D554305600BE04D4D6D6815F44F
:102BB000003F03D0504D5543056002E04D4D554355
:102BC000056002E04B4D056000BF00BF444D6D68DD
:102BD00005F0F0010909494D6C5C0568E540456068
:102BE0003F4D6D6805F4E061090A444D6C5C456831
:102BF000E54085603A4D6D6805F46051C90A3F4D66
:102C00006C5C4568E540C560354D6D6805F4404134
:102C1000890B3A4D10356C5CC568B5FBF4F5056160
:102C200030BD29B12E4A526902432D4B5A6104E04E
:102C30002B4A526982432A4B5A61704729B1284A6C
:102C400092690243264B9A6104E0254A92698243C5
:102C5000234B9A61704729B1214AD2690243204B24
:102C6000DA6104E01E4AD26982431D4BDA61704783
:102C700029B11B4AD2680243194BDA6004E0184AB2
:102C8000D2688243164BDA60704729B1144A126940
:102C90000243134B1A6104E0114A12698243104B3C
:102CA0001A61704712494039086070470F49C8647B
:102CB00070470B49C87170470948406A40F08070FE
:102CC00007494862704701460020054A92680A4257
:102CD00001D0012000E00020704701498872704750
:102CE000001002400000FFF8FFFFF6FE0000424225
:102CF0008004424200127A0000093D0030000020AA
:102D000010B50446FF48844208D10121C014FFF7E2
:102D1000AFFF0021E014FFF7ABFFC4E0B4F1804F38
:102D200008D101210846FFF7B0FF00210120FFF77D
:102D3000ACFFB8E0F448844208D101210220FFF73B
:102D4000A4FF00210220FFF7A0FFACE0EF4884427F
:102D500008D101210420FFF798FF00210420FFF78C
:102D600094FFA0E0EA48844208D101210820FFF73F
:102D70008CFF00210820FFF788FF94E0E54884429B
:102D800008D101211020FFF780FF00211020FFF75C
:102D90007CFF88E0E048844208D101212020FFF731
:102DA00074FF00212020FFF770FF7CE0DB488442A5
:102DB00008D101214014FFF75BFF00216014FFF7E9
:102DC00057FF70E0D648844209D10121C804FFF7BB
:102DD0004FFF00214FF40020FFF74AFF63E0D14886
:102DE000844209D101210805FFF742FF00214FF479
:102DF0008010FFF73DFF56E0CB48844209D1012106
:102E00004805FFF735FF00214FF40010FFF730FFB2
:102E100049E0C648844208D101214020FFF735FF30
:102E200000214020FFF731FF3DE0C148844208D136
:102E300001218020FFF729FF00218020FFF725FFD7
:102E400031E0BC48844208D101218015FFF71DFF05
:102E50000021A015FFF719FF25E0B748844209D1EA
:102E600001210804FFF704FF00214FF48030FFF731
:102E7000FFFE18E0B148844209D101214804FFF760
:102E8000F7FE00214FF40030FFF7F2FE0BE0AC48F4
:102E9000844208D101218804FFF7EAFE00214FF4A3
:102EA0008020FFF7E5FE10BD00220288954B984276
:102EB0000ED09A4B98420BD0B0F1804F08D0924B75
:102EC000984205D0914B984202D0914B984204D140
:102ED0004FF68F731A404B881A438E4B984207D097
:102EE0008D4B984204D04FF6FF431A40CB881A43CB
:102EF00002808B8883850B880385824B98420BD098
:102F0000864B984208D08C4B984205D08B4B984208
:102F100002D08B4B984201D10B7A03860123838226
:102F2000704770B5002200230024058C4FF6FE7612
:102F300035400584038C8488028B4FF68F752A40B8
:102F4000B51E2A400D882A43751E2B400D892B4340
:102F50004D882B436B4DA8420BD0704DA84208D032
:102F6000754DA84205D0754DA84202D0744DA842B7
:102F700013D14FF6F7752B404D892B434FF6FB7558
:102F80002B408D882B434FF6FF652C404FF6FF55A5
:102F90002C408D892C43CD892C4384800283CD889D
:102FA0008586038470BD70B5002200230024058C43
:102FB0004FF6EF7635400584038C8488028B48F603
:102FC000FF752A404FF6FF452A400D882D0642EA3C
:102FD00015424FF6DF752B400D892D0543EA154349
:102FE0004D882D0543EA1543464DA84202D04B4D6E
:102FF000A8421BD14FF67F752B404D892D0543EA22
:1030000015434FF6BF752B408D882D0543EA1543B8
:103010004FF6FF352C404FF2FF752C408D89AD04E3
:1030200044EA1544CD89AD0444EA15448480028302
:10303000CD880587038470BD70B50022002300246D
:10304000058C4FF6FF6635400584038C8488828B9F
:103050004FF68F752A404FF6FC752A400D882A439B
:103060004FF6FF552B400D892D0643EA15434D8839
:103070002D0643EA1543234DA84202D0274DA8420E
:103080001BD14FF2FF752B404D892D0643EA1543A6
:103090004FF6FF352B408D882D0643EA15434EF63B
:1030A000FF752C404DF6FF752C408D892D0544EAA7
:1030B0001544CD892D0544EA154484808283CD884A
:1030C0008587038470BD70B5002200230024058C21
:1030D0004EF6FF7635400584038C8488828B48F653
:1030E000FF752A404FF6FF452A400D882D0642EA1B
:1030F00015424DF6FF752B400D892D0743EA154308
:103100004D881FE0002C01400004004000080040F2
:10311000000C00400010004000140040003401404A
:10312000004C014000500140005401400018004094
:10313000001C0040002000400040014000440140CD
:10314000004801402D0743EA1543F84DA84202D03C
:10315000F74DA84206D14BF6FF752C408D89AD0581
:1031600044EA154484808283CD88A0F840500384CB
:1031700070BD828B4FF2FF331A408283828B0B0625
:1031800042EA134282837047F0B5002400250026EE
:10319000078C4EF6FF7C07EA0C070784848B058CAE
:1031A0000F073E0C40F6FF473C40170644EA174421
:1031B0001F0744EA1744DD4FB8420ED0DC4FB84237
:1031C0000BD0B0F1804F08D0DA4FB84205D0DA4FBB
:1031D000B84202D0D94FB84206D14DF6FF773D40F4
:1031E00046F480573D4305E047F6FF573D4041F424
:1031F00080573D4384830584F0BD828B4FF6F37383
:103200001A408283828B0A4382837047F0B5002480
:1032100000250026078C4FF6FF6C07EA0C07078491
:10322000848B058C0F063E0C4FF60C773C401F0537
:1032300042EA17473C43BD4FB8420ED0BC4FB8429C
:103240000BD0B0F1804F08D0BA4FB84205D0BA4F7A
:10325000B84202D0B94FB84206D14FF6FF573D40B1
:1032600046F480773D4305E04FF2FF573D4041F47F
:1032700080773D4384830584F0BD028B4FF2FF339A
:103280001A400283028B0B0642EA13420283704704
:10329000F0B5002400250026078C4FF6EF7C07EAE6
:1032A0000C070784048B058C0F053E0C40F6FF4786
:1032B0003C401F0744EA1744170644EA17449B4F53
:1032C000B8420ED09A4FB8420BD0B0F1804F08D020
:1032D000984FB84205D0984FB84202D0974FB842A5
:1032E00006D14FF6DF773D4046F010073D4305E03D
:1032F0004FF65F773D4041F010073D43048305845E
:10330000F0BD028B4FF6F3731A400283028B0A431F
:1033100002837047F0B500240025068C4FF6FE7737
:103320003E400684048B058C4FF60C7634401E0517
:1033300042EA164634437D4EB0420ED07C4EB04237
:103340000BD0B0F1804F08D07A4EB04205D07A4E03
:10335000B04202D0794EB04206D14FF6FD763540EC
:1033600041F00106354305E04FF6F576354041F072
:103370000106354304830584F0BD70B504460D464F
:103380006A4884420ED06A4884420BD0B4F1804F20
:1033900008D06848844205D06748844202D0674814
:1033A000844200D100E000BF288850B92B89AA8848
:1033B00069882046FFF7AEFFE9882046FFF7A1FFA6
:1033C00025E0288804280AD12B89AA886988204604
:1033D000FFF75EFFE9882046FFF74FFF17E02888D8
:1033E00008280AD12B89AA8869882046FFF70EFF92
:1033F000E9882046FFF701FF09E02B89AA88698840
:103400002046FFF7C1FEE9882046FFF7B2FE70BDF7
:103410002DE9F04104460D4600260127688808B9C9
:10342000022600E00026A888012801D1022700E03A
:1034300001272888A0B92B89AA8869882046FFF728
:1034400069FFE9882046FFF75CFF2B893A46314641
:103450002046FFF71DFFE9882046FFF70EFF13E027
:103460002B89AA8869882046FFF712FFE988204641
:10347000FFF703FF2B893A4631462046FFF74AFF04
:10348000E9882046FFF73DFFBDE8F0810A884B88B8
:103490001A438B881A43CB881A430B891A434B89EA
:1034A0001A438B891A43A0F8442070474FF6FF71E6
:1034B000818000210180C18041800172704700211C
:1034C000018041808180C180018141818181C181F0
:1034D0007047002101804180012181800021C1804D
:1034E000018170470021018041808180C18001817C
:1034F00041818181704721B1028842F0010202803E
:1035000004E002884FF6FE731A400280704731B122
:10351000B0F8442042F40042A0F8442005E0B0F89E
:103520004420C2F30E02A0F844207047002C014052
:10353000003401400004004000080040000C00403E
:1035400010B51AB183890B43838104E08389CC438E
:10355000A4B22340838110BD8182704741EA0203F7
:10356000A0F84830704710B51AB183890B438381A6
:1035700004E08389CC43A4B22340838110BD018938
:103580004FF6F872114001817047002202894FF610
:103590008F731A400A430281704730B504460D46C6
:1035A00029462046FFF7F1FF208940F007002081DF
:1035B00030BD2DE9F04104460D4616461F46602DEC
:1035C00006D13B46012231462046FFF761FE05E069
:1035D0003B46012231462046FFF79CFE2946204605
:1035E000FFF7D3FF208940F007002081BDE8F0817C
:1035F00030B500240489E4B21D0642EA15450D43A6
:103600002C43048130BD2DE9F04104460D46164699
:10361000984600274346324629462046FFF7E8FFF2
:1036200027894FF6F870074047F007074FF68F706D
:10363000074047F070072781BDE8F081F0B50446E8
:103640000D4616461F463B46324629462046FFF7A2
:10365000CFFF208940F480402081F0BD0185828227
:103660007047002202884FF68F731A400A43028087
:103670007047F0B50024002500260489058B068CD0
:103680004FF6F8773C400C434FF6FC473D4040F284
:1036900001173D434FF6DD773E401F0542EA1747CD
:1036A0003E43048105830684F0BD0022028B4FF661
:1036B0008F731A400A43028370470022028B48F638
:1036C000FF731A400B0642EA13420283704700223E
:1036D000828B4FF68F731A400A4382837047002211
:1036E000828B48F6FF731A400B0642EA134282832C
:1036F000704721B1028842F08002028004E0028813
:103700004FF67F731A400280704721B1828842F0E1
:103710000402828004E082884FF6FB731A408280A4
:10372000704721B1828842F00802828004E08288DA
:103730004FF6F7731A408280704721B1828842F0B9
:103740000102828004E082884FF6FE731A40828074
:1037500070470022028B4FF6F7731A400A43028328
:1037600070470022028B4FF2FF731A400B0642EAA9
:103770001342028370470022828B4FF6F7731A4080
:103780000A43828370470022828B4FF2FF731A40F4
:103790000B0642EA1342828370470022028B4FF6E7
:1037A000FB731A400A43028370470022028B4FF6D4
:1037B000FF331A400B0642EA13420283704700228D
:1037C000828B4FF6FB731A400A43828370470022B4
:1037D000828B4FF6FF331A400B0642EA1342828374
:1037E00070470022028B4FF67F731A400A43028310
:1037F00070470022028BC2F30E020B0642EA13420C
:10380000028370470022828B4FF67F731A400A436F
:10381000828370470022828BC2F30E020B0642EABB
:103820001342828370470022028C4FF6FD731A40C8
:103830000A43028470470022028C4FF6F7731A4045
:103840000A43028470470022028C4FF6DF731A404D
:103850000B0542EA1342028470470022028C4FF6A5
:103860007F731A400B0542EA13420284704700221C
:10387000028C4FF6FF531A400B0642EA13420284B1
:1038800070470022028C4FF2FF731A400B0642EA87
:103890001342028470470022028C4DF6FF731A40D7
:1038A0000B0742EA13420284704730B5002301241B
:1038B0008C40A3B2048CDD43ADB22C400484048C54
:1038C00002FA01F5ADB22C43048430BD30B50023BB
:1038D00004248C40A3B2048CDD43ADB22C4004849C
:1038E000048C02FA01F5ADB22C43048430BD70B5EE
:1038F0000023002403461846183301258D40ACB23E
:10390000058CE643B6B23540058409B1082909D1D2
:1039100003EB61031D6825F070051D601D681543EC
:103920001D600CE00D1FADB203EB65031D6825F4AF
:10393000E0451D601D68160645EA16451D6070BD10
:1039400021B1028842F00202028004E002884FF6B0
:10395000FD731A400280704721B1028842F00402D0
:10396000028004E002884FF6FB731A400280704721
:1039700021B1828842F08002828004E082884FF682
:103980007F731A408280704702884FF6F7731A409F
:10399000028002880A430280704782884FF68F7344
:1039A0001A40828082880A438280704702894FF6DB
:1039B000F8731A40028102890A4302817047028922
:1039C0004FF67F731A40028102890A4302817047D1
:1039D0008184704781857047818670470187704771
:1039E00081877047A0F84010704702884FF6FF4368
:1039F0001A40028002880A43028070470146888E7E
:103A000070470146088F70470146888F704701460E
:103A1000B1F8400070470146888C70470146088D18
:103A2000704702460020138A0B4201D0012000E0BB
:103A300000207047CA430282704730B5024600201A
:103A400000230024158A05EA0103958905EA01048B
:103A500013B10CB1012000E0002030BDCA43028246
:103A60007047000010B50446FB48844209D101218B
:103A70008803FFF7FDF800214FF48040FFF7F8F8C6
:103A800032E0F648844209D101214804FFF7FDF8ED
:103A900000214FF40030FFF7F8F825E0F0488442A9
:103AA00009D101218804FFF7F0F800214FF48020AC
:103AB000FFF7EBF818E0EB48844209D10121C80474
:103AC000FFF7E3F800214FF40020FFF7DEF80BE0EA
:103AD000E548844208D101210805FFF7D6F8002106
:103AE0004FF48010FFF7D1F810BD2DE9F04786B0F4
:103AF00004460D460026002700BFB146B246A889FD
:103B000000B100BFA246268A4CF6FF700640E88846
:103B100006432682A6894EF6F3100640A888298916
:103B20000843698908430643A681A68A4FF6FF40E9
:103B30000640A8890643A68201A8FFF711F854465B
:103B4000C548824501D1049F00E0039FA08910F47D
:103B5000004F08D007EBC70000EB071029684900A9
:103B6000B0FBF1F807E007EBC70000EB071029688E
:103B70008900B0FBF1F86420B8FBF0F006013009D1
:103B8000642101FB1089A08910F4004F09D0322173
:103B900001EBC9006421B0FBF1F000F0070006431F
:103BA00008E0322101EB09106421B0FBF1F000F0D4
:103BB0000F000643268106B0BDE8F0874FF416518A
:103BC000016000218180C18001810C21418100219F
:103BD0008181704710B50022028A4FF2FF031A401C
:103BE0000B884C8823438C882343CC8823431A4377
:103BF000028210BD0021018041808180C180704718
:103C000021B1828942F40052828104E082894DF61A
:103C1000FF731A4082817047F0B50024002500260A
:103C20000023A1F510676A3F00D100BF0346C1F32E
:103C3000421401F01F05012707FA05F6012C01D1F6
:103C40000C3304E0022C01D1103300E014331AB11C
:103C50001F6837431F6002E01F68B7431F60F0BD55
:103C600010B51AB1838A0B43838204E0838ACC4364
:103C7000A4B22340838210BD028A4FF6F0731A402B
:103C80000282028A0A430282704782894FF2FF73DE
:103C90001A40828182890A438281704721B18289D8
:103CA00042F00202828104E082894FF6FD731A40DD
:103CB00082817047028A4FF6DF731A400282028ABD
:103CC0000A430282704721B1028A42F48042028292
:103CD00004E0028A4BF6FF731A4002827047C1F378
:103CE00008028280704701468888C0F30800704748
:103CF000818941F0010181817047028BD2B2028338
:103D0000028B42EA012202837047028B02F47F4257
:103D10000283028B0A430283704721B1828A42F0F8
:103D20002002828204E0828A4FF6DF731A40828288
:103D3000704721B1828A42F01002828204E0828AB6
:103D40004FF6EF731A408282704721B1828A42F0A7
:103D50000802828204E0828A4FF6F7731A40828258
:103D6000704721B1828942F40042828103E0828956
:103D7000C2F30E028281704721B1828A42F400624E
:103D8000828204E0828A4FF2FF731A408282704777
:103D9000828A4FF6FB731A408282828A0A438282A9
:103DA000704721B1828A42F00202828204E0828A54
:103DB0004FF6FD731A408282704702460020B1F52B
:103DC000007F00D100BF13880B4201D0012000E02A
:103DD0000020704701F40072B2F5007F00D100BFEF
:103DE000CA430280704770B50246002300240025B4
:103DF0000020A1F510666A3E00D100BFC1F3421554
:103E000001F01F04012606FA04F4012D02D196895F
:103E1000344006E0022D02D1168A344001E0968A31
:103E200034400B12012606FA03F31688334014B10E
:103E30000BB1012000E0002070BD10B5002200236E
:103E4000A1F510646A3C00D100BF0A12012494401D
:103E5000A3B2DC43048010BD0038014000440040A0
:103E600000480040004C00400050004010B50121C7
:103E7000C802FEF70AFF00214FF40060FEF705FFBD
:103E800010BD0021174A126822F4C0710143164A7E
:103E9000C2F8041C70470021124A126822F07F0108
:103EA00000F07F021143104AC2F8041C7047012041
:103EB0000E490860704700F07F010A4A121F116026
:103EC000704740F08001074A121F11607047054893
:103ED000001D0068C0B2704700200249091D08603B
:103EE00070470000042C004000200040A4800542E0
:103EF000704700000FB4054A054910B503AB79447B
:103F0000029800F0CEF810BC5DF814FB2C000020E5
:103F100089E2FFFF2DE9F04104460E4600202BE028
:103F2000E1682046884748B3252802D0D4E901211A
:103F30001FE0E16820460027884705001ED0A5F154
:103F40004100192802D820354FF40067324629462F
:103F500020462760FCF704F940B1012801D1361D45
:103F6000DEE7F61D26F007060836D9E7D4E9012179
:103F700028469047206A401C2062D1E7206ABDE8AD
:103F8000F081000070B504460D4621461068AFF37D
:103F900000802168090502D5104A7A4402E00F4AE0
:103FA0007A440E32002104F1240306E000F00F06EB
:103FB0004FEA1010965D5E54491C0028F6D1206827
:103FC0000023000704D5702D02D009B1113202235D
:103FD0002046BDE8704000F007B800002A0C000041
:103FE00070477047704770472DE9F0470D4604460B
:103FF0009246994600F124080168880604D5E069D4
:1040000021F01001216000E001200027A84200DD1E
:10401000471BA1697A1902EB0900081AA061206800
:10402000C00602D42046AFF30080002608E0D4E9A1
:1040300001211AF806009047206A401C761C206275
:104040004E45F4DB2068C0060AD52046AFF3008059
:1040500006E0D4E9012130209047206A401C20620C
:10406000381EA7F10107F4DC07E0D4E9012118F8B4
:1040700005009047206A401C2062281EA5F101051A
:10408000F3DC2046AFF3008021680220090600D44B
:104090000120BDE8F087000001694A1C0261087830
:1040A000704710B50C46194690B0CDE90242002287
:1040B0000692044A7A44CDE9042001A8FFF72AFFBA
:1040C00010B010BDE1FFFFFF754600F029F8AE46C5
:1040D00005006946534620F00700854618B020B514
:1040E000FEF7FEF8BDE820404FF000064FF0000755
:1040F0004FF000084FF0000B21F00701AC46ACE890
:10410000C009ACE8C009ACE8C009ACE8C0098D46FC
:1041100070470446AFF300802046FCF735F80000F6
:10412000004870478400002030B504460D460C4816
:104130000088A0F50941893908D121464E20FCF7B5
:104140000BFC29464F20FCF707FC07E02146202006
:10415000FCF702FC29462120FCF7FEFB30BD0000E5
:104160001A00002000000000000000000000000015
:1041700000000404040404040004000000140A0AFB
:104180000000000000000000000014143F140A3F6B
:104190000A0A000000041E1505060C14150F040081
:1041A000000012150D0A142C2A1200000000040A47
:1041B0000A1E151509360000000202010000000069
:1041C000000000000020100808080808081020005F
:1041D000000204080808080808040200000000049F
:1041E000150E0E150400000000000404041F040452
:1041F00004000000000000000000000000020201B6
:1042000000000000001F000000000000000000008F
:10421000000000000002000000100808080404026A
:104220000202010000000E1111111111110E000007
:104230000000040604040404040E000000000E1133
:1042400011080402011F000000000E11100C1010D4
:10425000110E00000000080C0A0A091E08180000D0
:1042600000001F01010F1010110E000000000E09C8
:10427000010F1111110E000000001F0908040404B1
:104280000404000000000E11110E1111110E0000A7
:1042900000000E1111111E10120E0000000000008F
:1042A0000400000000040000000000000004000002
:1042B000000404000020100804020408102000007C
:1042C000000000001F00001F0000000000020408A2
:1042D000102010080402000000000E111108040450
:1042E0000004000000000E111915151D011E00002C
:1042F000000004040C0A0A1E1233000000000F1212
:10430000120E1212120F000000001E110101010115
:10431000110E000000000F1212121212120F0000F4
:1043200000001F120A0E0A02121F000000001F12D6
:104330000A0E0A020207000000001C1201013911D6
:10434000120C000000003312121E12121233000071
:1043500000001F0404040404041F000000003E08C1
:104360000808080808090700000037120A060A0AA8
:10437000123700000000070202020202223F000082
:1043800000001B1B1B1B15151515000000003B1220
:1043900016161A1A1217000000000E111111111131
:1043A000110E000000000F12120E020202070000A0
:1043B00000000E1111111117190E180000000F1234
:1043C000120E0A121237000000001E11010608101A
:1043D000110F000000001F1504040404040E000067
:1043E0000000331212121212120C000000003312DD
:1043F000120A0A0C0404000000001515150E0A0A22
:104400000A0A000000001B0A0A04040A0A1B000032
:1044100000001B0A0A040404040E000000001F0927
:1044200008040402121F0000001C04040404040415
:1044300004041C0000020202040408080810000022
:10444000000E08080808080808080E0000040A0002
:10445000000000000000000000000000000000005C
:104460000000003F00040000000000000000000009
:1044700000000000000C121C123C000000000302AF
:10448000020E1212120E000000000000001C1202A8
:10449000021C000000001810101C1212123C000038
:1044A00000000000000C121E021C00000000380476
:1044B000041E0404041E000000000000003C120C56
:1044C000021E221C00000302020E1212123700000C
:1044D0000000040000060404040E000000000800B0
:1044E000000C08080808080700000302023A0A0E38
:1044F000123700000000070404040404041F000035
:1045000000000000000F1515151500000000000048
:10451000000F12121237000000000000000C1212EF
:10452000120C000000000000000F1212120E020711
:1045300000000000001C1212121C103800000000C5
:10454000001B06020207000000000000001E020C13
:10455000101E000000000004040E040404180000F3
:1045600000000000001B1212123C000000000000BE
:104570000037120A0C040000000000000015150EA0
:104580000A0A000000000000001B0A040A1B0000C9
:10459000000000000037120A0C04040300000000B1
:1045A000001E0804041E000000180808080408087B
:1045B0000808180008080808080808080808080873
:1045C000000604040408040404040600022518007C
:1045D00000000000000000000000000000000000DB
:1045E00000000000000000000000000808080808A3
:1045F000080800001818000000486C241200000091
:1046000000000000000000000000002424247F12AD
:1046100012127F12121200000000081C2A2A0A0C33
:104620001828282A2A1C080800000022251515151C
:104630002A585454542200000000000C1212120A8E
:1046400076252911916E0000000606040300000083
:1046500000000000000000000040201010080808C2
:10466000080808101020400000020408081010106C
:1046700010101008080402000000000008086B1C5D
:104680001C6B080800000000000000000808080873
:104690007F0808080800000000000000000000007B
:1046A00000000000060604030000000000000000F7
:1046B000FE000000000000000000000000000000FC
:1046C000000000000606000000008040402020108E
:1046D00010080804040202000000001824424242AC
:1046E0004242424224180000000000080E08080858
:1046F00008080808083E00000000003C4242422032
:1047000020100804427E00000000003C42422018B5
:1047100020404042221C00000000002030282424B9
:1047200022227E20207800000000007E0202021A71
:1047300026404042221C0000000000382402021AD9
:1047400026424242241800000000007E222210105F
:1047500008080808080800000000003C4242422403
:1047600018244242423C0000000000182442424209
:1047700064584040241C000000000000000018188D
:1047800000000000181800000000000000000008F1
:104790000000000000080804000000402010080489
:1047A00002040810204000000000000000007F000C
:1047B00000007F000000000000000002040810203C
:1047C00040201008040200000000003C4242464025
:1047D00020101000181800000000001C225A555527
:1047E00055552D42221C0000000000080818141422
:1047F000243C224242E700000000001F2222221E29
:1048000022424242221F00000000007C424201017D
:1048100001010142221C00000000001F224242420E
:1048200042424242221F00000000003F4212121E7C
:1048300012120242423F00000000003F4212121ECC
:1048400012120202020700000000003C22220101B5
:1048500001712122221C0000000000E74242424276
:104860007E42424242E700000000003E080808087D
:1048700008080808083E00000000007C1010101016
:10488000101010101010110F0000007722120A0EE5
:104890000A12122222770000000000070202020220
:1048A00002020202427F00000000007736363636F0
:1048B0002A2A2A2A2A6B0000000000E346464A4AB8
:1048C00052525262624700000000001C22414141E6
:1048D00041414141221C00000000003F424242424F
:1048E0003E020202020700000000001C224141417A
:1048F00041414D53321C60000000003F4242423EA5
:104900001212222242C700000000007C4242020430
:1049100018204042423E00000000007F490808087D
:1049200008080808081C0000000000E74242424254
:1049300042424242423C0000000000E74242222440
:1049400024141418080800000000006B4949494964
:104950005555362222220000000000E74224241888
:104960001818242442E700000000007722221414C3
:1049700008080808081C00000000007E2120101014
:1049800008040442423F00000078080808080808AC
:104990000808080808087800000002020404080853
:1049A0000810102020204040001E10101010101081
:1049B0001010101010101E000038440000000000FD
:1049C00000000000000000000000000000000000E7
:1049D00000000000000000FF0006080000000000CA
:1049E0000000000000000000000000000000003C8B
:1049F0004278444242FC0000000000030202021A16
:104A000026424242261A0000000000000000003842
:104A10004402020244380000000000604040407838
:104A20004442424264D80000000000000000003C04
:104A3000427E0202423C0000000000F08808087E2E
:104A400008080808083E0000000000000000007C84
:104A500022221C023C42423C000000030202023AB5
:104A60004642424242E700000000000C0C00000EEB
:104A700008080808083E0000000000303000003838
:104A8000202020202020221E0000000302020272AB
:104A9000120A1612227700000000000E080808080B
:104AA00008080808083E0000000000000000007F21
:104AB0009292929292B70000000000000000003B2A
:104AC0004642424242E70000000000000000003C75
:104AD00042424242423C0000000000000000001B35
:104AE00026424242221E0207000000000000007819
:104AF00044424242447840E0000000000000007759
:104B00004C040404041F0000000000000000007CAE
:104B100042023C40423E0000000000000008083E07
:104B200008080808083000000000000000000063CA
:104B30004242424262DC000000000000000000E748
:104B4000422424140808000000000000000000EBCC
:104B5000494955552222000000000000000000765F
:104B600024181818246E000000000000000000E760
:104B70004224241418080807000000000000007EEA
:104B800022100808447E000000C0202020202010B1
:104B9000202020202020C000101010101010101015
:104BA0001010101010101010000608080808081047
:104BB00008080808080806000C32C20000000000BF
:104BC0000000000000000000303132333435363749
:104BD0003839414243444546403058003031323341
:104BE0003435363738396162636465664030780041
:104BF000104C0008000000204400000028010008BC
:104C0000544C000844000020A406000044010008A1
:104C100000A24A040000000000000000010203049A
:104C20000607080901000000FFFF00000000000067
:104C30000000000000000000000000000000000074
:104C40000000000001020304010203040607080932
:044C5000020406084C
:04000005080000ED02
:00000001FF
