:020000040800F2
:1000000018070020DD380008090500080B05000866
:100010000F05000813050008170500080000000080
:100020000000000000000000000000001B050008A8
:100030001D050008000000001F050008210500083C
:10004000D5070008F7380008F7380008F738000827
:10005000F7380008F7380008471E0008292600086E
:10006000F7380008F7380008F7380008F7380008B4
:10007000F7380008F7380008F7380008F7380008A4
:10008000F7380008F7380008F7380008F738000894
:10009000F7380008F7380008F7380008F738000884
:1000A000F7380008F7380008F7380008F738000874
:1000B000F73800085B080008F7380008F738000830
:1000C000F7380008F7380008F7380008F738000854
:1000D000F738000851380008F7380008F7380008EA
:1000E00083320008F7380008F738000800F002F8FB
:1000F00000F044F80AA090E8000C82448344AAF17E
:100100000107DA4501D100F039F8AFF2090EBAE87B
:100110000F0013F0010F18BFFB1A43F0010318473B
:10012000546D0000746D0000103A24BF78C878C187
:10013000FAD8520724BF30C830C144BF04680C60ED
:10014000704700000023002400250026103A28BF35
:1001500078C1FBD8520728BF30C148BF0B60704739
:10016000642905F01B82782905F050820020704731
:100170001FB5AFF300801FBD10B510BD05F004FB27
:100180001146FFF7F5FF00F007F805F022FBFFF737
:10019000F3FF03F003FB000038B5002500F026FA5A
:1001A000482003F0A9FA03F0F3FA4FF4165003F0D5
:1001B00003FB00F09BFA00F07AFC4FF4784094497E
:1001C000088094A232213C2001F0D4FD94A2462163
:1001D0003C2001F0CFFD96A25A213C2001F0CAFD3F
:1001E00097A26E213C2001F0C5FD00BF02F04AFF3E
:1001F00004462CB995A282213C2001F0BBFD19E0F8
:10020000214696A005F082F998A282213C2001F0B7
:10021000B1FD10230093032322468221942001F094
:1002200027FD9548006808B9012000E000209249A8
:100230000860DBE71F207649088090A296213C20C9
:1002400001F098FD1023009303238F480278962134
:10025000842001F00DFD8DA2AA211E2001F08AFD4F
:100260008CA2BA211E2001F085FD8CA2CA211E207D
:1002700001F080FD84480078032804D189A2DA21A6
:100280001E2001F077FD89A2AA21782001F072FDDD
:1002900088A2BA21782001F06DFD88A2CA217820B9
:1002A00001F068FD78480078032804D185A2DA219E
:1002B000782001F05FFD0024A9E08448007810F068
:1002C000800F76D010238248009302780323AA215E
:1002D000562001F0CDFC10237D4800934278032383
:1002E000BA21562001F0C4FC10237948009382788B
:1002F0000323CA21562001F0BBFC63480078032881
:1003000008D1102372480093C2780323DA215620C3
:1003100001F0AEFC02F09EFE10236E480093B0F98F
:1003200000200523AA21B02001F0A2FC1023694877
:100330000093B0F902200523BA21B02001F098FC07
:1003400051480078032809D1102362480093B0F97E
:1003500004200523CA21B02001F08AFC5D48807981
:1003600010F0010F05D05CA2DA21B02001F002FDEF
:1003700004E05BA2DA21B02001F0FCFC5548807952
:1003800010F0020F05D058A2EA21B02001F0F2FCD3
:1003900004E057A2EA21B02001F0ECFC4D4880793E
:1003A00010F0040F06D054A2FA21B02001F0E2FCB4
:1003B00005E00AE052A2FA21B02001F0DBFC202087
:1003C0004249087003F02BF811E04048007810F023
:1003D000400F0CD0681CC5B220203C490870102387
:1003E000009303232A46EA21742001F041FC601C9B
:1003F000C4B2012003F094F9C82C08D100241E488F
:10040000006808B9012000E000201B49086054E79B
:10041000140000204D696E692053544D33320000A2
:10042000505332204D6F757365205445535400006E
:1004300041544F4D40414C49454E54454B000000FE
:10044000323031302F362F31370000004D6F757349
:100450006520496E6974204F4B2100004552524F70
:10046000525F434F44453A25640A00004572726F5B
:100470007220434F44453A00A00121424D6F7573ED
:10048000652049443A0000001C0000204255465BAC
:10049000305D3A004255465B315D3A004255465B5D
:1004A000325D3A004255465B335D3A005820205099
:1004B0004F533A00592020504F533A005A202050B1
:1004C0004F533A00425554544F4E3A0026000020F4
:1004D000680000201E0000204C454654000000002B
:1004E000202020200000000052494748540000000E
:1004F00020202020200000004D4944444C450000AD
:100500002020202020200000704700BFFEE700BF11
:10051000FEE700BFFEE700BFFEE770477047704789
:100520007047000000200021674A126842F48032C0
:10053000654B1A6000BF644A126802F40031401C27
:1005400011B9B0F5A06FF6D15F4A126812F4003FFE
:1005500001D0012100E00021012942D15B4A12684B
:1005600042F01002594B1A601A46126822F0030238
:100570001A601A46126842F002021A60524A526821
:10058000514B5A601A4652685A601A46526842F4F1
:1005900080625A601A46526822F47C125A601A46E7
:1005A000526842F4E8125A601A46126842F08072A9
:1005B0001A6000BF444A126812F0007FFAD0424A23
:1005C000526822F00302404B5A601A46526842F0C9
:1005D00002025A6000BF3C4A526802F00C02082A2C
:1005E000F9D1704710B5FFF79DFF10BD10B5364823
:1005F000006840F00100344908600846406834490A
:1006000008403149486008460068324908402E4990
:1006100008600846006820F48020086008464068AA
:1006200020F4FE0048604FF41F008860FFF7DAFFF7
:100630004FF000602849086010BD10B5002000216F
:100640000022214B5B6803F00C0020B1042806D087
:10065000082828D107E0214B214C236027E01F4BBD
:100660001F4C236023E0184B5B6803F47011164B9A
:100670005B6803F48032022303EB914122B9194BEA
:100680004B43174C23600DE00F4B5B6813F4003FA6
:1006900004D0144B4B43124C236003E00F4B4B43ED
:1006A0000F4C236003E00D4B0D4C236000BF00BFD7
:1006B000054B5B68C3F303130B4CE05C084B1B68F2
:1006C000C340074C236010BD0010024000200240D0
:1006D0000000FFF8FFFFF6FE08ED00E000127A00D0
:1006E0000000002000093D000400002008B50121A1
:1006F000042003F0AFFD4FF48070ADF8000010202F
:100700008DF8030003208DF8020069460E4803F0BF
:100710006DFA4FF480710C4803F010FB012120208A
:1007200003F098FD0420ADF8000010208DF80300C0
:1007300003208DF802006946044803F057FA0421AB
:10074000024803F0FBFA08BD000801400014014014
:1007500070B504460D4645F2555003F08BFB20461C
:1007600003F08BFB284603F08BFB03F08CFB03F0BC
:100770008FFB70BD10B503F086FB10BD08B50020DF
:100780008DF8000002208DF8010003208DF8020092
:10079000684603F0C8F808BD70B504460D46164615
:1007A0000121C80203F063FD304604F076FE2846BE
:1007B00004F07DFE204604F090FE04F099FEFFF761
:1007C000DDFF04F080FE70BD10B50446204604F045
:1007D00084FE10BD10B57F2004F079FE04F088FE81
:1007E0000448006808B9012000E0002001490860C1
:1007F00010BD0000888122427FB504460D460121CC
:10080000022003F034FD41F28830ADF8080041F6D3
:100810001F40ADF804000020ADF80A00ADF8060056
:1008200001A9174803F04CFE01224121144804F0AD
:1008300093F91D208DF8000000208DF801000320A1
:100840008DF8020001208DF80300684603F06BF874
:1008500001210B4804F05BF97FBD10B50121084868
:1008600004F0F7FB58B10121054804F003FC0548EA
:10087000006808B9012000E000200249086010BDAE
:1008800000040040888122424FF48071FF4A516188
:1008900049005161FE490860802151611161890060
:1008A0001161704710B504460B462046FFF7ECFF78
:1008B0004FF48070F549086140004861F4480360D6
:1008C0008020486108618000086110BD70B5044651
:1008D0002046FFF7D9FF4FF08830ED490C3908600A
:1008E000EC49C1F8040C4FF6FF70E949086088151F
:1008F000E64908614000486140204861052002F057
:100900002AFF4020E1490861E248D0F8080C85B28E
:10091000481508614FF03330DD490C390860091D76
:1009200008604FF6FF70DA490860284670BD00B5D0
:100930002220FFF7A9FF00BD4FF48071D34A116157
:1009400049005161D24908608021516111618900DB
:100950001161704730B5014601F01F04C1F3451322
:10096000CA0AE50205EB43151544A8B230BD70B5BF
:1009700004460D46F02C02DAB5F5A07F01DB00201D
:1009800070BD2946204604F02BFF2220FFF77CFF94
:100990004FF08830BE490C390860BE49C1F8040CDC
:1009A0004FF6FF70BA4908608815B84908614000E1
:1009B0004861402048610861022002F0CCFE4020DE
:1009C000B2494861022002F0C6FE4020AF490861EA
:1009D000B048D0F8080C86B2481508614FF03330A3
:1009E000AB490C390860091D08604FF6FF70A94932
:1009F000C1F80C0CA8480088A0F58A4131390BD009
:100A0000A5480088A0F50941893905D0A248008889
:100A1000A0F53541053901D13046B1E73046FFF741
:100A200099FFADE700B540F273110720FFF73AFFD9
:100A300000BD00B500210720FFF734FF00BD70B5F1
:100A400004460D462946204604F0CAFE2220FFF740
:100A50001BFF4FF480708D490861400048618F484A
:100A600000888B49086080208849486108618000BF
:100A7000086170BD70B5054600240021084604F0E9
:100A8000AFFEFFF754FF00BF0DE04FF480707F49C9
:100A90000861400048617E48056080204861086127
:100AA00080000861641CB4F5963FEED370BD08B5B4
:100AB0000121192003F0CEFB0121794803F061F9EF
:100AC0004FF4F860ADF8000010208DF8030003200B
:100AD0008DF8020069466D4803F088F84FF4F8611C
:100AE0006A4803F02BF94FF6FF70ADF80000694635
:100AF00067480C3803F07AF84FF6FF7164480C38F9
:100B000003F01CF9322002F00BFE01210020FFF758
:100B1000C9FE322002F004FE0020FFF7D7FE5E4936
:100B20000880084601885FA004F0F0FC5A4800885D
:100B3000A0F51341253905D057480088A0F5134189
:100B400028397ED141F28F01EC20FFF7ABFE41F254
:100B50003421EF20FFF7A6FE4FF480710120FFF74C
:100B6000A1FE4FF4E0610220FFF79CFE4FF480717C
:100B70000120FFF797FE4FF4E0610220FFF792FE9D
:100B800041F230010320FFF78DFE00210420FFF722
:100B900089FE40F207210820FFF784FE002109208A
:100BA000FFF780FE00210A20FFF77CFE01210C20C8
:100BB000FFF778FE00210D20FFF774FE00210F20C3
:100BC000FFF770FE00211020FFF76CFE07211120B7
:100BD000FFF768FE00211220FFF764FE00211320BA
:100BE000FFF760FE322002F09BFD41F29051102091
:100BF000FFF758FE40F227211120FFF753FE322065
:100C000002F08EFD9C211220FFF74CFE322002F0F4
:100C100087FD4FF4C8511320FFF744FE23212920FC
:100C2000FFF740FE0E212B20FFF73CFE322002F0A2
:100C300077FD00212020FFF735FE40F23F112120F3
:100C400000E08DE0FFF72EFE322002F069FD072163
:100C50003020FFF727FE40F207713120FFF722FE18
:100C600006213220FFF71EFE40F204713520FFF707
:100C700019FE41F604713620FFF714FE04213720D7
:100C8000FFF710FE0021382012E0000000100140A4
:100C90000C0C01400000014018000020140000204E
:100CA00000023000204C43442049443A25780A0091
:100CB000FFF7F8FD40F206713920FFF7F3FD40F22F
:100CC00001713C20FFF7EEFD0F213D20FFF7EAFD0B
:100CD000322002F025FD00215020FFF7E3FDEF2137
:100CE0005120FFF7DFFD00215220FFF7DBFD40F22E
:100CF0003F115320FFF7D6FD4FF427416020FFF747
:100D0000D1FD01216120FFF7CDFD00216A20FFF711
:100D1000C9FD00218020FFF7C5FD00218120FFF7DC
:100D2000C1FD00218220FFF7BDFD00218320FFF7D8
:100D3000B9FD00218420FFF7B5FD00218520FFF7D4
:100D4000B1FD10219020FFF7ADFD4FF4C06192205E
:100D5000FFF7A8FD40F233110720FFF7A3FD7FE264
:100D6000FF480088A0F51341203904D0FC480088D2
:100D7000B0F5134F7ED100210846FFF793FD4FF4E5
:100D800080710120FFF78EFD4FF4E0610220FFF734
:100D900089FD41F230010320FFF784FD002104208A
:100DA000FFF780FD40F202210820FFF77BFD0021C4
:100DB0000920FFF777FD00210A20FFF773FD0121CD
:100DC0000C20FFF76FFD00210D20FFF76BFD0021C8
:100DD0000F20FFF767FD322002F0A2FC40F2011164
:100DE0000720FFF75FFD322002F09AFC4FF4865196
:100DF0001020FFF757FD07211120FFF753FD4FF497
:100E000088711220FFF74EFD4FF430611320FFF779
:100E100049FD00212920FFF745FD44F210012B2058
:100E2000FFF740FD00215020FFF73CFDEF2151204E
:100E3000FFF738FD00215220FFF734FD40F23F114B
:100E40005320FFF72FFD4FF41C516020FFF72AFDC0
:100E500001216120FFF726FD00216A20FFF722FD16
:100E600000218020FFF71EFD00218120FFF71AFDE1
:100E7000002100E02DE08220FFF714FD00218320F7
:100E8000FFF710FD00218420FFF70CFD00218520D5
:100E9000FFF708FD10219020FFF704FD00219220AC
:100EA000FFF700FD01219320FFF7FCFC4FF4887150
:100EB0009520FFF7F7FC00219720FFF7F3FC0021B6
:100EC0009820FFF7EFFC40F273110720FFF7EAFCD0
:100ED00045E7A3480088A0F5A84108397ED14FF422
:100EE00080710120FFF7DEFC4FF4E0610220FFF784
:100EF000D9FC41F230010320FFF7D4FC002104208B
:100F0000FFF7D0FC40F207210820FFF7CBFC0021BF
:100F10000920FFF7C7FC00210A20FFF7C3FC0021CE
:100F20000C20FFF7BFFC00210D20FFF7BBFC0021C8
:100F30000F20FFF7B7FC142002F0F2FB41F2B06182
:100F40001020FFF7AFFC01211120FFF7ABFC0121BE
:100F50001720FFF7A7FC4FF49C711220FFF7A2FCAB
:100F60004FF400611320FFF79DFC09212920FFF7B2
:100F700099FC09212A20FFF795FC0021A420FFF706
:100F800091FC00215020FFF78DFCEF215120FFF74D
:100F900089FC00215220FFF785FC40F23F115320CD
:100FA000FFF780FC4FF41C516020FFF77BFC012110
:100FB0006120FFF777FC00216A20FFF773FC002116
:100FC0008020FFF76FFC00218120FFF76BFC0021E0
:100FD0008220FFF767FC0021832000E023E0FFF779
:100FE00061FC00218420FFF75DFC00218520FFF7D4
:100FF00059FC13219020FFF755FC00219220FFF7A8
:1010000051FC03219320FFF74DFC4FF4887195208C
:10101000FFF748FC40F273110720FFF743FC322032
:1010200002F07EFB9BE64E480088A0F5A8510539EA
:101030007ED10720FFF736FC322002F071FB4FF41F
:101040008E711220FFF72EFC0121A420FFF72AFC4D
:101050000F210820FFF726FC08210A20FFF722FCB9
:1010600008210D20FFF71EFC40F207713020FFF72A
:1010700019FC07213120FFF715FC40F203613220F3
:10108000FFF710FC4FF4E0613320FFF70BFC40F258
:1010900002213420FFF706FC02213520FFF702FC75
:1010A00041F60F713620FFF7FDFB40F20771372044
:1010B000FFF7F8FB00213820FFF7F4FB002139206F
:1010C000FFF7F0FB40F207713A20FFF7EBFB00213E
:1010D0003B20FFF7E7FB07213C20FFF7E3FB002164
:1010E0003D20FFF7DFFB322002F01AFB0121072031
:1010F000FFF7D8FB01211720FFF7D4FB322002F0C5
:101100000FFB4FF4BD511020FFF7CCFB40F217212D
:101110001120FFF7C7FB4FF48F711220FFF7C2FBBE
:101120004FF470611320FFF7BDFB00212A2000E07F
:1011300097E0FFF7B7FB0A212920FFF7B3FB4FF435
:101140009F711220FFF7AEFB00215020FFF7AAFB92
:10115000EF215120FFF7A6FB0021522002E0000002
:1011600018000020FFF79EFB40F23F115320FFF7CD
:1011700099FB4FF41C516020FFF794FB0121612083
:10118000FFF790FB00216A20FFF78CFB00218020F5
:10119000FFF788FB00218120FFF784FB00218220DC
:1011A000FFF780FB00218320FFF77CFB00218420D8
:1011B000FFF778FB00218520FFF774FB13219020B7
:1011C000FFF770FB4FF440719220FFF76BFB052196
:1011D0009320FFF767FB00219520FFF763FB0021B9
:1011E0009720FFF75FFB00219820FFF75BFB4FF490
:1011F00080710120FFF756FB4FF4E0610220FFF7FA
:1012000051FB41F230010320FFF74CFB0021042089
:10121000FFF748FB00210C20FFF744FB00210F20C3
:10122000FFF740FB00212020FFF73CFB002121209D
:10123000FFF738FB21210720FFF734FB142002F0D1
:101240006FFA61210720FFF72DFB142002F068FAE6
:1012500040F273110720FFF725FB142002F060FA1B
:1012600045E3FF480088A0F5354105397DD10846A2
:10127000FFF718FB00210846FFF714FB0021084682
:10128000FFF710FB00210846FFF70CFB0121A4200B
:10129000FFF708FB142002F043FA4FF41C516020C2
:1012A000FFF700FB40F202210820FFF7FBFA4FF4A2
:1012B00005713020FFF7F6FA43F215713120FFF780
:1012C000F1FA40F204613220FFF7ECFA40F61661C1
:1012D0003320FFF7E7FA42F211213420FFF7E2FA58
:1012E0004FF4A8513520FFF7DDFA48F207513620B8
:1012F000FFF7D8FA41F207413720FFF7D3FA41F25E
:1013000003413820FFF7CEFA20213920FFF7CAFA2F
:101310001A219020FFF7C6FA00211020FFF7C2FA29
:1013200007211120FFF7BEFA00211220FFF7BAFAB9
:1013300000211320FFF7B6FA142002F0F1F94FF460
:10134000E6611020FFF7AEFA40F237111120FFF7E7
:10135000A9FA142002F0E4F94FF4DC711220FFF72F
:10136000A1FA142002F0DCF900E083E04FF4706190
:101370001320FFF797FA80212A20FFF793FA4821DC
:101380002920FFF78FFA142002F0CAF94FF4807178
:101390000120FFF787FA4FF4E0610220FFF782FA9D
:1013A00041F230210320FFF77DFA40F202210820AC
:1013B000FFF778FA00210A20FFF774FA00210C20C9
:1013C000FFF770FA00210D20FFF76CFA30210E2094
:1013D000FFF768FA00215020FFF764FAEF2151204F
:1013E000FFF760FA00215220FFF75CFA40F23F114C
:1013F0005320FFF757FA4FF41C516020FFF752FAC1
:1014000001216120FFF74EFA00216A20FFF74AFA16
:1014100011219020FFF746FA4FF4C0619220FFF7A8
:1014200041FA40F202419320FFF73CFA0221942056
:10143000FFF738FA142002F073F901210720FFF7B3
:1014400031FA142002F06CF961210720FFF72AFA23
:1014500040F273110720FFF725FA00212020FFF743
:1014600021FA00212120FFF71DFA22210020FFF799
:1014700019FA3CE27A480088A0F5094189397DD102
:1014800001210020FFF70EFA4AF6A4010320FFF71E
:1014900009FA00210C20FFF705FA40F60C010D2097
:1014A000FFF700FA4FF42C510E20FFF7FBF9B021A3
:1014B0001E20FFF7F7F942F63F310120FFF7F2F95E
:1014C0004FF4C0610220FFF7EDF900211020FFF773
:1014D000E9F946F270011120FFF7E4F90021052037
:1014E000FFF7E0F900210620FFF7DCF94EF61C714A
:1014F0001620FFF7D7F903211720FFF7D3F940F2A1
:1015000033210720FFF7CEF900210B20FFF7CAF99E
:1015100000210F20FFF7C6F900214120FFF7C2F993
:1015200000214220FFF7BEF900214820FFF7BAF959
:1015300040F23F114920FFF7B5F900214A20FFF79B
:10154000B1F900214B20FFF7ADF94FF46F41442072
:10155000FFF7A8F900214520FFF7A4F940F23F1159
:101560004620FFF79FF940F207713020FFF79AF904
:101570004FF401713120FFF795F900E03DE04FF4A1
:1015800001713220FFF78EF940F202513320FFF74C
:1015900089F940F207513420FFF784F94FF40171C3
:1015A0003520FFF77FF94FF401713620FFF77AF904
:1015B00040F202513720FFF775F940F202313A202C
:1015C000FFF770F940F202313B20FFF76BF9002181
:1015D0002320FFF767F900212420FFF763F94FF478
:1015E00000412520FFF75EF900214F20FFF75AF94F
:1015F00000214E20FFF756F979E119480088A0F53F
:101600008A4131397ED101210020FFF74BF90A20B0
:1016100002F086F841F228611020FFF743F90E210D
:101620001220FFF73FF940F639211320FFF73AF96E
:101630000A2002F075F840211120FFF733F95021FC
:101640001520FFF72FF90A2002F06AF81E21122058
:10165000FFF728F90A2002F063F84FF4B15101E0D6
:10166000180000201020FFF71DF942F63921132041
:10167000FFF718F90A2002F053F84FF480710120A7
:10168000FFF710F94FF440710220FFF70BF941F218
:1016900030010320FFF706F940F202210820FFF78E
:1016A00001F908210A20FFF7FDF800213020FFF79B
:1016B000F9F840F202413120FFF7F4F84FF483715A
:1016C0003220FFF7EFF840F203513320FFF7EAF83A
:1016D0004FF482713420FFF7E5F840F201313520F4
:1016E000FFF7E0F840F207713620FFF7DBF840F231
:1016F00005313720FFF7D6F84FF402713820FFF795
:10170000D1F800E03EE040F60B713920FFF7CAF84F
:1017100002214120FFF7C6F84FF41C516020FFF76B
:10172000C1F801216120FFF7BDF84FF4047190204A
:10173000FFF7B8F84FF485719220FFF7B3F8042152
:101740009320FFF7AFF84FF48071A020FFF7AAF8BD
:1017500001210720FFF7A6F821210720FFF7A2F8B3
:1017600023210720FFF79EF833210720FFF79AF87F
:1017700040F233110720FFF795F80021A020FFF772
:1017800091F8B4E0F9480088A0F58A413539F8D1DC
:1017900030211520FFF786F810219A20FFF782F8F4
:1017A00020211120FFF77EF843F228411020FFF797
:1017B00079F802211220FFF775F841F23801132061
:1017C000FFF770F8282001F0ABFF12210846FFF761
:1017D00069F8282001F0A4FF43F220411020FFF710
:1017E00061F843F238011320FFF75CF8462001F05E
:1017F00097FF00213020FFF755F840F202413120D9
:10180000FFF750F840F207313220FFF74BF84FF462
:1018100041713320FFF746F804213420FFF742F8E6
:1018200040F201413520FFF73DF840F207713620C4
:10183000FFF738F840F205313720FFF733F84FF45F
:10184000C2613820FFF72EF84FF4C2613920FFF74C
:1018500029F84FF480710120FFF724F84FF440710C
:101860000220FFF71FF841F230010320FFF71AF8BA
:1018700040F608010820FFF715F808210A20FFF7B5
:1018800011F84FF41C516020FFF70CF80121612082
:10189000FFF708F84FF49F719020FFF703F84FF41B
:1018A00080719220FEF7FEFF4FF480719320FEF7C7
:1018B000F9FF4FF44051A020FEF7F4FF1021A320C0
:1018C000FEF7F0FF01210720FEF7ECFF21210720A2
:1018D000FEF7E8FF23210720FEF7E4FF332107206E
:1018E000FEF7E0FF40F233110720FEF7DBFF012097
:1018F0009F4908604FF6FF70FFF7BCF808BD2DE95F
:10190000F05F04460D4616461F46DDF828804FF06E
:10191000000B301B401C1FFA80FBA94620E0494603
:10192000204603F05DFFFFF702F84FF0000A11E0D8
:101930004FF480708F490861400048618E48C0F8BC
:101940000C8C802048610861800008610AF1010068
:101950001FFA80FADA45EBDB09F101001FFA80F982
:10196000B945DCDDBDE8F09F2DE9FF4F85B00446A9
:101970000D461646002004900390A6EB0408089834
:10198000A0EB0509A3460095B8F1000F02DD012088
:1019900001900AE0B8F1000F02D10020019004E0AC
:1019A0004FF0FF300190C8F10008B9F1000F02DDDF
:1019B0004FF0010A09E0B9F1000F02D14FF0000A1F
:1019C00003E04FF0FF3AC9F10009C84502DDCDF848
:1019D000088001E0CDF80890002722E0009881B24D
:1019E0001FFA8BF0FFF72BF80498404404900398FB
:1019F0004844039002990498884205DD04990298AE
:101A0000081A049001988344DDE90210884206DD3B
:101A1000DDE90210401A0390009850440090781CB1
:101A200087B20298401C8742D8DD09B0BDE8F08F2C
:101A30002DE9F04104460D4616461F462B46324618
:101A400029462046FFF790FF3B462246294620467E
:101A5000FFF78AFF3B46324639462046FFF784FFB0
:101A60003B46324629463046FFF77EFFBDE8F0810F
:101A70002DE9F04704460D4616460027B0460320E0
:101A8000A0EB460954E0EA1B91B2A4EB080290B225
:101A9000FEF7D5FFEA1B91B204EB080290B2FEF705
:101AA000CEFF05EB080291B2E21B90B2FEF7C7FF32
:101AB000EA1B91B2A4EB080290B2FEF7C0FFA5EBBF
:101AC000080291B2E21B90B2FEF7B9FFEA1991B297
:101AD00004EB080290B2FEF7B2FFA5EB080291B248
:101AE000E21990B2FEF7ABFF05EB080291B2E219E2
:101AF00090B2FEF7A4FFEA1991B2A4EB080290B2EB
:101B0000FEF79DFF7F1CB9F1000F03DAB800801DBE
:101B1000814406E0A7EB080080000A308144A8F168
:101B2000010805EB080291B2E21990B2FEF787FFB7
:101B30004745A8DDBDE8F0872DE9F84F04460D467E
:101B400016461F46A3460D4800880090E82C02DC8C
:101B5000B5F59C7F01DDBDE8F88FA6F12000C6B287
:101B60000A98002844D181463FE000001800002078
:101B7000A801224200100140000001401400002092
:101B80000C2F07D106EB46008D4901EB800010F8C1
:101B9000098004E08B4800EB061010F809804FF034
:101BA000000A16E018F0010F03D08749009808805A
:101BB00003E0864800888449088029462046FEF7CD
:101BC0003EFF4FEA6808601C84B20AF1010000F091
:101BD000FF0A07EBD771BAEB610FE3DB5C46681CC9
:101BE00085B209F1010000F0FF09B945C8DB30E01A
:101BF0004FF000092BE00C2F07D106EB460070498F
:101C000001EB800010F8098004E06E4800EB06103C
:101C100010F809804FF0000A10E018F0010F07D00B
:101C200005EB090291B204EB0A0290B2FEF707FF3E
:101C30004FEA68080AF1010000F0FF0A07EBD771CC
:101C4000BAEB610FE9DB09F1010000F0FF09B945CA
:101C5000D1DB5D49009808807DE710B50246012080
:101C600000E050430B00A1F10104E1B2F9D110BD35
:101C70002DE9FF4F81B0044615461E460E9F4FF0DA
:101C8000000AD0463EE0A6EB0800401EC1B20A2082
:101C9000FFF7E3FFB5FBF0F00A21B0FBF1F201FB27
:101CA000120000F0FF09BAF1000F16D1701E404576
:101CB00013DDB9F1000F0ED10023BB4607EBD7713E
:101CC000491001FB084188B200933B46202202994B
:101CD000FFF732FF12E04FF0010A0023BB4607EB8B
:101CE000D771491001FB084188B200933B4609F1C6
:101CF0003001CAB20299FFF71FFF00BF08F10100CF
:101D000000F0FF08B045BEDB05B0BDE8F08F2DE95F
:101D1000F84F04460D4616461F46DDF828804FF062
:101D2000000923E0A7EB0900401EC1B20A20FFF71B
:101D300094FFB6FBF0F00A21B0FBF1F201FB1200B8
:101D400000F0FF0A0B9BC34608EBD871491001FB5A
:101D5000094188B2009343460AF13001CAB22946CC
:101D6000FFF7EAFE09F1010000F0FF09B945D9DBF0
:101D7000BDE8F88FF8B504460D4616461BE0E82C82
:101D800003DD002405F1100085B2B5F59C7F06DD6A
:101D90000020044605464FF6FF70FEF76BFE002359
:101DA00000933278102329462046FFF7C5FE04F140
:101DB000080084B2761C30780028E0D1F8BD00001D
:101DC000E66300085A68000814000020160000208E
:101DD00010B50121042001F0E0FD0121080702F007
:101DE00046FA012002F07FF802F09FF810BD10B50E
:101DF00000214FF4FE7002F047FAFFF7E9FF10BD33
:101E000070B50024002500202E4908601AE02D48F6
:101E1000A038006818B1601CC4B2002508E0681C36
:101E2000C5B2032D04DD012026490860002070BDE5
:101E30001E2001F075FC642C04DB002021490860A1
:101E40000120F4E7E3E710B501201F490860FFF720
:101E5000D7FF08B1FFF7CBFF10BD1FB5012105204B
:101E600002F0F8F90120ADF80C0028208DF80F00E1
:101E700003A9164801F0BAFE0021084601F0C5FF8B
:101E80000120009000208DF8040008208DF8050046
:101E900001208DF80600684601F0C0FD06208DF88F
:101EA000080002208DF809008DF80A0001208DF845
:101EB0000B0002A801F037FDFFF7A2FF08B9FFF7FA
:101EC00087FF1FBDA001214214040140000801400A
:101ED00008B50121102002F0BDF94FF4C050ADF853
:101EE000000010208DF8030003208DF802006946E1
:101EF0008A4801F07BFE0120894908608949C1F8C0
:101F0000AC0108BD10B58548406820F47040834995
:101F100048600846406840F44050486001208049CD
:101F2000091F08607F49C1F8B001042001F013FCCB
:101F300000207B49091F0860042001F00CFC0020F0
:101F40007849C1F8B00110BD10B57448406820F45C
:101F50007040724948600846406840F4405048600C
:101F600000206F4908606F49C1F8AC01042001F0FE
:101F7000F2FB01206A4908606A49C1F8AC010420FB
:101F800001F0E9FB10BD10B500246448406820F45E
:101F90007040624948600846406840F4004048602C
:101FA00001205F49091F086001F0D5FB01205D4950
:101FB000C1F8B00101F0CFFB07E0601CC4B2FA2CFD
:101FC00003DDFFF7C1FF012010BD554884380068CC
:101FD0000028F2D152490860F6E710B500205049B8
:101FE00008604E48406820F470404C4948600846FC
:101FF000406840F44050486000204A49C1F8AC01B4
:10200000022001F0A8FB012045490860022001F0F0
:10201000A2FB00204349C1F8B00110BD10B500205B
:102020003F4908603D48406820F470403B494860A3
:102030000846406840F44050486001203949C1F8E2
:10204000AC01022001F087FB012035490860022025
:1020500001F081FB00203349C1F8B00110BD70B51B
:1020600005462E48406820F470402C4948600846D8
:10207000406840F44050486000202949086000242E
:1020800017E0E8092649091F08606806050E0220C6
:1020900001F061FB01202349C1F8B001022001F0E9
:1020A0005AFB00201E490860022001F054FB601C0E
:1020B000C4B2082CE5DB70BD70B504460025174896
:1020C000406820F47040154948600846406840F474
:1020D00000404860002616E00020114908600220F8
:1020E00001F039FB01200F49C1F8B0016806050E67
:1020F0000B488438006808B1681CC5B2012001F0A3
:102100002AFB701CC6B2082EE6DB14B9FFF786FF67
:1021100001E0FFF762FF284670BD0000001001409B
:10212000B00122420000224210B5FFF7D1FE10BDDF
:1021300070B504460026FFF7E5FE00BF2546E1170F
:1021400004EB11610912A02202EB4101C8B2FFF7B2
:1021500086FFFFF718FFE11704EB11610912A4EBEA
:102160000121C8B2FFF77BFFFFF70DFFFFF7CAFEA3
:10217000A120FFF774FFFFF706FF0020FFF79CFF89
:102180000646FFF7E1FE304670BD70B504460D46C9
:10219000FFF7B8FE00BF2646E11704EB11610912F4
:1021A000A02202EB4101C8B2FFF759FFFFF7EBFE97
:1021B000E11704EB11610912A4EB0121C8B2FFF78A
:1021C0004EFFFFF7E0FE2846FFF749FFFFF7DBFE73
:1021D000FFF7BAFE0A2001F0A3FA70BD2DE9F04125
:1021E00005460C461646002709E0FA0024FA02F2DA
:1021F000D1B2EA1990B2FFF7C8FF781CC7B2B74254
:10220000F3DBBDE8F0812DE9F04104460D460027DF
:10221000002609E03F026119891B491E88B2FFF7B9
:1022200087FF0744701CC6B2AE42F3DB3846BDE8F8
:10223000F08110B5FF20FFF77BFF0446552C01D13C
:10224000002010BD5521FF20FFF79FFFFF20FFF763
:102250006FFF0446552C01D10020F2E70120F0E782
:1022600070B504460D46164608E02046621C94B23E
:10227000FFF75EFF05F8010B701E86B2002EF4D149
:1022800070BD70B504460E46154606E0317820460E
:10229000FFF77BFF601C84B2761C2800A5F10101CA
:1022A0008DB2F3D170BD0000002100BF15E010F029
:1022B000800F03D00122FB4B1A6002E00022F94B91
:1022C0001A604206100E0022F64B0C3B1A600122E7
:1022D000F54BC3F880214A1CD1B20829E7DB7047CF
:1022E00070B50446002600250020EE490C39086030
:1022F000ED49C1F8B4012046FFF7D6FF062001F0F2
:102300002AFA0120E7490C3908600020E649C1F8A3
:10231000800100BF11E06804050C0020E1490C3980
:1023200008600120E049C1F88001DE488438006877
:1023300008B1681C85B2701CC6B2102EEBDB2D11E3
:102340000120D84928310860284670BD2DE9F041A8
:1023500088B004464FF00008002506E02046FFF74D
:10236000BFFF2DF81500681C85B20F2DF6DB002588
:1023700016E0681C86B20FE03DF815003DF8161017
:10238000884207DD3DF815703DF816002DF8150060
:102390002DF81670701C86B20F2EEDDB681C85B20E
:1023A0000E2DE6DB4FF00008052506E03DF8150090
:1023B00040441FFA80F8681C85B20A2DF6DB052020
:1023C00098FBF0F087B2384608B0BDE8F0812DE9FF
:1023D000F04104460D46B5480078FFF7B7FF0646C2
:1023E000B3480078FFF7B2FF0746642E01DB642F85
:1023F00002DA0020BDE8F08126802F800120F9E775
:102400007FB504460D4602A903A8FFF7E0FF064684
:1024100016B9002004B070BD694601A8FFF7D7FFC8
:1024200006460EB90020F5E7BDF80400BDF80C1013
:10243000884206DCBDF80C10BDF804003230814241
:102440000CDBBDF80C00BDF80410884236DCBDF88A
:102450000410BDF80C00323081422FDABDF80000C4
:10246000BDF80810884206DCBDF80810BDF8000071
:10247000323081420CDBBDF80800BDF80010884204
:102480001CDCBDF80010BDF808003230814215DABE
:10249000BDF80C10BDF80420881800EBD071C1F312
:1024A0004F012180BDF80810BDF80020881800EB0E
:1024B000D071C1F34F0129800120ABE70020A9E7CB
:1024C00038B17C49096841F002017B4AC2F8001426
:1024D00006E07849096821F00201774AC2F8001441
:1024E000704710B500240020FFF7EAFF0020734971
:1024F0000872891D881EFFF783FF04E0601CC4B2C8
:102500000A2001F00DF967488838006808B9FA2CEC
:10251000F4DD0120FFF7D4FFFA2C01DB002010BD11
:102520000120FCE770B504460D46A4F10C0188B209
:102530002B4604F10D022946FFF716FAA5F10C000F
:1025400081B2193083B222462046FFF70DFA681C8B
:1025500081B2601CFEF773FA611E88B2691C89B2F1
:10256000FEF76DFA681E81B2601CFEF768FA6A1EFB
:1025700091B2621E90B2FEF762FA06222946204608
:10258000FFF776FA70BD70B504460D462946204621
:10259000FEF755FA2946601CFEF751FA681C81B215
:1025A0002046FEF74CFA681C81B2601CFEF747FA21
:1025B00070BD2DE9F0414149891D881EFFF720FFBC
:1025C00080B33E49B1F9140003F01CFD06463B49B7
:1025D000888803F030FD07463848C168384603F064
:1025E0002FFD0546314603F02BFB044603F0DEFCCD
:1025F00032490880B1F9160003F004FD06462F4960
:10260000C88803F018FD07462C480169384603F0D6
:1026100017FD0546314603F013FB044603F0C6FCE4
:1026200026494880BDE8F081012024490872022033
:10263000204914310860704770B52049C8682049A6
:1026400003F0FEFC054603F079FC04460422214613
:102650002820FFF7C3FD19490869194903F0F0FC68
:10266000054603F06BFC0446042221462C20FFF7AC
:10267000B5FD1248B0F9141002223020FFF7AEFD6C
:102680000E48B0F9161002223220FFF7A7FD0B48C2
:10269000017E3420FFF779FD0A2421463520FFF71B
:1026A00074FD70BD8C012242000022421A000020FD
:1026B0001B00002000040140000001404C000020ED
:1026C00020BCBE4C70B53520FFF732FD04460A2C05
:1026D00040D104212820FFF796FD0446204603F050
:1026E00091FC0546FF4903F037FBFF49C860042110
:1026F0002C20FFF788FD0446204603F083FC0546A6
:10270000F84903F029FBF849086102213020FFF75E
:102710007AFD00B2F449888202213220FFF773FD6E
:1027200000B2F149C8823420FFF702FDEE49087675
:102730000846007E30B19020EC490870D020EC496A
:10274000087005E0D020E94908709020E849087039
:10275000012070BD0020FCE710B50446E5A2282149
:102760000846FFF707FBE9A23C212820FFF702FB00
:10277000ECA250212820FFF7FDFAF0A264212820C6
:10278000FFF7F8FAEDA264212820FFF7F3FA2246BA
:1027900078212820FFF7EEFA10BD2DE9F04F89B01F
:1027A000002400BF1F20EB4908804FF6FF70EA4964
:1027B0000880FEF75FF94FF47840E64908804FF64D
:1027C000FF70FEF757F914210846FFF7ABFE002013
:1027D000C5490872C860B4E3C348007A01287ED1B5
:1027E000FFF77FFE68B1C048808800B205A921F8D4
:1027F0002400BD48C08800B201EB84014880601C01
:10280000C4B2012C06D0022C0DD0032C15D0042C00
:1028100008D11CE04FF6FF70FEF72CF91421DC20E4
:10282000FFF780FE8BE34FF6FF70FEF723F94FF4BE
:1028300096711420FFF776FE81E34FF6FF70FEF7E6
:1028400019F94FF49671DC20FFF76CFE77E3BDF9C0
:102850001410BDF91820881A01D4014600E0414245
:102860000F46BDF91620BDF91A10501A01D40146C1
:1028700000E0414288467F4308FB08F807EB080068
:1028800003F092F8CDE9020102F0C8FFCDE90001A2
:1028900003F03AF885B2BDF91C10BDF92020881A62
:1028A00001D4014600E041420F46BDF91E20BDF9AA
:1028B0002210501A01D4014600E0414288467F436D
:1028C00008FB08F807EB080003F06EF8CDE90201F9
:1028D00002F0A4FFCDE9000103F016F800E02FE3B9
:1028E00086B2304603F0A7FB8146284603F0A3FBDF
:1028F0008246494603F030FA0490049803F078F9D0
:10290000CDE9000195A00CC8009803F053F80DD351
:10291000049803F06DF9CDE9020192A00CC8029869
:1029200003F080F802D30DB1002E64D100244FF6DD
:10293000FF70FEF79FF814210846FFF7F3FD8BA008
:10294000FFF70AFF10230093BDF914200423282168
:102950004020FFF78DF910230093BDF916200423C2
:1029600028219020FFF784F910230093BDF9182047
:1029700004233C214020FFF77BF910230093BDF98D
:102980001A2004233C219020FFF772F910230093B2
:10299000BDF91C20042350214020FFF769F91023C2
:1029A0000093BDF91E20042350219020FFF760F909
:1029B00010230093BDF92020042364214020FFF759
:1029C00057F910230093BDF922200423642190209D
:1029D000FFF74EF96849049803F032FB824603F092
:1029E000E5FA814610230093032302468C21282018
:1029F000FFF73EF9A5E2BDF91410BDF91C20881AB5
:102A000001D4014600E041420F46BDF91620BDF950
:102A10001E10501A01D4014600E0414288467F430F
:102A200008FB08F807EB080002F0BEFFCDE9020141
:102A300002F0F4FECDE9000102F066FF85B2BDF9B7
:102A40001810BDF92020881A01D4014600E0414247
:102A50000F46BDF91A20BDF92210501A01D40146C3
:102A600000E0414288467F4308FB08F807EB080076
:102A700002F09AFFCDE9020102F0D0FECDE900019B
:102A800002F042FF86B2304603F0D5FA814628466E
:102A900003F0D1FA8246494603F05EF904900498A7
:102AA00003F0A6F8CDE900012CA00CC8009802F0B4
:102AB00081FF0AD3049803F09BF8CDE9020129A015
:102AC0000CC8029802F0AEFF7ED200244FF6FF70D1
:102AD000FDF7D0FF14210846FFF724FD27A0FFF7DC
:102AE0003BFE51E020BCBE4C4C0000201A000020F0
:102AF0001B00002078313A2020202020202079312E
:102B00003A202020202020200000000078323A20A7
:102B100020202020202079323A2020202020202030
:102B20000000000078333A20202020202020793334
:102B30003A202020202020200000000078343A2075
:102B400020202020202079343A20202020202020FE
:102B50000000000014000020160000206666666673
:102B60006666EE3FCDCCCCCCCCCCF03F7665722007
:102B70006661632069733A000000C842686F722082
:102B80006661632069733A0010230093BDF9142035
:102B9000042328214020FFF76BF810230093BDF990
:102BA0001620042328219020FFF762F810230093B9
:102BB000BDF9182004233C214020FFF759F81023C9
:102BC0000093BDF91A2000E039E004233C21902055
:102BD000FFF74EF810230093BDF91C200423502169
:102BE0004020FFF745F810230093BDF91E20042371
:102BF00050219020FFF73CF810230093BDF92020CE
:102C0000042364214020FFF733F810230093BDF91B
:102C10002220042364219020FFF72AF8F549049824
:102C200003F00EFA824603F0C1F9814610230093A7
:102C3000032302468C212820FFF71AF881E1BDF911
:102C40001810BDF91C20881A01D4014600E0414249
:102C50000F46BDF91A20BDF91E10501A01D40146C5
:102C600000E0414288467F4308FB08F807EB080074
:102C700002F09AFECDE9020102F0D0FDCDE900019B
:102C800002F042FE85B2BDF91410BDF92020881A69
:102C900001D4014600E041420F46BDF91620BDF9BE
:102CA0002210501A01D4014600E0414288467F4379
:102CB00008FB08F807EB080002F076FECDE90201F8
:102CC00002F0ACFDCDE9000102F01EFE86B23046F6
:102CD00003F0B1F98146284603F0ADF98246494632
:102CE00003F03AF80490049802F082FFCDE9000165
:102CF000AFF298100CC8009802F05CFE0BD3049859
:102D000002F076FFCDE90201AFF2A8100CC80298DC
:102D100002F088FE64D200244FF6FF70FDF7AAFE91
:102D200014210846FFF7FEFBB3A0FFF715FD1023A3
:102D30000093BDF91420042328214020FEF798FFBA
:102D400010230093BDF91620042328219020FEF7BC
:102D50008FFF10230093BDF9182004233C2140204D
:102D6000FEF786FF10230093BDF91A2004233C21AF
:102D70009020FEF77DFF10230093BDF91C20042353
:102D800050214020FEF774FF10230093BDF91E2050
:102D9000042350219020FEF76BFF10230093BDF910
:102DA0002020042364214020FEF762FF10230093BB
:102DB000BDF92220042364219020FEF759FF8D499C
:102DC000049803F03DF9824603F0F0F881461023A1
:102DD0000093032302468C212820FEF749FFB0E030
:102DE000BDF91810BDF91420881A03F00BF98146BB
:102DF0000146844802F0B0FF8349C860BDF918104D
:102E0000BDF91420881803F0FDF803907E48C168CE
:102E1000039803F015F983467C4903F0BAF982461A
:102E20004FF0804102F098FF814603F087F800B22E
:102E300075498882BDF91E10BDF91620881A03F065
:102E4000E1F881460146724802F086FF6E4908614A
:102E5000BDF91E10BDF91620881803F0D3F80390B1
:102E600069480169039803F0EBF88346694903F068
:102E700090F982464FF0804102F06EFF814603F0E8
:102E80005DF800B26049C882C86803F057F8B0F135
:102E9000000A01DB504601E0CAF1000002280CDC08
:102EA0005949086903F04AF8B0F1000901DB4846C6
:102EB00001E0C9F1000002282ADD00244FF6FF706E
:102EC000FDF7D8FD14210846FFF72CFB52A26E2116
:102ED0002320FEF74FFF4C48007E08B9012000E098
:102EE0000020494908760846007E30B190204F49BD
:102EF0000870D0204E49087005E0D0204B4908707A
:102F000090204B4908704FF4FA7000F009FC18E06B
:102F10001F20484908804FF6FF70FDF7ABFD46A221
:102F20006E212320FEF726FF4FF4FA7000F0F8FB25
:102F30004FF6FF70FDF79EFD09B0BDE8F08F00BFB2
:102F400000BF49E41FB50121112001F083F942F2CD
:102F50000900ADF8080010208DF80B0003208DF853
:102F60000A0002A93A4800F041FE0620ADF8080028
:102F700048208DF80B0002A9354800F037FE2249A1
:102F8000891D881EFFF723FA07208DF80C00022008
:102F90008DF80D0000208DF80E0001208DF80F0037
:102FA00003A800F0C0FC0121084601F053F90121FB
:102FB000022000F02AFF0220009000208DF804007B
:102FC0000C208DF8050001208DF80600684600F001
:102FD00025FDFFF7A9F8FFF775FB00B11FBD4FF600
:102FE000FF70FDF747FDFFF7D8FBFFF725FBFFF765
:102FF00069FBF3E70000C8426469612066616320F1
:1030000069733A00000048434C0000200000704300
:1030100000008C430000A0435450204E656564209E
:10302000726561646A757374210000001A000020E3
:103030001B00002014000020546F75636820536348
:103040007265656E2041646A757374204F4B210070
:10305000001001407048407840B2704908806E48C6
:10306000807840B2488008464088404200B248809C
:103070006948C07840B288806748007800F007004F
:103080008871704710B500F0EDFA4FF4487000F009
:1030900047FB002062490870FF2000F02BFA04462D
:1030A0000CB1012010BD00F0FAF90446FA2C01D051
:1030B0000220F7E7002408E0601CC4B20A2000F0F8
:1030C0002FFB322C01DD0320ECE75548007810F08F
:1030D000800FF1D000F0E3F900F0E1F9F32000F007
:1030E00009FA00F0DCF9FA2801D00420DAE7C82058
:1030F00000F000FA00F0D3F9FA2801D00520D1E75A
:10310000F32000F0F7F900F0CAF9FA2801D0062000
:10311000C8E7642000F0EEF900F0C1F9FA2801D008
:103120000720BFE7F32000F0E5F900F0B8F9FA282E
:1031300001D00820B6E7502000F0DCF900F0AFF92C
:10314000FA2801D00920ADE7F22000F0D3F900F011
:10315000A6F9FA2801D00A20A4E700F0A0F9314925
:103160000870F32000F0C6F900F099F9FA2801D0B0
:103170000B2097E70A2000F0BDF900F090F9FA283B
:1031800001D00C208EE7F22000F0B4F900F087F9AE
:10319000FA2801D00D2085E700F081F92149087057
:1031A000E82000F0A7F900F07AF9FA2801D00E2003
:1031B00078E7032000F09EF900F071F9FA2801D0B9
:1031C0000F206FE7E62000F095F900F068F9FA2883
:1031D00001D0102066E7F32000F08CF900F05FF9D1
:1031E000FA2801D011205DE7282000F083F900F0D3
:1031F00056F9FA2801D0122054E7F42000F07AF9A9
:1032000000F04DF9FA2801D013204BE720200449A3
:103210000870002046E70000680000201E00002023
:10322000260000201C0000204FF40041FD4A1160E0
:1032300040B1FC491439096841F40041FA4AC2F826
:10324000001407E0F7491439096821F40041F64AEF
:10325000C2F80014704700B50020FFF7E5FFF348FF
:10326000006820F07040F049C1F804080846D0F822
:10327000040840F04050ED4908600020EC49086027
:1032800000BD10B54FF4004000F034FC00287ED0A3
:103290004FF4004000F03FFCE648007820B90020E1
:1032A000E5490870491E0870E2480078401CE14971
:1032B000087008460078012819DD084600780A28B9
:1032C00015DADD48401E00784010DB49491E0870C1
:1032D000D74888380068C0B10846007840F08000C0
:1032E0000870481C0078401C491C08700DE0D1484B
:1032F00000780A2809D1CE488838006828B1CE481D
:10330000007840F08000CC490870CA4800780B284B
:103310003DD1C948007800F07F00C64908700A46D0
:10332000117801EBD1725210B1EB420204D1C24AC2
:10333000127812F0800F0DD1BE4A107800EBD072D7
:103340005210A0EB4202012A5AD1BB4A127812F065
:10335000800F55D1B948007800F00F00B5490870CA
:10336000B548401E0078B649B24A12788854B14830
:1033700000780F2804DAB1480078401CAF49087083
:10338000AE48007800F03000AA49087000E045E03F
:103390000846007820B110280BD020282FD109E052
:1033A000FFF759FFA548007840F08000A349087056
:1033B00025E024E0A348007870B9A048007800F028
:1033C0000F0003281AD19D48007840F080009B49E7
:1033D0000870FFF740FF11E09A48007803280DD1EC
:1033E0009648007800F00F00042807D19348007831
:1033F00040F0800091490870FFF72DFF00BF0AE000
:103400008E48007840F040008C49087008460078EB
:1034100000F0F000087000208649087010BD00B56B
:103420008248006820F070407F49C1F804080846CF
:10343000D0F8040840F00040C1F804080846D0F86D
:10344000040820F47000C1F804080846D0F8040805
:1034500040F40000754908600120754908607A4908
:10346000C1F8B401FFF7E0FE00BD70B505460024C9
:103470000DB9012000E00020C5B209E0012000F0F4
:103480006AF9601C84B2B4F57A5F01DD012070BD79
:10349000674880380068A842F0D00020F7E770B590
:1034A0000024002520E0601C84B20A2000F053F9BB
:1034B0006248007810F0800F0CD06048007800F06F
:1034C0000E005F490D5C5D48007800F070005B49BC
:1034D00008700AE041F27C50844204DC57480078CE
:1034E00010F0400F00D000E0DDE700BFFFF797FFCE
:1034F000284670BD70B5044600260020FFF794FEF4
:103500004A48006820F070404749C1F8040808465E
:10351000D0F8040840F04050C1F804080846D0F83C
:10352000040820F47000C1F804080846D0F8040824
:1035300040F440103D49086000204349C1F8BC01F7
:10354000782000F008F900203949083908600A207D
:1035500000F001F93448D0F8040820F070403249F6
:10356000C1F804080846D0F8040840F000402F498C
:10357000086001202E4908600020FFF776FF002830
:1035800068D1002516E014F0010F06D0012028496B
:1035900008390860701CC6B203E0002024490839CD
:1035A000086064100120FFF760FF0020FFF75DFF57
:1035B000681CC5B2082DE6DB06EBD6714910B6EBE8
:1035C000410104D101201A490839086003E00020B4
:1035D0001749083908600120FFF747FF0020FFF76F
:1035E00044FF0120124908390860FFF73EFF0E48EA
:1035F000D0F8040820F470000B49C1F8040808460C
:10360000D0F8040840F40000084908600020FFF7E3
:103610002CFF0D48D0F83401C0B90120FFF725FF79
:103620001CE017E0140401400000014004080140C0
:10363000BC01214227000020290000202600002094
:10364000680000201C00002000002142FFF7E7FE78
:10365000012070BDFFF7E3FE0220FAE7FFF7DFFE6F
:103660000020F6E71FB50121042000F0F3FD012141
:103670001F4800F086FB4FF40040ADF80C004820D6
:103680008DF80F0003208DF80E0003A9194800F0F3
:10369000ADFA4FF40050ADF80C0048208DF80F0043
:1036A00003A9144800F0A2FA0F21002000F0ADFB9E
:1036B0004FF40040009000208DF804000C208DF89D
:1036C000050001208DF80600684600F0A7F92820C3
:1036D0008DF8080001208DF8090002208DF80A00FD
:1036E00001208DF80B0002A800F01DF91FBD00009D
:1036F000000430000008014010B504466FF00400DB
:1037000000F05EF9E11704EB5171C9101F4A117006
:10371000104600784FF47A714843911C088010BD20
:103720001A4A921C128842434FF0E0235A61002249
:103730009A6101221A6100BF4FF0E022116911F075
:10374000010F02D011F4803FF6D000224FF0E023A9
:103750001A619A6170470D4A127842434FF0E02394
:103760005A6100229A6101221A6100BF4FF0E022E3
:10377000116911F0010F02D011F4803FF6D0002240
:103780004FF0E0231A619A61704700002A00002080
:1037900010B54FF4A06000F0C1F810BD014600BFA5
:1037A000704700BF494A128812F0400FFAD0C2B2E7
:1037B000464B1B1D1A80704710B586B00446012188
:1037C00044F2050000F046FD4FF40070ADF814001F
:1037D00003208DF8160018208DF8170005A93C4825
:1037E00000F004FA4FF48060ADF8140004208DF866
:1037F000170005A9364800F0F9F925208DF80000DA
:1038000003208DF801008DF8020001208DF80300DF
:10381000684600F088F801940020ADF80800ADF883
:103820000A00ADF80C00ADF810000C20ADF80E0049
:1038300001A9264801F065FC012240F225512348E8
:1038400001F0F6FC0121214801F0E6FC06B010BDB4
:1038500010B540F225511D4801F0D1FD002834D0AB
:103860001A4801F04CFDC4B21A48007810F0800FDD
:103870002BD11848007810F0400F0CD00A2C03D040
:1038800000201449087020E01248007840F08000C1
:103890001049087019E00D2C06D10E48007840F050
:1038A00040000C49087010E00A48007800F03F0022
:1038B00009490C5407480078401C0649087008461E
:1038C00000783F2801DD0020087010BD003801405D
:1038D000000801403000002078000020094880479F
:1038E00009480047FEE7FEE7FEE7FEE7FEE7FEE7E2
:1038F000FEE7FEE7FEE7FEE704480549054A064BFA
:1039000070470000ED050008ED00000818010020D8
:103910001807002018030020180300203249014333
:10392000324A1160704770B5002100230F22C4781D
:103930000CB32E4C246804F4E064C4F5E064210A5E
:10394000C1F10403CA40447804FA03F184781440B6
:1039500021430901264C0678A155047804F01F057F
:103960000124AC4005786D114FF0E02606EB85058B
:10397000C5F8004109E0047804F01F040125A540C2
:103980001C4C0678761144F8265070BD1A4A0A403D
:103990000243164B1B1F1A60704741B1134A121D98
:1039A000126802434FF0E023C3F8102D07E00F4ADE
:1039B000121D126882434FF0E023C3F8102D7047A8
:1039C000042808D14FF0E021096941F004014FF0CB
:1039D000E022116107E04FF0E021096921F00401C4
:1039E0004FF0E022116170470000FA050CED00E095
:1039F00000E400E080E100E080FFFF1F0020484974
:103A000008604849C1F80404454908310860091DA7
:103A10000860454842491431086070470021404918
:103A20008279002A40D03F4AD2F8002403689A43A2
:103A30003C4BC3F800241A46D2F8042403689A4386
:103A40000B1D1A60027911440A6803681A430A6060
:103A5000344AD2F8082403689A43324BC3F8082446
:103A60001A46D2F80C2403689A432D4B0C331A6083
:103A70004279102A10D12B4AD2F8082403681A433D
:103A8000284BC3F808241A46D2F80C2403681A43BA
:103A9000244BC3F80C240DE02149427911440A68F3
:103AA00003681A430A6005E0027911440A68036852
:103AB0009A430A6070470021016001710C21417135
:103AC0000021817170471649103109680143154A78
:103AD000C2F81014704701460020114A14321268CF
:103AE0000A4201D0012000E0002070470C49143147
:103AF00008607047014600200022094B1B6803EA5A
:103B00000102084BD3F814340B4202D00AB1012051
:103B100000E000207047024914310860704700003F
:103B20000004014000000140FFFF0F0010B50446F3
:103B3000C748844208D10121042000F0A5FB0021E0
:103B4000042000F0A1FB46E0C248844208D10121D4
:103B5000082000F099FB0021082000F095FB3AE0D6
:103B6000BD48844208D10121102000F08DFB0021C6
:103B7000102000F089FB2EE0B848844208D10121D2
:103B8000202000F081FB0021202000F07DFB22E0BE
:103B9000B348844208D10121402000F075FB002188
:103BA000402000F071FB16E0AE48844208D10121AC
:103BB000802000F069FB0021802000F065FB0AE016
:103BC000A948844207D10121801500F05DFB002146
:103BD000A01500F059FB10BD10B50121084600F0FA
:103BE00053FB0021012000F04FFB10BDF0B5002277
:103BF0000023002400250026002791F803C00CF0C4
:103C00000F0291F803C01CF0100F03D091F802C00E
:103C10004CEA0202B1F800C01CF0FF0F31D0066878
:103C200000242BE04FF0010C0CFA04F5B1F800C0B1
:103C30000CEA0503AB4220D1A5004FF00F0C0CFAA3
:103C400005F7BE4302FA05FC4CEA060691F803C0EC
:103C5000BCF1280F06D14FF0010C0CFA04FCC0F89F
:103C600014C00AE091F803C0BCF1480F05D14FF031
:103C7000010C0CFA04FCC0F810C0641C082CD1D351
:103C80000660B1F800C0BCF1FF0F34DD46680024C7
:103C90002EE004F1080C4FF0010E0EFA0CF5B1F80D
:103CA00000C00CEA0503AB4221D1A5004FF00F0C78
:103CB0000CFA05F7BE4302FA05FC4CEA060691F839
:103CC00003C0BCF1280F05D104F1080C0EFA0CFE5C
:103CD000C0F814E091F803C0BCF1480F07D104F11B
:103CE000080C4FF0010E0EFA0CFEC0F810E0641C38
:103CF000082CCED34660F0BD4FF6FF710180022143
:103D000081700421C17070470246002093680B4205
:103D100001D0012000E0002070470146886880B291
:103D2000704702460020D3680B4201D0012000E01A
:103D3000002070470146C86880B270470161704733
:103D4000416170470AB1016100E041617047C160A3
:103D500070474FF480320A438261816182618269D7
:103D6000826970470022414B1A684FF680731A40EF
:103D700042EA00120A433D4B1A6070473C49C86151
:103D80007047F0B5002200230024002500F0004613
:103D9000B6F1004F02D1354EF46901E0334E74683C
:103DA000C0F3034582B200F44016B6F5401F08D1B7
:103DB00024F070642D4E766826F070662B4F7E607E
:103DC00012E000F48016B6F5801F06D1032606FA2D
:103DD00005F39C4344F0706406E0460D360102FA98
:103DE00006F6B44344F0706421B1460D360102FA80
:103DF00006F6344300F00046B6F1004F02D11B4EE8
:103E0000F46101E0194E7460F0BD30B500228B07FB
:103E10001C0F0F2303FA04F2144B08338C1053F8D1
:103E2000244094438D1043F825408C1053F82430DF
:103E30008C07240F00FA04F423430C4C08348D1033
:103E400044F8253030BD0A49DC3108607047000075
:103E500000080140000C0140001001400014014026
:103E600000180140001C01400020014000000140FA
:103E7000000020420E49086070470D4948607047B5
:103E80000B49886070474AF6AA20094908607047C4
:103E90004CF6CC4006490860704701460020044AB1
:103EA000D2680A4201D0012000E0002070470000E3
:103EB0000030004010B50121080700F0F2F90021A0
:103EC0004FF0805000F0EDF910BD2C4908627047AA
:103ED0002A49086170470021294A116821F0E00150
:103EE0000143116070472549A0310860704710B543
:103EF0000022234B1A6822F0030202431A60214B6E
:103F00001B6843F004034FF0E024C4F8103D01297E
:103F100001D130BF00E020BF1A4B1B6823F004031F
:103F20004FF0E024C4F8103D10BD1548006840F083
:103F30000400134908600846006840F00200086069
:103F40001048006840F004004FF0E021C1F8100D67
:103F500000BF00BF30BF704701460020084A5268CA
:103F60000A4201D0012000E000207047044909689E
:103F700041EA8001024A11607047000000000E42D1
:103F80000070004010ED00E0DB48006840F00100E8
:103F9000D949086008464068D8490840D649486071
:103FA00008460068D6490840D349086008460068BA
:103FB00020F4802008600846406820F4FE00486035
:103FC0004FF41F0088607047CB49096821F48031A5
:103FD000C94A11601146096821F480211160B0F5C9
:103FE000803F03D0B0F5802F0ED106E0C2490968AA
:103FF00041F48031C04A116007E0BF49096841F4CB
:10400000A021BD4A116000E000BF00BF704710B59D
:1040100001460022002300204A11012A02D1B64C99
:10402000236806E0022A02D1B34C236A01E0B24CB5
:10403000636A01F01F02012494401C4201D0012058
:1040400000E0002010BD70B500240025002600BF50
:104050003120FFF7DCFF0646641CB4F5A06F01D0E9
:10406000002EF5D03120FFF7D2FF08B1012500E086
:104070000025284670BD00219F4A116821F0F801F3
:1040800041EAC001116070479E49086070470022F4
:10409000994B5A6822F47C1240EA01031A43964B6A
:1040A0005A6070479749086670470021924A5168E4
:1040B00021F003010143516070478F48406800F0D0
:1040C0000C00704700218C4A516821F0F001014337
:1040D000516070470021884A516821F4E061014332
:1040E000516070470021844A516821F4605141EACF
:1040F000C0015160704729B17F4A527A02437E4B1A
:104100005A7206E07C4A527AC343DBB21A407A4BB9
:104110005A7270477B49D831086070470021764A4F
:10412000516821F440410143516070470021724AB7
:1041300020321170704A82F82010012802D0042821
:104140000AD104E001216C4A2032117005E00521FA
:10415000694A2032117000E000BF00BF70476A4911
:10416000086070476449096A0143634A11627047F5
:10417000654944390860704730B5002100220023AA
:1041800000245D4D6D6805F00C0121B1042905D0B6
:10419000082923D105E05D4D056022E05B4D0560F7
:1041A0001FE0554D6D6805F47012534D6D6805F4B0
:1041B0008033022505EB92421BB9554D55430560EE
:1041C0000BE04D4D6D6815F4003F03D0504D554345
:1041D000056002E04D4D5543056002E04B4D056022
:1041E00000BF00BF444D6D6805F0F0010909494D5D
:1041F0006C5C0568E54045603F4D6D6805F4E06125
:10420000090A444D6C5C4568E54085603A4D6D682F
:1042100005F46051C90A3F4D6C5C4568E540C560D6
:10422000354D6D6805F44041890B3A4D10356C5C95
:10423000C568B5FBF4F5056130BD29B12E4A526958
:1042400002432D4B5A6104E02B4A526982432A4BA8
:104250005A61704729B1284A92690243264B9A61F4
:1042600004E0254A92698243234B9A61704729B141
:10427000214AD2690243204BDA6104E01E4AD26926
:1042800082431D4BDA61704729B11B4AD268024351
:10429000194BDA6004E0184AD2688243164BDA60A0
:1042A000704729B1144A12690243134B1A6104E0A2
:1042B000114A12698243104B1A6170471249403902
:1042C000086070470F49C86470470B49C871704750
:1042D0000948406A40F080700749486270470146CB
:1042E0000020054A92680A4201D0012000E0002027
:1042F0007047014988727047001002400000FFF8C3
:10430000FFFFF6FE000042428004424200127A00A3
:1043100000093D003800002010B50446FF488442E3
:1043200008D10121C014FFF7AFFF0021E014FFF70F
:10433000ABFFC4E0B4F1804F08D101210846FFF77C
:10434000B0FF00210120FFF7ACFFB8E0F448844241
:1043500008D101210220FFF7A4FF00210220FFF76E
:10436000A0FFACE0EF48844208D101210420FFF710
:1043700098FF00210420FFF794FFA0E0EA48844260
:1043800008D101210820FFF78CFF00210820FFF74A
:1043900088FF94E0E548844208D101211020FFF70E
:1043A00080FF00211020FFF77CFF88E0E048844276
:1043B00008D101212020FFF774FF00212020FFF702
:1043C00070FF7CE0DB48844208D101214014FFF7F4
:1043D0005BFF00216014FFF757FF70E0D64884426E
:1043E00009D10121C804FFF74FFF00214FF400203D
:1043F000FFF74AFF63E0D148844209D10121080553
:10440000FFF742FF00214FF48010FFF73DFF56E019
:10441000CB48844209D101214805FFF735FF00212F
:104420004FF40010FFF730FF49E0C648844208D13E
:1044300001214020FFF735FF00214020FFF731FF29
:104440003DE0C148844208D101218020FFF729FFC7
:1044500000218020FFF725FF31E0BC48844208D1CD
:1044600001218015FFF71DFF0021A015FFF719FF9F
:1044700025E0B748844209D101210804FFF704FF71
:1044800000214FF48030FFF7FFFE18E0B14884426E
:1044900009D101214804FFF7F7FE00214FF4003055
:1044A000FFF7F2FE0BE0AC48844208D101218804FA
:1044B000FFF7EAFE00214FF48020FFF7E5FE10BD74
:1044C00000220288954B98420ED09A4B98420BD00E
:1044D000B0F1804F08D0924B984205D0914B984252
:1044E00002D0914B984204D14FF68F731A404B88FB
:1044F0001A438E4B984207D08D4B984204D04FF60A
:10450000FF431A40CB881A4302808B8883850B882F
:104510000385824B98420BD0864B984208D08C4B37
:10452000984205D08B4B984202D08B4B984201D1D8
:104530000B7A038601238382704770B50022002323
:104540000024058C4FF6FE7635400584038C848864
:10455000028B4FF68F752A40B51E2A400D882A43DC
:10456000751E2B400D892B434D882B436B4DA84264
:104570000BD0704DA84208D0754DA84205D0754D9E
:10458000A84202D0744DA84213D14FF6F7752B40C4
:104590004D892B434FF6FB752B408D882B434FF6EF
:1045A000FF652C404FF6FF552C408D892C43CD895B
:1045B0002C4384800283CD888586038470BD70B5CA
:1045C000002200230024058C4FF6EF763540058449
:1045D000038C8488028B48F6FF752A404FF6FF450E
:1045E0002A400D882D0642EA15424FF6DF752B4012
:1045F0000D892D0543EA15434D882D0543EA1543E2
:10460000464DA84202D04B4DA8421BD14FF67F75B4
:104610002B404D892D0543EA15434FF6BF752B40BE
:104620008D882D0543EA15434FF6FF352C404FF298
:10463000FF752C408D89AD0444EA1544CD89AD0445
:1046400044EA154484800283CD880587038470BDC5
:1046500070B5002200230024058C4FF6FF6635401C
:104660000584038C8488828B4FF68F752A404FF621
:10467000FC752A400D882A434FF6FF552B400D89C3
:104680002D0643EA15434D882D0643EA1543234D75
:10469000A84202D0274DA8421BD14FF2FF752B40F4
:1046A0004D892D0643EA15434FF6FF352B408D8883
:1046B0002D0643EA15434EF6FF752C404DF6FF7567
:1046C0002C408D892D0544EA1544CD892D0544EAF9
:1046D000154484808283CD888587038470BD70B53E
:1046E000002200230024058C4EF6FF763540058419
:1046F000038C8488828B48F6FF752A404FF6FF456D
:104700002A400D882D0642EA15424DF6FF752B40D2
:104710000D892D0743EA15434D881FE0002C014009
:104720000004004000080040000C00400010004061
:104730000014004000340140004C01400050014092
:104740000054014000180040001C004000200040C0
:104750000040014000440140004801402D0743EA69
:104760001543F84DA84202D0F74DA84206D14BF6AA
:10477000FF752C408D89AD0544EA15448480828301
:10478000CD88A0F84050038470BD828B4FF2FF3378
:104790001A408283828B0B0642EA1342828370475F
:1047A000F0B5002400250026078C4EF6FF7C07EAB2
:1047B0000C070784848B058C0F073E0C40F6FF47DF
:1047C0003C40170644EA17441F0744EA1744DD4FEC
:1047D000B8420ED0DC4FB8420BD0B0F1804F08D0B9
:1047E000DA4FB84205D0DA4FB84202D0D94FB842BA
:1047F00006D14DF6FF773D4046F480573D4305E036
:1048000047F6FF573D4041F480573D43848305847C
:10481000F0BD828B4FF6F3731A408283828B0A437A
:1048200082837047F0B5002400250026078C4FF6E0
:10483000FF6C07EA0C070784848B058C0F063E0C7F
:104840004FF60C773C401F0542EA17473C43BD4FEB
:10485000B8420ED0BC4FB8420BD0B0F1804F08D058
:10486000BA4FB84205D0BA4FB84202D0B94FB84299
:1048700006D14FF6FF573D4046F480773D4305E0B3
:104880004FF2FF573D4041F480773D4384830584D8
:10489000F0BD028B4FF2FF331A400283028B0B06EE
:1048A00042EA134202837047F0B500240025002637
:1048B000078C4FF6EF7C07EA0C070784048B058C06
:1048C0000F053E0C40F6FF473C401F0744EA1744E3
:1048D000170644EA17449B4FB8420ED09A4FB8428D
:1048E0000BD0B0F1804F08D0984FB84205D0984F08
:1048F000B84202D0974FB84206D14FF6DF773D401D
:1049000046F010073D4305E04FF65F773D4041F02C
:1049100010073D4304830584F0BD028B4FF6F3730B
:104920001A400283028B0A4302837047F0B50024C9
:104930000025068C4FF6FE773E400684048B058CDE
:104940004FF60C7634401E0542EA164634437D4E3F
:10495000B0420ED07C4EB0420BD0B0F1804F08D0A8
:104960007A4EB04205D07A4EB04202D0794EB04273
:1049700006D14FF6FD76354041F00106354305E09E
:104980004FF6F576354041F0010635430483058442
:10499000F0BD70B504460D466A4884420ED06A48A0
:1049A00084420BD0B4F1804F08D06848844205D0CF
:1049B0006748844202D06748844200D100E000BFCB
:1049C000288850B92B89AA8869882046FFF7AEFF4E
:1049D000E9882046FFF7A1FF25E0288804280AD1AE
:1049E0002B89AA8869882046FFF75EFFE988204660
:1049F000FFF74FFF17E0288808280AD12B89AA88DB
:104A000069882046FFF70EFFE9882046FFF701FF7F
:104A100009E02B89AA8869882046FFF7C1FEE9884A
:104A20002046FFF7B2FE70BD2DE9F04104460D4669
:104A300000260127688808B9022600E00026A88819
:104A4000012801D1022700E001272888A0B92B897D
:104A5000AA8869882046FFF769FFE9882046FFF7A2
:104A60005CFF2B893A4631462046FFF71DFFE98857
:104A70002046FFF70EFF13E02B89AA88698820469D
:104A8000FFF712FFE9882046FFF703FF2B893A461C
:104A900031462046FFF74AFFE9882046FFF73DFFF1
:104AA000BDE8F0810A884B881A438B881A43CB886B
:104AB0001A430B891A434B891A438B891A43A0F86E
:104AC000442070474FF6FF71818000210180C18032
:104AD0004180017270470021018041808180C18046
:104AE000018141818181C181704700210180418024
:104AF000012181800021C180018170470021018056
:104B000041808180C180018141818181704721B1D3
:104B1000028842F00102028004E002884FF6FE7330
:104B20001A400280704731B1B0F8442042F400428C
:104B3000A0F8442005E0B0F84420C2F30E02A0F82B
:104B400044207047002C0140003401400004004024
:104B500000080040000C004010B51AB183890B43D7
:104B6000838104E08389CC43A4B22340838110BDB8
:104B70008182704741EA0203A0F84830704710B5BF
:104B80001AB183890B43838104E08389CC43A4B2A7
:104B90002340838110BD01894FF6F87211400181D5
:104BA0007047002202894FF68F731A400A43028130
:104BB000704730B504460D4629462046FFF7F1FF01
:104BC000208940F00700208130BD2DE9F0410446E6
:104BD0000D4616461F46602D06D13B460122314642
:104BE0002046FFF761FE05E03B46012231462046A4
:104BF000FFF79CFE29462046FFF7D3FF208940F0AF
:104C000007002081BDE8F08130B500240489E4B2BA
:104C10001D0642EA15450D432C43048130BD2DE9A4
:104C2000F04104460D461646984600274346324654
:104C300029462046FFF7E8FF27894FF6F87007401E
:104C400047F007074FF68F70074047F0700727813E
:104C5000BDE8F081F0B504460D4616461F463B46BA
:104C6000324629462046FFF7CFFF208940F4804096
:104C70002081F0BD018582827047002202884FF6B4
:104C80008F731A400A4302807047F0B50024002554
:104C900000260489058B068C4FF6F8773C400C43C0
:104CA0004FF6FC473D4040F201173D434FF6DD779C
:104CB0003E401F0542EA17473E43048105830684B0
:104CC000F0BD0022028B4FF68F731A400A43028315
:104CD00070470022028B48F6FF731A400B0642EA27
:104CE0001342028370470022828B4FF68F731A4063
:104CF0000A43828370470022828B48F6FF731A4072
:104D00000B0642EA13428283704721B1028842F0C7
:104D10008002028004E002884FF67F731A4002800E
:104D2000704721B1828842F00402828004E08288C8
:104D30004FF6FB731A408280704721B1828842F09F
:104D40000802828004E082884FF6F7731A4082805E
:104D5000704721B1828842F00102828004E082889B
:104D60004FF6FE731A40828070470022028B4FF686
:104D7000F7731A400A43028370470022028B4FF2F6
:104D8000FF731A400B0642EA134202837047002267
:104D9000828B4FF6F7731A400A43828370470022D2
:104DA000828B4FF2FF731A400B0642EA1342828352
:104DB00070470022028B4FF6FB731A400A430283AE
:104DC00070470022028B4FF6FF331A400B0642EA6F
:104DD0001342028370470022828B4FF6FB731A4006
:104DE0000A43828370470022828B4FF6FF331A40BA
:104DF0000B0642EA1342828370470022028B4FF671
:104E00007F731A400A43028370470022028BC2F369
:104E10000E020B0642EA1342028370470022828B85
:104E20004FF67F731A400A43828370470022828BB9
:104E3000C2F30E020B0642EA13428283704700223D
:104E4000028C4FF6FD731A400A4302847047002219
:104E5000028C4FF6F7731A400A430284704700220F
:104E6000028C4FF6DF731A400B0542EA13420284AC
:104E700070470022028C4FF67F731A400B0542EAFE
:104E80001342028470470022028C4FF6FF531A40EF
:104E90000B0642EA1342028470470022028C4FF252
:104EA000FF731A400B0642EA134202847047002245
:104EB000028C4DF6FF731A400B0742EA134202843C
:104EC000704730B5002301248C40A3B2048CDD432D
:104ED000ADB22C400484048C02FA01F5ADB22C432F
:104EE000048430BD30B5002304248C40A3B2048C6C
:104EF000DD43ADB22C400484048C02FA01F5ADB25E
:104F00002C43048430BD70B50023002403461846AA
:104F1000183301258D40ACB2058CE643B6B235405E
:104F2000058409B1082909D103EB61031D6825F047
:104F300070051D601D6815431D600CE00D1FADB2AE
:104F400003EB65031D6825F4E0451D601D6816062A
:104F500045EA16451D6070BD21B1028842F002028B
:104F6000028004E002884FF6FD731A400280704709
:104F700021B1028842F00402028004E002884FF668
:104F8000FB731A400280704721B1828842F0800290
:104F9000828004E082884FF67F731A4082807047D7
:104FA00002884FF6F7731A40028002880A43028093
:104FB000704782884FF68F731A40828082880A4336
:104FC0008280704702894FF6F8731A400281028985
:104FD0000A430281704702894FF67F731A400281AB
:104FE00002890A4302817047818470478185704736
:104FF000818670470187704781877047A0F840100D
:10500000704702884FF6FF431A40028002880A4325
:10501000028070470146888E70470146088F7047AE
:105020000146888F70470146B1F84000704701463D
:10503000888C70470146088D704702460020138A0D
:105040000B4201D0012000E000207047CA430282D9
:10505000704730B50246002000230024158A05EA77
:105060000103958905EA010413B10CB1012000E0A8
:10507000002030BDCA4302827047000010B50446CC
:10508000FB48844209D101218803FFF7FDF8002184
:105090004FF48040FFF7F8F832E0F648844209D137
:1050A00001214804FFF7FDF800214FF40030FFF71D
:1050B000F8F825E0F048844209D101218804FFF77F
:1050C000F0F800214FF48020FFF7EBF818E0EB48F0
:1050D000844209D10121C804FFF7E3F800214FF40D
:1050E0000020FFF7DEF80BE0E548844208D10121FB
:1050F0000805FFF7D6F800214FF48010FFF7D1F82C
:1051000010BD2DE9F04786B004460D460026002765
:1051100000BFB146B246A88900B100BFA246268AA8
:105120004CF6FF700640E88806432682A6894EF6B4
:10513000F3100640A8882989084369890843064373
:10514000A681A68A4FF6FF400640A8890643A6829C
:1051500001A8FFF711F85446C548824501D1049FC4
:1051600000E0039FA08910F4004F08D007EBC700B0
:1051700000EB071029684900B0FBF1F807E007EBE6
:10518000C70000EB071029688900B0FBF1F8642024
:10519000B8FBF0F006013009642101FB1089A089F9
:1051A00010F4004F09D0322101EBC9006421B0FB9B
:1051B000F1F000F00700064308E0322101EB09108E
:1051C0006421B0FBF1F000F00F000643268106B029
:1051D000BDE8F0874FF41651016000218180C18045
:1051E00001810C21418100218181704710B500228D
:1051F000028A4FF2FF031A400B884C8823438C88A5
:105200002343CC8823431A43028210BD002101802E
:1052100041808180C180704721B1828942F400526F
:10522000828104E082894DF6FF731A4082817047C3
:10523000F0B50024002500260023A1F510676A3F81
:1052400000D100BF0346C1F3421401F01F0501273E
:1052500007FA05F6012C01D10C3304E0022C01D130
:10526000103300E014331AB11F6837431F6002E0A7
:105270001F68B7431F60F0BD10B51AB1838A0B4396
:10528000838204E0838ACC43A4B22340838210BD8E
:10529000028A4FF6F0731A400282028A0A4302829F
:1052A000704782894FF2FF731A40828182890A43D4
:1052B0008281704721B1828942F00202828104E03A
:1052C00082894FF6FD731A4082817047028A4FF639
:1052D000DF731A400282028A0A430282704721B1B8
:1052E000028A42F48042028204E0028A4BF6FF7393
:1052F0001A4002827047C1F308028280704701465B
:105300008888C0F308007047818941F001018181DC
:105310007047028BD2B20283028B42EA01220283DF
:105320007047028B02F47F420283028B0A4302839E
:10533000704721B1828A42F02002828204E0828A90
:105340004FF6DF731A408282704721B1828A42F0A1
:105350001002828204E0828A4FF6EF731A40828242
:10536000704721B1828A42F00802828204E0828A78
:105370004FF6F7731A408282704721B1828942F456
:105380000042828103E08289C2F30E02828170476B
:1053900021B1828A42F40062828204E0828A4FF262
:1053A000FF731A4082827047828A4FF6FB731A405D
:1053B0008282828A0A438282704721B1828A42F0C5
:1053C0000202828204E0828A4FF6FD731A408282D2
:1053D000704702460020B1F5007F00D100BF13885E
:1053E0000B4201D0012000E00020704701F4007260
:1053F000B2F5007F00D100BFCA430280704770B58C
:1054000002460023002400250020A1F510666A3E14
:1054100000D100BFC1F3421501F01F04012606FAB6
:1054200004F4012D02D19689344006E0022D02D108
:10543000168A344001E0968A34400B12012606FA9F
:1054400003F31688334014B10BB1012000E00020B3
:1054500070BD10B500220023A1F510646A3C00D194
:1054600000BF0A1201249440A3B2DC43048010BDA3
:10547000003801400044004000480040004C00401B
:105480000050004010B50121C802FEF70AFF0021BC
:105490004FF40060FEF705FF10BD0021174A1268A7
:1054A00022F4C0710143164AC2F8041C704700215F
:1054B000124A126822F07F0100F07F021143104A65
:1054C000C2F8041C704701200E490860704700F0C4
:1054D0007F010A4A121F1160704740F08001074A9D
:1054E000121F116070470548001D0068C0B2704768
:1054F00000200249091D086070470000042C00408C
:1055000000200040A4800542704700000FB4054A07
:10551000054910B503AB7944029800F010F910BCAE
:105520005DF814FB3400002089E2FFFF2DE9F04113
:1055300004460E4600202BE0E1682046884748B329
:10554000252802D0D4E901211FE0E1682046002788
:10555000884705001ED0A5F14100192802D8203542
:105560004FF400673246294620462760FAF7F8FDD7
:1055700040B1012801D1361DDEE7F61D26F00706F1
:105580000836D9E7D4E9012128469047206A401C13
:105590002062D1E7206ABDE8F08100002DE9F041EA
:1055A0008046002610687529414614A511D0AFF336
:1055B0000080002802DA404211A508E0D8F8001067
:1055C0008A0701D50FA502E0490704D50EA50126DB
:1055D00001E0AFF30080002408F1240704E000F0AC
:1055E000C1F830313955641C0028F8D133462A46B9
:1055F00021464046BDE8F04100F045B800000000FB
:105600002D0000002B0000002000000070B50446B3
:105610000D4621461068AFF300802168090502D5C8
:10562000104A7A4402E00F4A7A440E32002104F113
:10563000240306E000F00F064FEA1010965D5E545A
:10564000491C0028F6D120680023000704D5702DDE
:1056500002D009B1113202232046BDE8704000F0AB
:1056600012B8000024180000704770477047704758
:1056700010B500F07FF8006810BD10B5044600F0CA
:1056800079F8046010BD2DE9F0470D4604469246B6
:10569000994600F124080168880604D5E06921F0E4
:1056A0001001216000E001200027A84200DD471B17
:1056B000A1697A1902EB0900081AA0612068C006E6
:1056C00002D42046AFF30080002608E0D4E901218F
:1056D0001AF806009047206A401C761C20624E454E
:1056E000F4DB2068C0060AD52046AFF3008006E050
:1056F000D4E9012130209047206A401C2062381EE6
:10570000A7F10107F4DC07E0D4E9012118F805004E
:105710009047206A401C2062281EA5F10105F3DC99
:105720002046AFF3008021680220090600D4012042
:10573000BDE8F08701694A1C02610878704710B51E
:105740000C46194690B0CDE9024200220692044A66
:105750007A44CDE9042001A8FFF7E8FE10B010BD9F
:10576000E1FFFFFF4FF00A01B0FBF1F202FB110174
:10577000104670470148704770470000B80000208D
:1057800000487047B80000207546FFF7F9FFAE46A5
:1057900005006946534620F00700854618B020B53D
:1057A000FEF7AAF8BDE820404FF000064FF00007D2
:1057B0004FF000084FF0000B21F00701AC46ACE8B9
:1057C000C009ACE8C009ACE8C009ACE8C0098D4626
:1057D00070470446AFF300802046FAF7D8FC00007B
:1057E00030B504460D460C480088A0F509418939BA
:1057F00008D121464E20FBF755F829464F20FBF7EC
:1058000051F807E021462020FBF74CF829462120DB
:10581000FBF748F830BD00001800002070B5040008
:105820000D4601D0012200E000220A430B4B22F07A
:1058300000429A1AD20F0AD109A20CCA00F0BAF893
:1058400005D20120FFF719FF07A103C970BD294642
:105850002046BDE8704000F029B900000000F07F4C
:105860000000000000000000010000000000F87FC0
:1058700002494FF0000000F06CBD00000000F87F0E
:1058800002494FF0000000F064BD00000000F87F06
:1058900000B54FF4001E1EEB410F08BF002898BF53
:1058A0001EEB430F08BF002A26D85DF804EBAFF3C8
:1058B000008051EA030C06D4994208BF904210D6EA
:1058C000EFF3008070478B4208BF8242EFF3008005
:1058D00020F0104038BF40F0004080F3008878BFCF
:1058E00070474FF0010C38BFBCF1020F68BFBCF12C
:1058F000000FEFF3008070475DF804EB1CF4502FAD
:105900003FF4B6AF00F057BD4FEAC12303B40A1508
:1059100043EA505318BF43F000430CD4A2F5607221
:10592000D2F19E0211DBFF2ACCBF002123FA02F143
:10593000084602B0704701F1804212F5801F80F2E4
:1059400004804FF0000002B0704703BCDFF828C0AD
:10595000012841EB010313F5001F88BF4CF4803C84
:105960003FF68EAF3CBF6FEAE1707047AFF3008047
:105970006FEAE17070470000E800020410F0004395
:1059800014BF4142014643F08043B1FA81FC03F168
:10599000F87311FA0CF1A3EB0C534FEA415008BF16
:1059A000704703EBE12170474FF080430146FFF75A
:1059B000ECBF000051EA030C17D41CF5801F58BF40
:1059C000BCF5801F00F10680994218BF704708BFE0
:1059D0009042704707D711F5801F58BF13F5801FFD
:1059E00019D499427047894270471CF5801F08D529
:1059F000BCF5801FF7D58B4218BF704708BF8242A5
:105A000070474FF4001C1CEB410F38BF1CEB430FD9
:105A100001D28B427047DFF808C0FFF739BF0000A2
:105A20001900160453EA010C17D41CF5801F58BF47
:105A3000BCF5801F00F106808B4218BF704708BF7D
:105A40008242704707D713F5801F58BF11F5801F9A
:105A500019D48B4270479B4270471CF5801F08D5B4
:105A6000BCF5801FF7D5994218BF704708BF904218
:105A700070474FF4001C1CEB430F38BF1CEB410F69
:105A800001D29942704783EA010182EA000081EA6B
:105A9000030380EA0202DFF810C083EA010182EA10
:105AA0000000FFF7F5BE0000190016044FF0E04CAF
:105AB0004CF07F6C70B511EA0C0F00F078803CEA76
:105AC000010E00F07D8011F0004F40F087804FEA1A
:105AD000115C21EA0C5141F480110CF1FD0C5FEADC
