:020000040800F2
:1000000000070020ED320008250300082703000840
:100010002B0300082F030008330300080000000032
:10002000000000000000000000000000370300088E
:1000300039030008000000003B0300083D030008EE
:10004000D906000807330008073300080733000803
:100050000733000807330008FB1E0008DD260008F0
:100060000733000807330008073300080733000888
:100070000733000807330008073300080733000878
:100080000733000807330008073300080733000868
:100090000733000807330008073300080733000858
:1000A0000733000807330008073300080733000848
:1000B000073300085F07000807330008073300080C
:1000C0000733000807330008073300080733000828
:1000D00007330008613200080733000807330008BF
:1000E00007330008073300080733000800F002F860
:1000F00000F041F80AA090E8000C82448344AAF181
:100100000107DA4501D100F036F8AFF2090EBAE87E
:100110000F0013F0010F18BFFB1A43F0010318473B
:10012000E466000004670000103A24BF78C878C174
:10013000FAD8520724BF30C830C144BF04680C60ED
:10014000704700000023002400250026103A28BF35
:1001500078C1FBD8520728BF30C148BF0B60704739
:10016000782904F02387002070471FB5AFF3008083
:100170001FBD10B510BD04F0CFFF1146FFF7F5FF0E
:1001800000F018F804F0EDFFFFF7F3FF03F00EF8AE
:1001900010B54FF6FF7000F0EFFB1F2048490880B4
:1001A00048A20021D82001F047FE4FF4784044498E
:1001B000088010BD70B5002500F026F9482002F037
:1001C000A3FF02F0EDFF4FF4165002F0FDFF00F028
:1001D0009BF900F0CBF900F0ECFB4FF47840384984
:1001E000088039A232213C2001F026FE39A24621A6
:1001F0003C2001F021FE3AA25A213C2001F01CFED5
:100200003BA26E213C2001F017FE3CA282213C2043
:1002100001F012FE02F0F0FE40F2DC5002F088FF26
:10022000FFF7B6FF4AE000F0BCF904463948007A0F
:10023000012827D1002002F09DF900BF02F013FA37
:1002400000203449087208460088D82806DD084690
:100250004088102802DAFFF79BFF0BE02D4A5188F7
:100260001288D0B202F0E9F92B48C06840F00200D1
:100270002949C860294800680028DFD0012002F021
:1002800079F902E00A2002F053FF012C09D14FF660
:10029000FF7000F071FB02F0DAFA02F027FAFFF7C4
:1002A00077FF681CC5B2142D08D100251C480068D2
:1002B00008B9012000E0002019490860B3E70000F8
:1002C00016000020525354004D696E692053544D5E
:1002D00033320000544F55434820544553540000D6
:1002E00041544F4D40414C49454E54454B00000050
:1002F000323031312F312F310000000050726573E0
:1003000073204B45593020746F2041646A757374B3
:1003100000000000400000200010014004012242C3
:10032000A0012142704700BFFEE700BFFEE700BF0B
:10033000FEE700BFFEE77047704770477047000058
:1003400000200021674A126842F48032654B1A602F
:1003500000BF644A126802F40031401C11B9B0F5C4
:10036000A06FF6D15F4A126812F4003F01D001215C
:1003700000E00021012942D15B4A126842F01002DC
:10038000594B1A601A46126822F003021A601A4684
:10039000126842F002021A60524A5268514B5A6087
:1003A0001A4652685A601A46526842F480625A608D
:1003B0001A46526822F47C125A601A46526842F475
:1003C000E8125A601A46126842F080721A6000BF42
:1003D000444A126812F0007FFAD0424A526822F072
:1003E0000302404B5A601A46526842F002025A60B9
:1003F00000BF3C4A526802F00C02082AF9D170474B
:1004000010B5FFF79DFF10BD10B53648006840F0ED
:1004100001003449086008464068344908403149C1
:10042000486008460068324908402E49086008467E
:10043000006820F4802008600846406820F4FE0030
:1004400048604FF41F008860FFF7DAFF4FF000604C
:100450002849086010BD10B5002000210022214B62
:100460005B6803F00C0020B1042806D0082828D1CE
:1004700007E0214B214C236027E01F4B1F4C2360DA
:1004800023E0184B5B6803F47011164B5B6803F4B0
:100490008032022303EB914122B9194B4B43174C95
:1004A00023600DE00F4B5B6813F4003F04D0144B46
:1004B0004B43124C236003E00F4B4B430F4C236024
:1004C00003E00D4B0D4C236000BF00BF054B5B6884
:1004D000C3F303130B4CE05C084B1B68C340074C91
:1004E000236010BD00100240002002400000FFF811
:1004F000FFFFF6FE08ED00E000127A000000002089
:1005000000093D000400002008B50121042003F08B
:10051000A9FB4FF48070ADF8000010208DF80300A7
:1005200003208DF8020069460E4803F067F84FF487
:1005300080710C4803F00AF90121202003F092FB9E
:100540000420ADF8000010208DF8030003208DF882
:1005500002006946044803F051F80421024803F000
:10056000F5F808BD000801400014014008B501215C
:10057000042003F077FB4FF42040ADF80000482042
:100580008DF8030069462E4803F038F80120ADF8D5
:10059000000028208DF803006946294803F02EF852
:1005A00008BD10B50121274803F0F3F8264800786C
:1005B00000282FD02548006840B124480830006842
:1005C00020B1224834380068012823D10A2002F0E3
:1005D000AFFD00201C4908701C48006828B90121A3
:1005E0001B4803F0D6F8012010BD184808300068F9
:1005F00028B90121164803F0CCF80220F4E713488B
:1006000034380068012815D10121114803F0C1F8E0
:100610000320E9E70D48006801280BD10B4808309A
:100620000068012806D109483438006810B9012053
:10063000054908700121064803F0ABF80020D3E714
:100640000008014000043000140000203401214261
:100650000002300070B504460D4645F2555003F0D7
:1006600011F9204603F011F9284603F011F903F0BF
:1006700012F903F015F970BD10B503F00CF910BDB7
:1006800008B500208DF8000002208DF8010003203D
:100690008DF80200684602F04EFE08BD70B50446B3
:1006A0000D4616460121C80203F0E9FA304604F06F
:1006B000FCFB284604F003FC204604F016FC04F082
:1006C0001FFCFFF7DDFF04F006FC70BD10B504460B
:1006D000204604F00AFC10BD10B57F2004F0FFFB9B
:1006E00004F00EFC0448006808B9012000E0002076
:1006F0000149086010BD0000888122427FB5044690
:100700000D460121022003F0BAFA41F28830ADF81B
:10071000080041F61F40ADF804000020ADF80A00C3
:10072000ADF8060001A9174803F0D2FB01224121D0
:10073000144803F019FF1D208DF8000000208DF8EB
:10074000010003208DF8020001208DF803006846A7
:1007500002F0F1FD01210B4803F0E1FE7FBD10B571
:100760000121084804F07DF958B10121054804F041
:1007700089F90548006808B9012000E00020024915
:10078000086010BD00040040888122424FF480714F
:10079000FF4A516149005161FE4908608021516161
:1007A000116189001161704710B504460B4620465F
:1007B000FFF7ECFF4FF48070F54908614000486195
:1007C000F44803608020486108618000086110BD22
:1007D00070B504462046FFF7D9FF4FF08830ED4949
:1007E0000C390860EC49C1F8040C4FF6FF70E94978
:1007F00008608815E649086140004861402048616A
:10080000052002F0B0FC4020E1490861E248D0F840
:10081000080C85B2481508614FF03330DD490C39BA
:100820000860091D08604FF6FF70DA490860284625
:1008300070BD00B52220FFF7A9FF00BD4FF4807105
:10084000D34A116149005161D24908608021516148
:10085000116189001161704730B5014601F01F0434
:10086000C1F34513CA0AE50205EB43151544A8B2C6
:1008700030BD70B504460D46F02C02DAB5F5A07F08
:1008800001DB002070BD2946204604F071FC2220C7
:10089000FFF77CFF4FF08830BE490C390860BE4935
:1008A000C1F8040C4FF6FF70BA4908608815B849C2
:1008B000086140004861402048610861022002F060
:1008C00052FC4020B2494861022002F04CFC40201A
:1008D000AF490861B048D0F8080C86B248150861E5
:1008E0004FF03330AB490C390860091D08604FF6F2
:1008F000FF70A949C1F80C0CA8480088A0F58A41EE
:1009000031390BD0A5480088A0F50941893905D0B7
:10091000A2480088A0F53541053901D13046B1E73C
:100920003046FFF799FFADE700B540F2731107209D
:10093000FFF73AFF00BD00B500210720FFF734FFA5
:1009400000BD70B504460D462946204604F010FC53
:100950002220FFF71BFF4FF480708D490861400093
:1009600048618F4800888B49086080208849486129
:1009700008618000086170BD70B505460024002143
:10098000084604F0F5FBFFF754FF00BF0DE04FF4FD
:1009900080707F490861400048617E480560802082
:1009A0004861086180000861641CB4F5963FEED38D
:1009B00070BD08B50121192003F054F901217948CF
:1009C00002F0E7FE4FF4F860ADF8000010208DF85B
:1009D000030003208DF8020069466D4802F00EFE08
:1009E0004FF4F8616A4802F0B1FE4FF6FF70ADF8BF
:1009F0000000694667480C3802F000FE4FF6FF71B0
:100A000064480C3802F0A2FE322002F091FB012172
:100A10000020FFF7C9FE322002F08AFB0020FFF71A
:100A2000D7FE5E490880084601885FA004F076FA88
:100A30005A480088A0F5134125397ED147F6F001C8
:100A4000E520FFF7B1FE4FF480710120FFF7ACFE07
:100A50004FF4E0610220FFF7A7FE41F230010320CE
:100A6000FFF7A2FE00210420FFF79EFE40F20221C4
:100A70000820FFF799FE00210920FFF795FE0021CD
:100A80000A20FFF791FE00210C20FFF78DFE0021C8
:100A90000D20FFF789FE00210F20FFF785FE0021C2
:100AA0001020FFF781FE07211120FFF77DFE0021B6
:100AB0001220FFF779FE00211320FFF775FE0021B9
:100AC0000720FFF771FE41F290611020FFF76CFEE6
:100AD00040F227211120FFF767FE9D211220FFF72A
:100AE00063FE4FF4C8511320FFF75EFE2521292035
:100AF000FFF75AFE0D212B20FFF756FE072130206D
:100B0000FFF752FE40F203313120FFF74DFE032183
:100B10003220FFF749FE40F206213520FFF744FE60
:100B200008213620FFF740FE40F206413720FFF74C
:100B30003BFE4FF44171382000E06AE0FFF734FEDD
:100B400007213920FFF730FE40F202613C20FFF719
:100B50002BFE08213D20FFF727FE00215020FFF744
:100B600023FEEF215120FFF71FFE00215220FFF747
:100B70001BFE40F23F115320FFF716FE4FF42741B2
:100B80006020FFF711FE01216120FFF70DFE11E04B
:100B9000001001400C0C0140000001401A00002030
:100BA0001600002000023000204C43442049443A03
:100BB00025780A0000216A20FFF7F6FD0021802039
:100BC000FFF7F2FD00218120FFF7EEFD00218220DA
:100BD000FFF7EAFD00218320FFF7E6FD00218420D6
:100BE000FFF7E2FD00218520FFF7DEFD10219020B8
:100BF000FFF7DAFD4FF4C0619220FFF7D5FD40F218
:100C000033110720FFF7D0FD22210020FFF7CCFD94
:100C10007EE3FF480088A0F5134128397ED141F2D8
:100C20008F01EC20FFF7C0FD41F23421EF20FFF7E8
:100C3000BBFD4FF480710120FFF7B6FD4FF4E0617A
:100C40000220FFF7B1FD4FF480710120FFF7ACFDEA
:100C50004FF4E0610220FFF7A7FD41F230010320CD
:100C6000FFF7A2FD00210420FFF79EFD40F20721BF
:100C70000820FFF799FD00210920FFF795FD0021CD
:100C80000A20FFF791FD01210C20FFF78DFD0021C7
:100C90000D20FFF789FD00210F20FFF785FD0021C2
:100CA0001020FFF781FD07211120FFF77DFD0021B6
:100CB0001220FFF779FD00211320FFF775FD322088
:100CC00002F036FA41F290511020FFF76DFD40F22C
:100CD00027211120FFF768FD322002F029FA9C211C
:100CE0001220FFF761FD322002F022FA4FF4C851C2
:100CF0001320FFF759FD23212920FFF755FD0E2171
:100D00002B20FFF751FD322002F012FA00212020A3
:100D1000FFF74AFD40F23F11212000E079E0FFF7A4
:100D200043FD322002F004FA07213020FFF73CFD9A
:100D300040F207713120FFF737FD06213220FFF71F
:100D400033FD40F204713520FFF72EFD41F60471AA
:100D50003620FFF729FD04213720FFF725FD00216C
:100D60003820FFF721FD40F206713920FFF71CFD06
:100D700040F201713C20FFF717FD0F213D20FFF7E6
:100D800013FD322002F0D4F900215020FFF70CFDB2
:100D9000EF215120FFF708FD00215220FFF704FD4D
:100DA00040F23F115320FFF7FFFC4FF42741602032
:100DB000FFF7FAFC01216120FFF7F6FC00216A2011
:100DC000FFF7F2FC00218020FFF7EEFC00218120DC
:100DD000FFF7EAFC00218220FFF7E6FC00218320D8
:100DE000FFF7E2FC00218420FFF7DEFC00218520D4
:100DF000FFF7DAFC10219020FFF7D6FC4FF4C0611A
:100E00009220FFF7D1FC40F233110720FFF7CCFC12
:100E1000FEE67F480088A0F51341203904D07C48C5
:100E20000088B0F5134F7ED100210846FFF7BCFCC7
:100E30004FF480710120FFF7B7FC4FF4E06102200E
:100E4000FFF7B2FC41F230010320FFF7ADFC0021B7
:100E50000420FFF7A9FC40F202210820FFF7A4FCC0
:100E600000210920FFF7A0FC00210A20FFF79CFCCD
:100E700001210C20FFF798FC00210D20FFF794FCC6
:100E800000210F20FFF790FC322002F051F940F2D0
:100E900001110720FFF788FC322002F049F94FF4D6
:100EA00086511020FFF780FC07211120FFF77CFC02
:100EB0004FF488711220FFF777FC4FF43061132054
:100EC000FFF772FC00212920FFF76EFC44F21001AD
:100ED0002B20FFF769FC00215020FFF765FCEF2174
:100EE0005120FFF761FC00215220FFF75DFC40F22A
:100EF0003F115320FFF758FC4FF41C516020FFF7BF
:100F000053FC01216120FFF74FFC00216A20FFF70D
:100F10004BFC00218020FFF747FC00218120FFF7D8
:100F200043FC002100E02DE08220FFF73DFC002182
:100F30008320FFF739FC00218420FFF735FC0021D6
:100F40008520FFF731FC10219020FFF72DFC0021B8
:100F50009220FFF729FC01219320FFF725FC4FF495
:100F600088719520FFF720FC00219720FFF71CFCDB
:100F700000219820FFF718FC40F273110720FFF7BB
:100F800013FC45E622480088A0F5A84108397DD128
:100F90004FF480710120FFF707FC4FF4E06102205D
:100FA000FFF702FC41F230010320FFF7FDFB0021B7
:100FB0000420FFF7F9FB40F207210820FFF7F4FBBC
:100FC00000210920FFF7F0FB00210A20FFF7ECFBCE
:100FD00000210C20FFF7E8FB00210D20FFF7E4FBC8
:100FE00000210F20FFF7E0FB142002F0A1F841F2EE
:100FF000B0611020FFF7D8FB01211120FFF7D4FBCF
:1010000001211720FFF7D0FB4FF49C71122001E063
:101010001A000020FFF7C8FB4FF400611320FFF710
:10102000C3FB09212920FFF7BFFB09212A20FFF775
:10103000BBFB0021A420FFF7B7FB00215020FFF7E6
:10104000B3FBEF215120FFF7AFFB00215220FFF748
:10105000ABFB40F23F115320FFF7A6FB4FF41C51AE
:101060006020FFF7A1FB01216120FFF79DFB00211C
:101070006A20FFF799FB00218020FFF795FB0021F4
:101080008120FFF791FB0021822000E027E0FFF79D
:101090008BFB00218320FFF787FB00218420FFF7D3
:1010A00083FB00218520FFF77FFB13219020FFF7B2
:1010B0007BFB00219220FFF777FB03219320FFF7B2
:1010C00073FB4FF488719520FFF76EFB40F27311AC
:1010D0000720FFF769FB322002F02AF898E5FF4865
:1010E0000088A0F5A85105397ED10720FFF75CFBE9
:1010F000322002F01DF84FF48E711220FFF754FBDE
:101100000121A420FFF750FB0F210820FFF74CFB23
:1011100008210A20FFF748FB08210D20FFF744FBB8
:1011200040F207713020FFF73FFB07213120FFF726
:101130003BFB40F203613220FFF736FB4FF4E061E6
:101140003320FFF731FB40F202213420FFF72CFB64
:1011500002213520FFF728FB41F60F713620FFF7FB
:1011600023FB40F207713720FFF71EFB00213820D8
:10117000FFF71AFB00213920FFF716FB40F2077139
:101180003A20FFF711FB00213B20FFF70DFB072161
:101190003C20FFF709FB00213D20FFF705FB322033
:1011A00001F0C6FF01210720FFF7FEFA01211720F9
:1011B000FFF7FAFA322001F0BBFF4FF4BD511020C7
:1011C000FFF7F2FA40F217211120FFF7EDFA4FF482
:1011D0008F711220FFF7E8FA4FF470611320FFF7C8
:1011E000E3FA00212A2000E093E0FFF7DDFA0A216C
:1011F0002920FFF7D9FA4FF49F711220FFF7D4FA94
:1012000000215020FFF7D0FAEF215120FFF7CCFA50
:1012100000215220FFF7C8FA40F23F115320FFF798
:10122000C3FA4FF41C516020FFF7BEFA0121612080
:10123000FFF7BAFA00216A20FFF7B6FA00218020F2
:10124000FFF7B2FA00218120FFF7AEFA00218220D9
:10125000FFF7AAFA00218320FFF7A6FA00218420D5
:10126000FFF7A2FA00218520FFF79EFA13219020B4
:10127000FFF79AFA4FF440719220FFF795FA052193
:101280009320FFF791FA00219520FFF78DFA0021B6
:101290009720FFF789FA00219820FFF785FA4FF48D
:1012A00080710120FFF780FA4FF4E0610220FFF720
:1012B0007BFA41F230010320FFF776FA0021042087
:1012C000FFF772FA00210C20FFF76EFA00210F20C1
:1012D000FFF76AFA00212020FFF766FA002121209B
:1012E000FFF762FA21210720FFF75EFA142001F0D0
:1012F0001FFF61210720FFF757FA142001F018FFA4
:1013000040F273110720FFF74FFA142001F010FF8D
:101310004AE372480088A0F5354105397DD1084679
:10132000FFF742FA00210846FFF73EFA002108467F
:10133000FFF73AFA00210846FFF736FA0121A42008
:10134000FFF732FA142001F0F3FE4FF41C51602035
:10135000FFF72AFA40F202210820FFF725FA4FF49E
:1013600005713020FFF720FA43F215713120FFF7A5
:101370001BFA40F204613220FFF716FA40F61661BC
:101380003320FFF711FA42F211213420FFF70CFA53
:101390004FF4A8513520FFF707FA48F207513620DD
:1013A000FFF702FA41F207413720FFF7FDF941F25A
:1013B00003413820FFF7F8F920213920FFF7F4F92D
:1013C0001A219020FFF7F0F900211020FFF7ECF927
:1013D00007211120FFF7E8F900211220FFF7E4F9B7
:1013E00000211320FFF7E0F9142001F0A1FE4FF4D3
:1013F000E6611020FFF7D8F940F237111120FFF70E
:10140000D3F9142001F094FE4FF4DC711220FFF7A1
:10141000CBF9142001F08CFE00E087E04FF47061FE
:101420001320FFF7C1F980212A20FFF7BDF94821D9
:101430002920FFF7B9F9142001F07AFE4FF48071EA
:101440000120FFF7B1F94FF4E0610220FFF7ACF99A
:1014500041F230210320FFF7A7F940F202210820D2
:10146000FFF7A2F900210A20FFF79EF900210C20C6
:10147000FFF79AF900210D20FFF796F930210E2091
:10148000FFF792F900215020FFF78EF9EF2151204C
:10149000FFF78AF900215220FFF786F940F23F1149
:1014A0005320FFF781F94FF41C516020FFF77CF9BE
:1014B00001216120FFF778F900216A20FFF774F914
:1014C00011219020FFF770F94FF4C0619220FFF7CF
:1014D0006BF940F20241932002E000001A00002064
:1014E000FFF762F902219420FFF75EF9142001F062
:1014F0001FFE01210720FFF757F9142001F018FE05
:1015000061210720FFF750F940F273110720FFF720
:101510004BF900212020FFF747F900212120FFF798
:1015200043F922210020FFF73FF93DE2FF48008800
:10153000A0F5094189397DD101210020FFF734F957
:101540004AF6A4010320FFF72FF900210C20FFF732
:101550002BF940F60C010D20FFF726F94FF42C5122
:101560000E20FFF721F9B0211E20FFF71DF942F6EA
:101570003F310120FFF718F94FF4C0610220FFF757
:1015800013F900211020FFF70FF946F27001112026
:10159000FFF70AF900210520FFF706F900210620D0
:1015A000FFF702F94EF61C711620FFF7FDF8032134
:1015B0001720FFF7F9F840F233210720FFF7F4F87E
:1015C00000210B20FFF7F0F800210F20FFF7ECF8C7
:1015D00000214120FFF7E8F800214220FFF7E4F85E
:1015E00000214820FFF7E0F840F23F114920FFF7C3
:1015F000DBF800214A20FFF7D7F800214B20FFF746
:10160000D3F84FF46F414420FFF7CEF80021452076
:10161000FFF7CAF840F23F114620FFF7C5F840F245
:1016200007713020FFF7C0F84FF401713120FFF748
:10163000BBF800E03DE04FF401713220FFF7B4F851
:1016400040F202513320FFF7AFF840F20751342047
:10165000FFF7AAF84FF401713520FFF7A5F84FF412
:1016600001713620FFF7A0F840F202513720FFF752
:101670009BF840F202313A20FFF796F840F202312F
:101680003B20FFF791F800212320FFF78DF8002180
:101690002420FFF789F84FF400412520FFF784F854
:1016A00000214F20FFF780F800214E20FFF77CF843
:1016B0007AE19E480088A0F58A4131397ED1012126
:1016C0000020FFF771F80A2001F032FD41F2286195
:1016D0001020FFF769F80E211220FFF765F840F699
:1016E00039211320FFF760F80A2001F021FD402185
:1016F0001120FFF759F850211520FFF755F80A205F
:1017000001F016FD1E211220FFF74EF80A2001F00D
:101710000FFD4FF4B1511020FFF746F842F6392182
:101720001320FFF741F80A2001F002FD4FF4807109
:101730000120FFF739F84FF440710220FFF734F829
:1017400041F230010320FFF72FF840F20221082078
:10175000FFF72AF808210A20FFF726F80021302099
:10176000FFF722F840F202413120FFF71DF84FF455
:1017700083713220FFF718F840F203513320FFF74E
:1017800013F84FF482713420FFF70EF840F2013164
:101790003520FFF709F840F207713620FFF704F80B
:1017A00040F205313720FEF7FFFF4FF40271382079
:1017B000FEF7FAFF40F60B71392000E03BE0FEF740
:1017C000F3FF02214120FEF7EFFF4FF41C51602090
:1017D000FEF7EAFF01216120FEF7E6FF4FF40471F6
:1017E0009020FEF7E1FF4FF485719220FEF7DCFFB9
:1017F00004219320FEF7D8FF4FF48071A020FEF75C
:10180000D3FF01210720FEF7CFFF21210720FEF79C
:10181000CBFF23210720FEF7C7FF33210720FEF768
:10182000C3FF40F233110720FEF7BEFF0021A020C6
:10183000FEF7BAFFB8E03D480088A0F58A41353987
:10184000F8D130211520FEF7AFFF10219A20FEF7C6
:10185000ABFF20211120FEF7A7FF43F22841102003
:10186000FEF7A2FF02211220FEF79EFF41F238018F
:101870001320FEF799FF282001F05AFC1221084698
:10188000FEF792FF282001F053FC43F22041102084
:10189000FEF78AFF43F238011320FEF785FF46204A
:1018A00001F046FC00213020FEF77EFF40F20241AD
:1018B0003120FEF779FF40F207313220FEF774FF46
:1018C0004FF441713320FEF76FFF04213420FEF7FF
:1018D0006BFF40F201413520FEF766FF40F20771D1
:1018E0003620FEF761FF40F205313720FEF75CFF3E
:1018F0004FF4C2613820FEF757FF4FF4C261392020
:10190000FEF752FF4FF480710120FEF74DFF4FF4B8
:1019100040710220FEF748FF41F230010320FEF73C
:1019200043FF40F60801082002E000001A000020F2
:10193000FEF73AFF08210A20FEF736FF4FF41C514C
:101940006020FEF731FF01216120FEF72DFF4FF4EB
:101950009F719020FEF728FF4FF480719220FEF7D0
:1019600023FF4FF480719320FEF71EFF4FF4405188
:10197000A020FEF719FF1021A320FEF715FF01217B
:101980000720FEF711FF21210720FEF70DFF23217D
:101990000720FEF709FF33210720FEF705FF40F27D
:1019A00033110720FEF700FF0120FF4908604FF6C2
:1019B000FF70FEF7E1FF08BD2DE9F05F04460D461C
:1019C00016461F46DDF828804FF0000B301B401CE8
:1019D0001FFA80FBA94620E04946204603F0C8FBD9
:1019E000FEF727FF4FF0000A11E04FF48070EF4937
:1019F000086140004861EE48C0F80C8C80204861C6
:101A00000861800008610AF101001FFA80FADA45D6
:101A1000EBDB09F101001FFA80F9B945DCDDBDE817
:101A2000F09F2DE9FF4F85B004460D461646002075
:101A300004900390A6EB04080898A0EB0509A346C0
:101A40000095B8F1000F02DD012001900AE0B8F125
:101A5000000F02D10020019004E04FF0FF30019010
:101A6000C8F10008B9F1000F02DD4FF0010A09E0EA
:101A7000B9F1000F02D14FF0000A03E04FF0FF3A36
:101A8000C9F10009C84502DDCDF8088001E0CDF8B4
:101A90000890002722E0009881B21FFA8BF0FEF731
:101AA00050FF0498404404900398484403900299DE
:101AB0000498884205DD04990298081A0490019858
:101AC0008344DDE90210884206DDDDE90210401A98
:101AD0000390009850440090781C87B20298401CF4
:101AE0008742D8DD09B0BDE8F08F2DE9F04104460A
:101AF0000D4616461F462B46324629462046FFF71E
:101B000090FF3B46224629462046FFF78AFF3B4688
:101B1000324639462046FFF784FF3B463246294687
:101B20003046FFF77EFFBDE8F0812DE9F04704461F
:101B30000D4616460027B0460320A0EB460954E0A8
:101B4000EA1B91B2A4EB080290B2FEF7FAFEEA1B80
:101B500091B204EB080290B2FEF7F3FE05EB080227
:101B600091B2E21B90B2FEF7ECFEEA1B91B2A4EB3D
:101B7000080290B2FEF7E5FEA5EB080291B2E21B67
:101B800090B2FEF7DEFEEA1991B204EB080290B2C1
:101B9000FEF7D7FEA5EB080291B2E21990B2FEF76C
:101BA000D0FE05EB080291B2E21990B2FEF7C9FE31
:101BB000EA1991B2A4EB080290B2FEF7C2FE7F1CB4
:101BC000B9F1000F03DAB800801D814406E0A7EBED
:101BD000080080000A308144A8F1010805EB0802E2
:101BE00091B2E21990B2FEF7ACFE4745A8DDBDE820
:101BF000F0872DE9F84F04460D4616461F46A346CA
:101C00006C4800880090E82C02DCB5F59C7F01DD73
:101C1000BDE8F88FA6F12000C6B20A98002839D195
:101C2000814634E00C2F07D106EB4600624901EBF8
:101C3000800010F8098004E0604800EB061010F8FE
:101C400009804FF0000A16E018F0010F03D059493F
:101C50000098088003E05A480088564908802946C1
:101C60002046FEF76EFE4FEA6808601C84B20AF157
:101C7000010000F0FF0A07EBD771BAEB610FE3DB5D
:101C80005C46681C85B209F1010000F0FF09B94506
:101C9000C8DB30E04FF000092BE00C2F07D106EB3A
:101CA0004600454901EB800010F8098004E04348F4
:101CB00000EB061010F809804FF0000A10E018F051
:101CC000010F07D005EB090291B204EB0A0290B2B2
:101CD000FEF737FE4FEA68080AF1010000F0FF0A3C
:101CE00007EBD771BAEB610FE9DB09F1010000F0F6
:101CF000FF09B945D1DB2F490098088088E710B566
:101D00000246012000E050430B00A1F10104E1B2C2
:101D1000F9D110BD2DE9FF4F81B0044615461E468E
:101D20000E9F4FF0000AD0464EE0A6EB0800401E82
:101D3000C1B20A20FFF7E3FFB5FBF0F00A21B0FBC8
:101D4000F1F201FB120000F0FF09BAF1000F16D109
:101D5000701E404513DDB9F1000F0ED10023BB46C4
:101D600007EBD771491001FB084188B200933B464D
:101D700020220299FFF73DFF12E04FF0010A0023F5
:101D8000BB4607EBD771491001FB084188B20093AD
:101D90003B4609F13001CAB20299FFF72AFF00BFA2
:101DA00008F101000EE00000A801224200100140ED
:101DB0000000014016000020765D0008EA6100087E
:101DC0001800002000F0FF08B045AEDB05B0BDE80C
:101DD000F08F2DE9F84F04460D4616461F46DDF8F4
:101DE00028804FF0000923E0A7EB0900401EC1B294
:101DF0000A20FFF784FFB6FBF0F00A21B0FBF1F2F6
:101E000001FB120000F0FF0A0B9BC34608EBD871E0
:101E1000491001FB094188B2009343460AF13001A1
:101E2000CAB22946FFF7E5FE09F1010000F0FF09FB
:101E3000B945D9DBBDE8F88FF8B504460D4616461E
:101E40001BE0E82C03DD002405F1100085B2B5F598
:101E50009C7F06DD0020044605464FF6FF70FEF726
:101E60008BFD002300933278102329462046FFF78C
:101E7000C0FE04F1080084B2761C30780028E0D15E
:101E8000F8BD000010B50121042001F08EFA0121F7
:101E9000080701F0F4FE012001F02DFD01F04DFDD9
:101EA00010BD10B500214FF4FE7001F0F5FEFFF7F4
:101EB000E9FF10BD70B50024002500202E49086000
:101EC0001AE02D48A038006818B1601CC4B2002583
:101ED00008E0681CC5B2032D04DD01202649086016
:101EE000002070BD1E2001F023F9642C04DB0020CB
:101EF000214908600120F4E7E3E710B501201F49FC
:101F00000860FFF7D7FF08B1FFF7CBFF10BD1FB583
:101F10000121052001F0A6FE0120ADF80C002820CB
:101F20008DF80F0003A9164801F068FB0021084650
:101F300001F073FC0120009000208DF804000820BF
:101F40008DF8050001208DF80600684601F06EFA54
:101F500006208DF8080002208DF809008DF80A008F
:101F600001208DF80B0002A801F0E5F9FFF7A2FFB0
:101F700008B9FFF787FF1FBDA001214214040140EB
:101F80000008014008B50121102001F06BFE4FF45C
:101F9000C050ADF8000010208DF8030003208DF82C
:101FA000020069468A4801F029FB0120894908603E
:101FB0008949C1F8AC0108BD10B58548406820F4D6
:101FC0007040834948600846406840F4405048608B
:101FD00001208049091F08607F49C1F8B001042031
:101FE00001F0C1F800207B49091F0860042001F0BE
:101FF000BAF800207849C1F8B00110BD10B5744896
:10200000406820F47040724948600846406840F4D7
:102010004050486000206F4908606F49C1F8AC012A
:10202000042001F0A0F801206A4908606A49C1F85B
:10203000AC01042001F097F810BD10B500246448ED
:10204000406820F47040624948600846406840F4A7
:102050000040486001205F49091F086001F083F8D3
:1020600001205D49C1F8B00101F07DF807E0601C76
:10207000C4B2FA2C03DDFFF7C1FF012010BD5548A3
:10208000843800680028F2D152490860F6E710B59C
:102090000020504908604E48406820F470404C4988
:1020A00048600846406840F44050486000204A4973
:1020B000C1F8AC01022001F056F801204549086042
:1020C000022001F050F800204349C1F8B00110BDD2
:1020D00010B500203F4908603D48406820F470403A
:1020E0003B4948600846406840F440504860012041
:1020F0003949C1F8AC01022001F035F80120354919
:102100000860022001F02FF800203349C1F8B00127
:1021100010BD70B505462E48406820F470402C492B
:1021200048600846406840F4405048600020294913
:102130000860002417E0E8092649091F08606806BE
:10214000050E022001F00FF801202349C1F8B0016B
:10215000022001F008F800201E490860022001F06A
:1021600002F8601CC4B2082CE5DB70BD70B50446F3
:1021700000251748406820F470401549486008461B
:10218000406840F400404860002616E000201149F5
:102190000860022000F0E7FF01200F49C1F8B001FC
:1021A0006806050E0B488438006808B1681CC5B283
:1021B000012000F0D8FF701CC6B2082EE6DB14B96F
:1021C000FFF786FF01E0FFF762FF284670BD0000C1
:1021D00000100140B00122420000224210B5FFF77A
:1021E000D1FE10BD70B504460026FFF7E5FE00BF26
:1021F0002546E11704EB11610912A02202EB41010F
:10220000C8B2FFF786FFFFF718FFE11704EB116173
:102210000912A4EB0121C8B2FFF77BFFFFF70DFF06
:10222000FFF7CAFEA120FFF774FFFFF706FF0020AB
:10223000FFF79CFF0646FFF7E1FE304670BD70B524
:1022400004460D46FFF7B8FE00BF2646E11704EB33
:1022500011610912A02202EB4101C8B2FFF759FF38
:10226000FFF7EBFEE11704EB11610912A4EB01216A
:10227000C8B2FFF74EFFFFF7E0FE2846FFF749FF21
:10228000FFF7DBFEFFF7BAFE0A2000F051FF70BD3A
:102290002DE9F04105460C461646002709E0FA00F4
:1022A00024FA02F2D1B2EA1990B2FFF7C8FF781C03
:1022B000C7B2B742F3DBBDE8F0812DE9F041044637
:1022C0000D460027002609E03F026119891B491EBF
:1022D00088B2FFF787FF0744701CC6B2AE42F3DB3B
:1022E0003846BDE8F08110B5FF20FFF77BFF0446BC
:1022F000552C01D1002010BD5521FF20FFF79FFF75
:10230000FF20FFF76FFF0446552C01D10020F2E7B4
:102310000120F0E770B504460D46164608E0204659
:10232000621C94B2FFF75EFF05F8010B701E86B2C7
:10233000002EF4D170BD70B504460E46154606E079
:1023400031782046FFF77BFF601C84B2761C2800A2
:10235000A5F101018DB2F3D170BD0000002100BFD5
:1023600015E010F0800F03D00122FB4B1A6002E051
:102370000022F94B1A604206100E0022F64B0C3B6D
:102380001A600122F54BC3F880214A1CD1B20829FA
:10239000E7DB704770B50446002600250020EE49B3
:1023A0000C390860ED49C1F8B4012046FFF7D6FFAB
:1023B000062000F0D8FE0120E7490C390860002013
:1023C000E649C1F8800100BF11E06804050C012056
:1023D000E1490C3908600020E049C1F88001DE487D
:1023E0008438006808B1681C85B2701CC6B20F2E14
:1023F000EBDBED100120D84928310860284670BD7C
:102400002DE9F04188B004464FF00008002506E0B1
:102410002046FFF7BFFF2DF81500681C85B20F2D71
:10242000F6DB002516E0681C86B20FE03DF81500CB
:102430003DF81610884207DD3DF815703DF816008E
:102440002DF815002DF81670701C86B20F2EEDDBDE
:10245000681C85B20E2DE6DB4FF00008052506E06E
:102460003DF8150040441FFA80F8681C85B20A2D1B
:10247000F6DB052098FBF0F087B2384608B0BDE8DF
:10248000F0812DE9F04104460D46B5480078FFF78C
:10249000B7FF0646B3480078FFF7B2FF0746642E41
:1024A00001DB642F02DA0020BDE8F08126802F8056
:1024B0000120F9E77FB504460D4602A903A8FFF7FE
:1024C000E0FF064616B9002004B070BD694601A8B9
:1024D000FFF7D7FF06460EB90020F5E7BDF8040068
:1024E000BDF80C10884206DCBDF80C10BDF80400E5
:1024F000323081420CDBBDF80C00BDF8041088427C
:1025000036DCBDF80410BDF80C00323081422FDA01
:10251000BDF80000BDF80810884206DCBDF80810C0
:10252000BDF80000323081420CDBBDF80800BDF878
:10253000001088421CDCBDF80010BDF808003230E5
:10254000814215DABDF80C10BDF80420881800EBA4
:10255000D071C1F34F012180BDF80810BDF80020F3
:10256000881800EBD071C1F34F0129800120ABE73F
:102570000020A9E738B17C49096841F002017B4A93
:10258000C2F8001406E07849096821F00201774A90
:10259000C2F80014704710B500240020FFF7EAFFCE
:1025A000002073490872891D881EFFF783FF04E02D
:1025B000601CC4B20A2000F0BBFD67488838006880
:1025C00008B9FA2CF4DD0120FFF7D4FFFA2C01DB67
:1025D000002010BD0120FCE770B504460D46A4F1B3
:1025E0000C0188B22B4604F10D022946FFF719FAB7
:1025F000A5F10C0081B2193083B222462046FFF7C4
:1026000010FA681C81B2601CFEF79BF9611E88B24B
:10261000691C89B2FEF795F9681E81B2601CFEF74D
:1026200090F96A1E91B2621E90B2FEF78AF90622F4
:1026300029462046FFF779FA70BD70B504460D466D
:1026400029462046FEF77DF92946601CFEF779F9F8
:10265000681C81B22046FEF774F9681C81B2601CC8
:10266000FEF76FF970BD2DE9F0414149891D881EC3
:10267000FFF720FF80B33E49B1F9140003F08AF957
:1026800006463B49888803F09EF907463848C168EA
:10269000384603F09DF90546314602F099FF04469D
:1026A00003F04CF932490880B1F9160003F072F9D1
:1026B00006462F49C88803F086F907462C48016969
:1026C000384603F085F90546314602F081FF04469D
:1026D00003F034F926494880BDE8F08101202449FF
:1026E00008720220204914310860704770B52049F3
:1026F000C868204903F06CF9054603F0E7F8044682
:10270000042221462820FFF7C3FD19490869194909
:1027100003F05EF9054603F0D9F804460422214689
:102720002C20FFF7B5FD1248B0F91410022230201A
:10273000FFF7AEFD0E48B0F9161002223220FFF767
:10274000A7FD0B48017E3420FFF779FD0A242146BE
:102750003520FFF774FD70BD8C012242000022423B
:102760001C0000201D00002000040140000001406A
:102770004000002020BCBE4C70B53520FFF732FD74
:1027800004460A2C40D104212820FFF796FD044678
:10279000204603F0FFF80546FF4902F0A5FFFF4978
:1027A000C86004212C20FFF788FD0446204603F072
:1027B000F1F80546F84902F097FFF849086102214F
:1027C0003020FFF77AFD00B2F449888202213220DE
:1027D000FFF773FD00B2F149C8823420FFF702FD14
:1027E000EE4908760846007E30B19020EC4908702A
:1027F000D020EC49087005E0D020E949087090200D
:10280000E8490870012070BD0020FCE710B50446BF
:10281000E5A228210846FFF70FFBE9A23C2128206A
:10282000FFF70AFBECA250212820FFF705FBF0A2DE
:1028300064212820FFF700FBEDA264212820FFF788
:10284000FBFA224678212820FFF7F6FA10BD2DE981
:10285000F04F89B0002400BF1F20EB4908804FF6DD
:10286000FF70EA490880FEF787F84FF47840E649A0
:1028700008804FF6FF70FEF77FF814210846FFF737
:10288000ABFE0020C5490872C860B4E3C348007AB3
:1028900001287ED1FFF77FFE68B1C048808800B272
:1028A00005A921F82400BD48C08800B201EB8401CD
:1028B0004880601CC4B2012C06D0022C0DD0032C21
:1028C00015D0042C08D11CE04FF6FF70FEF754F829
:1028D0001421DC20FFF780FE8BE34FF6FF70FEF73C
:1028E0004BF84FF496711420FFF776FE81E34FF614
:1028F000FF70FEF741F84FF49671DC20FFF76CFE95
:1029000077E3BDF91410BDF91820881A01D40146E7
:1029100000E041420F46BDF91620BDF91A10501AC9
:1029200001D4014600E0414288467F4308FB08F895
:1029300007EB080002F000FDCDE9020102F036FCD1
:10294000CDE9000102F0A8FC85B2BDF91C10BDF96B
:102950002020881A01D4014600E041420F46BDF90B
:102960001E20BDF92210501A01D4014600E0414258
:1029700088467F4308FB08F807EB080002F0DCFC00
:10298000CDE9020102F012FCCDE9000102F084FC65
:1029900000E02FE386B2304603F015F88146284662
:1029A00003F011F88246494602F09EFE0490049816
:1029B00002F0E6FDCDE9000195A00CC8009802F0F8
:1029C000C1FC0DD3049802F0DBFDCDE9020192A019
:1029D0000CC8029802F0EEFC02D30DB1002E64D1B7
:1029E00000244FF6FF70FDF7C7FF14210846FFF7DC
:1029F000F3FD8BA0FFF70AFF10230093BDF914200D
:102A0000042328214020FFF785F910230093BDF906
:102A10001620042328219020FFF77CF9102300932F
:102A2000BDF9182004233C214020FFF773F910233F
:102A30000093BDF91A2004233C219020FFF76AF986
:102A400010230093BDF91C20042350214020FFF7E0
:102A500061F910230093BDF91E200423502190201A
:102A6000FFF758F910230093BDF9202004236421B7
:102A70004020FFF74FF910230093BDF922200423D3
:102A800064219020FFF746F96849049802F0A0FFFE
:102A9000824602F053FF814610230093032302462F
:102AA0008C212820FFF736F9A5E2BDF91410BDF9F5
:102AB0001C20881A01D4014600E041420F46BDF9AE
:102AC0001620BDF91E10501A01D4014600E0414203
:102AD00088467F4308FB08F807EB080002F02CFC4F
:102AE000CDE9020102F062FBCDE9000102F0D4FB66
:102AF00085B2BDF91810BDF92020881A01D401460D
:102B000000E041420F46BDF91A20BDF92210501ACB
:102B100001D4014600E0414288467F4308FB08F8A3
:102B200007EB080002F008FCCDE9020102F03EFBD1
:102B3000CDE9000102F0B0FB86B2304602F043FF5F
:102B40008146284602F03FFF8246494602F0CCFD0E
:102B50000490049802F014FDCDE900012CA00CC8EB
:102B6000009802F0EFFB0AD3049802F009FDCDE9CA
:102B7000020129A00CC8029802F01CFC7ED200249D
:102B80004FF6FF70FDF7F8FE14210846FFF724FD0D
:102B900027A0FFF73BFE51E020BCBE4C40000020C8
:102BA0001C0000201D00002078313A202020202029
:102BB000202079313A202020202020200000000011
:102BC00078323A2020202020202079323A202020FC
:102BD000202020200000000078333A2020202020F0
:102BE000202079333A2020202020202000000000DF
:102BF00078343A2020202020202079343A202020C8
:102C000020202020000000001600002018000020D6
:102C1000666666666666EE3FCDCCCCCCCCCCF03F2B
:102C2000766572206661632069733A000000C842CD
:102C3000686F72206661632069733A001023009305
:102C4000BDF91420042328214020FFF763F8102346
:102C50000093BDF91620042328219020FFF75AF88D
:102C600010230093BDF9182004233C214020FFF7D6
:102C700051F810230093BDF91A2000E039E0042335
:102C80003C219020FFF746F810230093BDF91C204B
:102C9000042350214020FFF73DF810230093BDF995
:102CA0001E20042350219020FFF734F810230093B6
:102CB000BDF92020042364214020FFF72BF81023C6
:102CC0000093BDF92220042364219020FFF722F80D
:102CD000F549049802F07CFE824602F02FFE814600
:102CE00010230093032302468C212820FFF712F8BB
:102CF00081E1BDF91810BDF91C20881A01D40146E4
:102D000000E041420F46BDF91A20BDF91E10501ACD
:102D100001D4014600E0414288467F4308FB08F8A1
:102D200007EB080002F008FBCDE9020102F03EFAD1
:102D3000CDE9000102F0B0FA85B2BDF91410BDF979
:102D40002020881A01D4014600E041420F46BDF917
:102D50001620BDF92210501A01D4014600E041426C
:102D600088467F4308FB08F807EB080002F0E4FA06
:102D7000CDE9020102F01AFACDE9000102F08CFA65
:102D800086B2304602F01FFE8146284602F01BFE46
:102D90008246494602F0A8FC0490049802F0F0FB39
:102DA000CDE90001AFF298100CC8009802F0CAFA01
:102DB0000BD3049802F0E4FBCDE90201AFF2A810B6
:102DC0000CC8029802F0F6FA64D200244FF6FF70A5
:102DD000FDF7D2FD14210846FFF7FEFBB3A0FFF775
:102DE00015FD10230093BDF9142004232821402051
:102DF000FEF790FF10230093BDF91620042328212D
:102E00009020FEF787FF10230093BDF918200423BC
:102E10003C214020FEF77EFF10230093BDF91A20CD
:102E200004233C219020FEF775FF10230093BDF989
:102E30001C20042350214020FEF76CFF1023009338
:102E4000BDF91E20042350219020FEF763FF1023BC
:102E50000093BDF92020042364214020FEF75AFF8F
:102E600010230093BDF92220042364219020FEF753
:102E700051FF8D49049802F0ABFD824602F05EFDE1
:102E8000814610230093032302468C212820FEF75D
:102E900041FFB0E0BDF91810BDF91420881A02F006
:102EA00079FD81460146844802F01EFC8349C860D2
:102EB000BDF91810BDF91420881802F06BFD0390BD
:102EC0007E48C168039802F083FD83467C4902F086
:102ED00028FE82464FF0804102F006FC814602F057
:102EE000F5FC00B275498882BDF91E10BDF91620A7
:102EF000881A02F04FFD81460146724802F0F4FB49
:102F00006E490861BDF91E10BDF91620881802F03F
:102F100041FD039069480169039802F059FD834619
:102F2000694902F0FEFD82464FF0804102F0DCFB71
:102F3000814602F0CBFC00B26049C882C86802F04A
:102F4000C5FCB0F1000A01DB504601E0CAF1000007
:102F500002280CDC5949086902F0B8FCB0F10009FC
:102F600001DB484601E0C9F1000002282ADD002407
:102F70004FF6FF70FDF700FD14210846FFF72CFB0C
:102F800052A26E212320FEF757FF4C48007E08B95D
:102F9000012000E00020494908760846007E30B153
:102FA00090204F490870D0204E49087005E0D0208D
:102FB0004B49087090204B4908704FF4FA7000F0AC
:102FC000B7F818E01F20484908804FF6FF70FDF75A
:102FD000D3FC46A26E212320FEF72EFF4FF4FA7099
:102FE00000F0A6F84FF6FF70FDF7C6FC09B0BDE88B
:102FF000F08F00BF00BF49E41FB50121112000F090
:1030000031FE42F20900ADF8080010208DF80B00E7
:1030100003208DF80A0002A93A4800F0EFFA0620D2
:10302000ADF8080048208DF80B0002A9354800F0E3
:10303000E5FA2249891D881EFFF723FA07208DF83B
:103040000C0002208DF80D0000208DF80E000120EC
:103050008DF80F0003A800F06EF90121084600F07A
:1030600001FE0121022000F0D8FB02200090002088
:103070008DF804000C208DF8050001208DF8060065
:10308000684600F0D3F9FFF7A9F8FFF775FB00B128
:103090001FBD4FF6FF70FDF76FFCFFF7D8FBFFF782
:1030A00025FBFFF769FBF3E70000C8426469612074
:1030B0006661632069733A000000484340000020C5
:1030C0000000704300008C430000A0435450204E89
:1030D00065656420726561646A757374210000001F
:1030E0001C0000201D00002016000020546F756396
:1030F000682053637265656E2041646A757374203D
:103100004F4B21000010014010B504466FF0040041
:1031100000F05EF9E11704EB5171C9101F4A1170FC
:10312000104600784FF47A714843911C088010BD16
:103130001A4A921C128842434FF0E0235A6100223F
:103140009A6101221A6100BF4FF0E022116911F06B
:10315000010F02D011F4803FF6D000224FF0E0239F
:103160001A619A6170470D4A127842434FF0E0238A
:103170005A6100229A6101221A6100BF4FF0E022D9
:10318000116911F0010F02D011F4803FF6D0002236
:103190004FF0E0231A619A61704700001E00002082
:1031A00010B54FF4A06000F0C1F810BD014600BF9B
:1031B000704700BF494A128812F0400FFAD0C2B2DD
:1031C000464B1B1D1A80704710B586B0044601217E
:1031D00044F2050000F046FD4FF40070ADF8140015
:1031E00003208DF8160018208DF8170005A93C481B
:1031F00000F004FA4FF48060ADF8140004208DF85C
:10320000170005A9364800F0F9F925208DF80000CF
:1032100003208DF801008DF8020001208DF80300D5
:10322000684600F088F801940020ADF80800ADF879
:103230000A00ADF80C00ADF810000C20ADF80E003F
:1032400001A9264801F065FC012240F225512348DE
:1032500001F0F6FC0121214801F0E6FC06B010BDAA
:1032600010B540F225511D4801F0D1FD002834D0A1
:103270001A4801F04CFDC4B21A48007810F0800FD3
:103280002BD11848007810F0400F0CD00A2C03D036
:1032900000201449087020E01248007840F08000B7
:1032A0001049087019E00D2C06D10E48007840F046
:1032B00040000C49087010E00A48007800F03F0018
:1032C00009490C5407480078401C06490870084614
:1032D00000783F2801DD0020087010BD0038014053
:1032E00000080140240000205C00002009488047BD
:1032F00009480047FEE7FEE7FEE7FEE7FEE7FEE7D8
:10330000FEE7FEE7FEE7FEE704480549054A064BEF
:103310007047000009040008ED00000800010020CB
:103320000007002000030020000300203249014371
:10333000324A1160704770B5002100230F22C47813
:103340000CB32E4C246804F4E064C4F5E064210A54
:10335000C1F10403CA40447804FA03F184781440AC
:1033600021430901264C0678A155047804F01F0575
:103370000124AC4005786D114FF0E02606EB850581
:10338000C5F8004109E0047804F01F040125A540B8
:103390001C4C0678761144F8265070BD1A4A0A4033
:1033A0000243164B1B1F1A60704741B1134A121D8E
:1033B000126802434FF0E023C3F8102D07E00F4AD4
:1033C000121D126882434FF0E023C3F8102D70479E
:1033D000042808D14FF0E021096941F004014FF0C1
:1033E000E022116107E04FF0E021096921F00401BA
:1033F0004FF0E022116170470000FA050CED00E08B
:1034000000E400E080E100E080FFFF1F0020484969
:1034100008604849C1F80404454908310860091D9D
:10342000086045484249143108607047002140490E
:103430008279002A40D03F4AD2F8002403689A4398
:103440003C4BC3F800241A46D2F8042403689A437C
:103450000B1D1A60027911440A6803681A430A6056
:10346000344AD2F8082403689A43324BC3F808243C
:103470001A46D2F80C2403689A432D4B0C331A6079
:103480004279102A10D12B4AD2F8082403681A4333
:10349000284BC3F808241A46D2F80C2403681A43B0
:1034A000244BC3F80C240DE02149427911440A68E9
:1034B00003681A430A6005E0027911440A68036848
:1034C0009A430A6070470021016001710C2141712B
:1034D0000021817170471649103109680143154A6E
:1034E000C2F81014704701460020114A14321268C5
:1034F0000A4201D0012000E0002070470C4914313D
:1035000008607047014600200022094B1B6803EA4F
:103510000102084BD3F814340B4202D00AB1012047
:1035200000E0002070470249143108607047000035
:103530000004014000000140FFFF0F0010B50446E9
:10354000C748844208D10121042000F0A5FB0021D6
:10355000042000F0A1FB46E0C248844208D10121CA
:10356000082000F099FB0021082000F095FB3AE0CC
:10357000BD48844208D10121102000F08DFB0021BC
:10358000102000F089FB2EE0B848844208D10121C8
:10359000202000F081FB0021202000F07DFB22E0B4
:1035A000B348844208D10121402000F075FB00217E
:1035B000402000F071FB16E0AE48844208D10121A2
:1035C000802000F069FB0021802000F065FB0AE00C
:1035D000A948844207D10121801500F05DFB00213C
:1035E000A01500F059FB10BD10B50121084600F0F0
:1035F00053FB0021012000F04FFB10BDF0B500226D
:103600000023002400250026002791F803C00CF0B9
:103610000F0291F803C01CF0100F03D091F802C004
:103620004CEA0202B1F800C01CF0FF0F31D006686E
:1036300000242BE04FF0010C0CFA04F5B1F800C0A7
:103640000CEA0503AB4220D1A5004FF00F0C0CFA99
:1036500005F7BE4302FA05FC4CEA060691F803C0E2
:10366000BCF1280F06D14FF0010C0CFA04FCC0F895
:1036700014C00AE091F803C0BCF1480F05D14FF027
:10368000010C0CFA04FCC0F810C0641C082CD1D347
:103690000660B1F800C0BCF1FF0F34DD46680024BD
:1036A0002EE004F1080C4FF0010E0EFA0CF5B1F803
:1036B00000C00CEA0503AB4221D1A5004FF00F0C6E
:1036C0000CFA05F7BE4302FA05FC4CEA060691F82F
:1036D00003C0BCF1280F05D104F1080C0EFA0CFE52
:1036E000C0F814E091F803C0BCF1480F07D104F111
:1036F000080C4FF0010E0EFA0CFEC0F810E0641C2E
:10370000082CCED34660F0BD4FF6FF710180022138
:1037100081700421C17070470246002093680B42FB
:1037200001D0012000E0002070470146886880B287
:10373000704702460020D3680B4201D0012000E010
:10374000002070470146C86880B270470161704729
:10375000416170470AB1016100E041617047C16099
:1037600070474FF480320A438261816182618269CD
:10377000826970470022414B1A684FF680731A40E5
:1037800042EA00120A433D4B1A6070473C49C86147
:103790007047F0B5002200230024002500F0004609
:1037A000B6F1004F02D1354EF46901E0334E746832
:1037B000C0F3034582B200F44016B6F5401F08D1AD
:1037C00024F070642D4E766826F070662B4F7E6074
:1037D00012E000F48016B6F5801F06D1032606FA23
:1037E00005F39C4344F0706406E0460D360102FA8E
:1037F00006F6B44344F0706421B1460D360102FA76
:1038000006F6344300F00046B6F1004F02D11B4EDD
:10381000F46101E0194E7460F0BD30B500228B07F1
:103820001C0F0F2303FA04F2144B08338C1053F8C7
:10383000244094438D1043F825408C1053F82430D5
:103840008C07240F00FA04F423430C4C08348D1029
:1038500044F8253030BD0A49DC310860704700006B
:1038600000080140000C014000100140001401401C
:1038700000180140001C01400020014000000140F0
:10388000000020420E49086070470D4948607047AB
:103890000B49886070474AF6AA20094908607047BA
:1038A0004CF6CC4006490860704701460020044AA7
:1038B000D2680A4201D0012000E0002070470000D9
:1038C0000030004010B50121080700F0F2F9002196
:1038D0004FF0805000F0EDF910BD2C4908627047A0
:1038E0002A49086170470021294A116821F0E00146
:1038F0000143116070472549A0310860704710B539
:103900000022234B1A6822F0030202431A60214B63
:103910001B6843F004034FF0E024C4F8103D012974
:1039200001D130BF00E020BF1A4B1B6823F0040315
:103930004FF0E024C4F8103D10BD1548006840F079
:103940000400134908600846006840F0020008605F
:103950001048006840F004004FF0E021C1F8100D5D
:1039600000BF00BF30BF704701460020084A5268C0
:103970000A4201D0012000E0002070470449096894
:1039800041EA8001024A11607047000000000E42C7
:103990000070004010ED00E0DB48006840F00100DE
:1039A000D949086008464068D8490840D649486067
:1039B00008460068D6490840D349086008460068B0
:1039C00020F4802008600846406820F4FE0048602B
:1039D0004FF41F0088607047CB49096821F480319B
:1039E000C94A11601146096821F480211160B0F5BF
:1039F000803F03D0B0F5802F0ED106E0C2490968A0
:103A000041F48031C04A116007E0BF49096841F4C0
:103A1000A021BD4A116000E000BF00BF704710B593
:103A200001460022002300204A11012A02D1B64C8F
:103A3000236806E0022A02D1B34C236A01E0B24CAB
:103A4000636A01F01F02012494401C4201D001204E
:103A500000E0002010BD70B500240025002600BF46
:103A60003120FFF7DCFF0646641CB4F5A06F01D0DF
:103A7000002EF5D03120FFF7D2FF08B1012500E07C
:103A80000025284670BD00219F4A116821F0F801E9
:103A900041EAC001116070479E49086070470022EA
:103AA000994B5A6822F47C1240EA01031A43964B60
:103AB0005A6070479749086670470021924A5168DA
:103AC00021F003010143516070478F48406800F0C6
:103AD0000C00704700218C4A516821F0F00101432D
:103AE000516070470021884A516821F4E061014328
:103AF000516070470021844A516821F4605141EAC5
:103B0000C0015160704729B17F4A527A02437E4B0F
:103B10005A7206E07C4A527AC343DBB21A407A4BAF
:103B20005A7270477B49D831086070470021764A45
:103B3000516821F440410143516070470021724AAD
:103B400020321170704A82F82010012802D0042817
:103B50000AD104E001216C4A2032117005E00521F0
:103B6000694A2032117000E000BF00BF70476A4907
:103B7000086070476449096A0143634A11627047EB
:103B8000654944390860704730B5002100220023A0
:103B900000245D4D6D6805F00C0121B1042905D0AC
:103BA000082923D105E05D4D056022E05B4D0560ED
:103BB0001FE0554D6D6805F47012534D6D6805F4A6
:103BC0008033022505EB92421BB9554D55430560E4
:103BD0000BE04D4D6D6815F4003F03D0504D55433B
:103BE000056002E04D4D5543056002E04B4D056018
:103BF00000BF00BF444D6D6805F0F0010909494D53
:103C00006C5C0568E54045603F4D6D6805F4E0611A
:103C1000090A444D6C5C4568E54085603A4D6D6825
:103C200005F46051C90A3F4D6C5C4568E540C560CC
:103C3000354D6D6805F44041890B3A4D10356C5C8B
:103C4000C568B5FBF4F5056130BD29B12E4A52694E
:103C500002432D4B5A6104E02B4A526982432A4B9E
:103C60005A61704729B1284A92690243264B9A61EA
:103C700004E0254A92698243234B9A61704729B137
:103C8000214AD2690243204BDA6104E01E4AD2691C
:103C900082431D4BDA61704729B11B4AD268024347
:103CA000194BDA6004E0184AD2688243164BDA6096
:103CB000704729B1144A12690243134B1A6104E098
:103CC000114A12698243104B1A61704712494039F8
:103CD000086070470F49C86470470B49C871704746
:103CE0000948406A40F080700749486270470146C1
:103CF0000020054A92680A4201D0012000E000201D
:103D00007047014988727047001002400000FFF8B8
:103D1000FFFFF6FE000042428004424200127A0099
:103D200000093D002C00002010B50446FF488442E5
:103D300008D10121C014FFF7AFFF0021E014FFF705
:103D4000ABFFC4E0B4F1804F08D101210846FFF772
:103D5000B0FF00210120FFF7ACFFB8E0F448844237
:103D600008D101210220FFF7A4FF00210220FFF764
:103D7000A0FFACE0EF48844208D101210420FFF706
:103D800098FF00210420FFF794FFA0E0EA48844256
:103D900008D101210820FFF78CFF00210820FFF740
:103DA00088FF94E0E548844208D101211020FFF704
:103DB00080FF00211020FFF77CFF88E0E04884426C
:103DC00008D101212020FFF774FF00212020FFF7F8
:103DD00070FF7CE0DB48844208D101214014FFF7EA
:103DE0005BFF00216014FFF757FF70E0D648844264
:103DF00009D10121C804FFF74FFF00214FF4002033
:103E0000FFF74AFF63E0D148844209D10121080548
:103E1000FFF742FF00214FF48010FFF73DFF56E00F
:103E2000CB48844209D101214805FFF735FF002125
:103E30004FF40010FFF730FF49E0C648844208D134
:103E400001214020FFF735FF00214020FFF731FF1F
:103E50003DE0C148844208D101218020FFF729FFBD
:103E600000218020FFF725FF31E0BC48844208D1C3
:103E700001218015FFF71DFF0021A015FFF719FF95
:103E800025E0B748844209D101210804FFF704FF67
:103E900000214FF48030FFF7FFFE18E0B148844264
:103EA00009D101214804FFF7F7FE00214FF400304B
:103EB000FFF7F2FE0BE0AC48844208D101218804F0
:103EC000FFF7EAFE00214FF48020FFF7E5FE10BD6A
:103ED00000220288954B98420ED09A4B98420BD004
:103EE000B0F1804F08D0924B984205D0914B984248
:103EF00002D0914B984204D14FF68F731A404B88F1
:103F00001A438E4B984207D08D4B984204D04FF6FF
:103F1000FF431A40CB881A4302808B8883850B8825
:103F20000385824B98420BD0864B984208D08C4B2D
:103F3000984205D08B4B984202D08B4B984201D1CE
:103F40000B7A038601238382704770B50022002319
:103F50000024058C4FF6FE7635400584038C84885A
:103F6000028B4FF68F752A40B51E2A400D882A43D2
:103F7000751E2B400D892B434D882B436B4DA8425A
:103F80000BD0704DA84208D0754DA84205D0754D94
:103F9000A84202D0744DA84213D14FF6F7752B40BA
:103FA0004D892B434FF6FB752B408D882B434FF6E5
:103FB000FF652C404FF6FF552C408D892C43CD8951
:103FC0002C4384800283CD888586038470BD70B5C0
:103FD000002200230024058C4FF6EF76354005843F
:103FE000038C8488028B48F6FF752A404FF6FF4504
:103FF0002A400D882D0642EA15424FF6DF752B4008
:104000000D892D0543EA15434D882D0543EA1543D7
:10401000464DA84202D04B4DA8421BD14FF67F75AA
:104020002B404D892D0543EA15434FF6BF752B40B4
:104030008D882D0543EA15434FF6FF352C404FF28E
:10404000FF752C408D89AD0444EA1544CD89AD043B
:1040500044EA154484800283CD880587038470BDBB
:1040600070B5002200230024058C4FF6FF66354012
:104070000584038C8488828B4FF68F752A404FF617
:10408000FC752A400D882A434FF6FF552B400D89B9
:104090002D0643EA15434D882D0643EA1543234D6B
:1040A000A84202D0274DA8421BD14FF2FF752B40EA
:1040B0004D892D0643EA15434FF6FF352B408D8879
:1040C0002D0643EA15434EF6FF752C404DF6FF755D
:1040D0002C408D892D0544EA1544CD892D0544EAEF
:1040E000154484808283CD888587038470BD70B534
:1040F000002200230024058C4EF6FF76354005840F
:10410000038C8488828B48F6FF752A404FF6FF4562
:104110002A400D882D0642EA15424DF6FF752B40C8
:104120000D892D0743EA15434D881FE0002C0140FF
:104130000004004000080040000C00400010004057
:104140000014004000340140004C01400050014088
:104150000054014000180040001C004000200040B6
:104160000040014000440140004801402D0743EA5F
:104170001543F84DA84202D0F74DA84206D14BF6A0
:10418000FF752C408D89AD0544EA154484808283F7
:10419000CD88A0F84050038470BD828B4FF2FF336E
:1041A0001A408283828B0B0642EA13428283704755
:1041B000F0B5002400250026078C4EF6FF7C07EAA8
:1041C0000C070784848B058C0F073E0C40F6FF47D5
:1041D0003C40170644EA17441F0744EA1744DD4FE2
:1041E000B8420ED0DC4FB8420BD0B0F1804F08D0AF
:1041F000DA4FB84205D0DA4FB84202D0D94FB842B0
:1042000006D14DF6FF773D4046F480573D4305E02B
:1042100047F6FF573D4041F480573D438483058472
:10422000F0BD828B4FF6F3731A408283828B0A4370
:1042300082837047F0B5002400250026078C4FF6D6
:10424000FF6C07EA0C070784848B058C0F063E0C75
:104250004FF60C773C401F0542EA17473C43BD4FE1
:10426000B8420ED0BC4FB8420BD0B0F1804F08D04E
:10427000BA4FB84205D0BA4FB84202D0B94FB8428F
:1042800006D14FF6FF573D4046F480773D4305E0A9
:104290004FF2FF573D4041F480773D4384830584CE
:1042A000F0BD028B4FF2FF331A400283028B0B06E4
:1042B00042EA134202837047F0B50024002500262D
:1042C000078C4FF6EF7C07EA0C070784048B058CFC
:1042D0000F053E0C40F6FF473C401F0744EA1744D9
:1042E000170644EA17449B4FB8420ED09A4FB84283
:1042F0000BD0B0F1804F08D0984FB84205D0984FFE
:10430000B84202D0974FB84206D14FF6DF773D4012
:1043100046F010073D4305E04FF65F773D4041F022
:1043200010073D4304830584F0BD028B4FF6F37301
:104330001A400283028B0A4302837047F0B50024BF
:104340000025068C4FF6FE773E400684048B058CD4
:104350004FF60C7634401E0542EA164634437D4E35
:10436000B0420ED07C4EB0420BD0B0F1804F08D09E
:104370007A4EB04205D07A4EB04202D0794EB04269
:1043800006D14FF6FD76354041F00106354305E094
:104390004FF6F576354041F0010635430483058438
:1043A000F0BD70B504460D466A4884420ED06A4896
:1043B00084420BD0B4F1804F08D06848844205D0C5
:1043C0006748844202D06748844200D100E000BFC1
:1043D000288850B92B89AA8869882046FFF7AEFF44
:1043E000E9882046FFF7A1FF25E0288804280AD1A4
:1043F0002B89AA8869882046FFF75EFFE988204656
:10440000FFF74FFF17E0288808280AD12B89AA88D0
:1044100069882046FFF70EFFE9882046FFF701FF75
:1044200009E02B89AA8869882046FFF7C1FEE98840
:104430002046FFF7B2FE70BD2DE9F04104460D465F
:1044400000260127688808B9022600E00026A8880F
:10445000012801D1022700E001272888A0B92B8973
:10446000AA8869882046FFF769FFE9882046FFF798
:104470005CFF2B893A4631462046FFF71DFFE9884D
:104480002046FFF70EFF13E02B89AA886988204693
:10449000FFF712FFE9882046FFF703FF2B893A4612
:1044A00031462046FFF74AFFE9882046FFF73DFFE7
:1044B000BDE8F0810A884B881A438B881A43CB8861
:1044C0001A430B891A434B891A438B891A43A0F864
:1044D000442070474FF6FF71818000210180C18028
:1044E0004180017270470021018041808180C1803C
:1044F000018141818181C18170470021018041801A
:10450000012181800021C18001817047002101804B
:1045100041808180C180018141818181704721B1C9
:10452000028842F00102028004E002884FF6FE7326
:104530001A400280704731B1B0F8442042F4004282
:10454000A0F8442005E0B0F84420C2F30E02A0F821
:1045500044207047002C014000340140000400401A
:1045600000080040000C004010B51AB183890B43CD
:10457000838104E08389CC43A4B22340838110BDAE
:104580008182704741EA0203A0F84830704710B5B5
:104590001AB183890B43838104E08389CC43A4B29D
:1045A0002340838110BD01894FF6F87211400181CB
:1045B0007047002202894FF68F731A400A43028126
:1045C000704730B504460D4629462046FFF7F1FFF7
:1045D000208940F00700208130BD2DE9F0410446DC
:1045E0000D4616461F46602D06D13B460122314638
:1045F0002046FFF761FE05E03B460122314620469A
:10460000FFF79CFE29462046FFF7D3FF208940F0A4
:1046100007002081BDE8F08130B500240489E4B2B0
:104620001D0642EA15450D432C43048130BD2DE99A
:10463000F04104460D46164698460027434632464A
:1046400029462046FFF7E8FF27894FF6F870074014
:1046500047F007074FF68F70074047F07007278134
:10466000BDE8F081F0B504460D4616461F463B46B0
:10467000324629462046FFF7CFFF208940F480408C
:104680002081F0BD018582827047002202884FF6AA
:104690008F731A400A4302807047F0B5002400254A
:1046A00000260489058B068C4FF6F8773C400C43B6
:1046B0004FF6FC473D4040F201173D434FF6DD7792
:1046C0003E401F0542EA17473E43048105830684A6
:1046D000F0BD0022028B4FF68F731A400A4302830B
:1046E00070470022028B48F6FF731A400B0642EA1D
:1046F0001342028370470022828B4FF68F731A4059
:104700000A43828370470022828B48F6FF731A4067
:104710000B0642EA13428283704721B1028842F0BD
:104720008002028004E002884FF67F731A40028004
:10473000704721B1828842F00402828004E08288BE
:104740004FF6FB731A408280704721B1828842F095
:104750000802828004E082884FF6F7731A40828054
:10476000704721B1828842F00102828004E0828891
:104770004FF6FE731A40828070470022028B4FF67C
:10478000F7731A400A43028370470022028B4FF2EC
:10479000FF731A400B0642EA13420283704700225D
:1047A000828B4FF6F7731A400A43828370470022C8
:1047B000828B4FF2FF731A400B0642EA1342828348
:1047C00070470022028B4FF6FB731A400A430283A4
:1047D00070470022028B4FF6FF331A400B0642EA65
:1047E0001342028370470022828B4FF6FB731A40FC
:1047F0000A43828370470022828B4FF6FF331A40B0
:104800000B0642EA1342828370470022028B4FF666
:104810007F731A400A43028370470022028BC2F35F
:104820000E020B0642EA1342028370470022828B7B
:104830004FF67F731A400A43828370470022828BAF
:10484000C2F30E020B0642EA134282837047002233
:10485000028C4FF6FD731A400A430284704700220F
:10486000028C4FF6F7731A400A4302847047002205
:10487000028C4FF6DF731A400B0542EA13420284A2
:1048800070470022028C4FF67F731A400B0542EAF4
:104890001342028470470022028C4FF6FF531A40E5
:1048A0000B0642EA1342028470470022028C4FF248
:1048B000FF731A400B0642EA13420284704700223B
:1048C000028C4DF6FF731A400B0742EA1342028432
:1048D000704730B5002301248C40A3B2048CDD4323
:1048E000ADB22C400484048C02FA01F5ADB22C4325
:1048F000048430BD30B5002304248C40A3B2048C62
:10490000DD43ADB22C400484048C02FA01F5ADB253
:104910002C43048430BD70B50023002403461846A0
:10492000183301258D40ACB2058CE643B6B2354054
:10493000058409B1082909D103EB61031D6825F03D
:1049400070051D601D6815431D600CE00D1FADB2A4
:1049500003EB65031D6825F4E0451D601D68160620
:1049600045EA16451D6070BD21B1028842F0020281
:10497000028004E002884FF6FD731A4002807047FF
:1049800021B1028842F00402028004E002884FF65E
:10499000FB731A400280704721B1828842F0800286
:1049A000828004E082884FF67F731A4082807047CD
:1049B00002884FF6F7731A40028002880A43028089
:1049C000704782884FF68F731A40828082880A432C
:1049D0008280704702894FF6F8731A40028102897B
:1049E0000A430281704702894FF67F731A400281A1
:1049F00002890A430281704781847047818570472C
:104A0000818670470187704781877047A0F8401002
:104A1000704702884FF6FF431A40028002880A431B
:104A2000028070470146888E70470146088F7047A4
:104A30000146888F70470146B1F840007047014633
:104A4000888C70470146088D704702460020138A03
:104A50000B4201D0012000E000207047CA430282CF
:104A6000704730B50246002000230024158A05EA6D
:104A70000103958905EA010413B10CB1012000E09E
:104A8000002030BDCA4302827047000010B50446C2
:104A9000FB48844209D101218803FFF7FDF800217A
:104AA0004FF48040FFF7F8F832E0F648844209D12D
:104AB00001214804FFF7FDF800214FF40030FFF713
:104AC000F8F825E0F048844209D101218804FFF775
:104AD000F0F800214FF48020FFF7EBF818E0EB48E6
:104AE000844209D10121C804FFF7E3F800214FF403
:104AF0000020FFF7DEF80BE0E548844208D10121F1
:104B00000805FFF7D6F800214FF48010FFF7D1F821
:104B100010BD2DE9F04786B004460D46002600275B
:104B200000BFB146B246A88900B100BFA246268A9E
:104B30004CF6FF700640E88806432682A6894EF6AA
:104B4000F3100640A8882989084369890843064369
:104B5000A681A68A4FF6FF400640A8890643A68292
:104B600001A8FFF711F85446C548824501D1049FBA
:104B700000E0039FA08910F4004F08D007EBC700A6
:104B800000EB071029684900B0FBF1F807E007EBDC
:104B9000C70000EB071029688900B0FBF1F864201A
:104BA000B8FBF0F006013009642101FB1089A089EF
:104BB00010F4004F09D0322101EBC9006421B0FB91
:104BC000F1F000F00700064308E0322101EB091084
:104BD0006421B0FBF1F000F00F000643268106B01F
:104BE000BDE8F0874FF41651016000218180C1803B
:104BF00001810C21418100218181704710B5002283
:104C0000028A4FF2FF031A400B884C8823438C889A
:104C10002343CC8823431A43028210BD0021018024
:104C200041808180C180704721B1828942F4005265
:104C3000828104E082894DF6FF731A4082817047B9
:104C4000F0B50024002500260023A1F510676A3F77
:104C500000D100BF0346C1F3421401F01F05012734
:104C600007FA05F6012C01D10C3304E0022C01D126
:104C7000103300E014331AB11F6837431F6002E09D
:104C80001F68B7431F60F0BD10B51AB1838A0B438C
:104C9000838204E0838ACC43A4B22340838210BD84
:104CA000028A4FF6F0731A400282028A0A43028295
:104CB000704782894FF2FF731A40828182890A43CA
:104CC0008281704721B1828942F00202828104E030
:104CD00082894FF6FD731A4082817047028A4FF62F
:104CE000DF731A400282028A0A430282704721B1AE
:104CF000028A42F48042028204E0028A4BF6FF7389
:104D00001A4002827047C1F3080282807047014650
:104D10008888C0F308007047818941F001018181D2
:104D20007047028BD2B20283028B42EA01220283D5
:104D30007047028B02F47F420283028B0A43028394
:104D4000704721B1828A42F02002828204E0828A86
:104D50004FF6DF731A408282704721B1828A42F097
:104D60001002828204E0828A4FF6EF731A40828238
:104D7000704721B1828A42F00802828204E0828A6E
:104D80004FF6F7731A408282704721B1828942F44C
:104D90000042828103E08289C2F30E028281704761
:104DA00021B1828A42F40062828204E0828A4FF258
:104DB000FF731A4082827047828A4FF6FB731A4053
:104DC0008282828A0A438282704721B1828A42F0BB
:104DD0000202828204E0828A4FF6FD731A408282C8
:104DE000704702460020B1F5007F00D100BF138854
:104DF0000B4201D0012000E00020704701F4007256
:104E0000B2F5007F00D100BFCA430280704770B581
:104E100002460023002400250020A1F510666A3E0A
:104E200000D100BFC1F3421501F01F04012606FAAC
:104E300004F4012D02D19689344006E0022D02D1FE
:104E4000168A344001E0968A34400B12012606FA95
:104E500003F31688334014B10BB1012000E00020A9
:104E600070BD10B500220023A1F510646A3C00D18A
:104E700000BF0A1201249440A3B2DC43048010BD99
:104E8000003801400044004000480040004C004011
:104E90000050004010B50121C802FEF70AFF0021B2
:104EA0004FF40060FEF705FF10BD0021174A12689D
:104EB00022F4C0710143164AC2F8041C7047002155
:104EC000124A126822F07F0100F07F021143104A5B
:104ED000C2F8041C704701200E490860704700F0BA
:104EE0007F010A4A121F1160704740F08001074A93
:104EF000121F116070470548001D0068C0B270475E
:104F000000200249091D086070470000042C004081
:104F100000200040A4800542704700000FB4054AFD
:104F2000054910B503AB7944029800F0D8F810BCDD
:104F30005DF814FB2800002089E2FFFF2DE9F04115
:104F400004460E4600202BE0E1682046884748B31F
:104F5000252802D0D4E901211FE0E168204600277E
:104F6000884705001ED0A5F14100192802D8203538
:104F70004FF400673246294620462760FBF7F0F8D9
:104F800040B1012801D1361DDEE7F61D26F00706E7
:104F90000836D9E7D4E9012128469047206A401C09
:104FA0002062D1E7206ABDE8F081000070B50446B8
:104FB0000D4621461068AFF300802168090502D52F
:104FC000104A7A4402E00F4A7A440E32002104F17A
:104FD000240306E000F00F064FEA1010965D5E54C1
:104FE000491C0028F6D120680023000704D5702D45
:104FF00002D009B1113202232046BDE8704000F012
:1050000012B80000141800007047704770477047CE
:1050100010B500F077F8006810BD10B5044600F038
:1050200071F8046010BD2DE9F0470D460446924624
:10503000994600F124080168880604D5E06921F04A
:105040001001216000E001200027A84200DD471B7D
:10505000A1697A1902EB0900081AA0612068C0064C
:1050600002D42046AFF30080002608E0D4E90121F5
:105070001AF806009047206A401C761C20624E45B4
:10508000F4DB2068C0060AD52046AFF3008006E0B6
:10509000D4E9012130209047206A401C2062381E4C
:1050A000A7F10107F4DC07E0D4E9012118F80500B5
:1050B0009047206A401C2062281EA5F10105F3DC00
:1050C0002046AFF3008021680220090600D40120A9
:1050D000BDE8F08701694A1C02610878704710B585
:1050E0000C46194690B0CDE9024200220692044ACD
:1050F0007A44CDE9042001A8FFF720FF10B010BDCD
:10510000E1FFFFFF01487047704700009C0000204E
:10511000004870479C0000207546FFF7F9FFAE4637
:1051200005006946534620F00700854618B020B5B3
:10513000FEF7EAF8BDE820404FF000064FF0000708
:105140004FF000084FF0000B21F00701AC46ACE82F
:10515000C009ACE8C009ACE8C009ACE8C0098D469C
:1051600070470446AFF300802046FBF70DF80000BF
:1051700030B504460D460C480088A0F50941893930
:1051800008D121464E20FBF70FFB29464F20FBF7A5
:105190000BFB07E021462020FBF706FB29462120D8
:1051A000FBF702FB30BD00001A00002070B50400C0
:1051B0000D4601D0012200E000220A430B4B22F0F1
:1051C00000429A1AD20F0AD109A20CCA00F0BAF80A
:1051D00005D20120FFF721FF07A103C970BD2946B1
:1051E0002046BDE8704000F029B900000000F07FC3
:1051F0000000000000000000010000000000F87F37
:1052000002494FF0000000F06CBD00000000F87F84
:1052100002494FF0000000F064BD00000000F87F7C
:1052200000B54FF4001E1EEB410F08BF002898BFC9
:105230001EEB430F08BF002A26D85DF804EBAFF33E
:10524000008051EA030C06D4994208BF904210D660
:10525000EFF3008070478B4208BF8242EFF300807B
:1052600020F0104038BF40F0004080F3008878BF45
:1052700070474FF0010C38BFBCF1020F68BFBCF1A2
:10528000000FEFF3008070475DF804EB1CF4502F23
:105290003FF4B6AF00F057BD4FEAC12303B40A157F
:1052A00043EA505318BF43F000430CD4A2F5607298
:1052B000D2F19E0211DBFF2ACCBF002123FA02F1BA
:1052C000084602B0704701F1804212F5801F80F25B
:1052D00004804FF0000002B0704703BCDFF828C024
:1052E000012841EB010313F5001F88BF4CF4803CFB
:1052F0003FF68EAF3CBF6FEAE1707047AFF30080BE
:105300006FEAE17070470000E800020410F000430B
:1053100014BF4142014643F08043B1FA81FC03F1DE
:10532000F87311FA0CF1A3EB0C534FEA415008BF8C
:10533000704703EBE12170474FF080430146FFF7D0
:10534000ECBF000051EA030C17D41CF5801F58BFB6
:10535000BCF5801F00F10680994218BF704708BF56
:105360009042704707D711F5801F58BF13F5801F73
:1053700019D499427047894270471CF5801F08D59F
:10538000BCF5801FF7D58B4218BF704708BF82421B
:1053900070474FF4001C1CEB410F38BF1CEB430F50
:1053A00001D28B427047DFF808C0FFF739BF000019
:1053B0001900160453EA010C17D41CF5801F58BFBE
:1053C000BCF5801F00F106808B4218BF704708BFF4
:1053D0008242704707D713F5801F58BF11F5801F11
:1053E00019D48B4270479B4270471CF5801F08D52B
:1053F000BCF5801FF7D5994218BF704708BF90428F
:1054000070474FF4001C1CEB430F38BF1CEB410FDF
:1054100001D29942704783EA010182EA000081EAE1
:10542000030380EA0202DFF810C083EA010182EA86
:105430000000FFF7F5BE0000190016044FF0E04C25
:105440004CF07F6C70B511EA0C0F00F078803CEAEC
:10545000010E00F07D8011F0004F40F087804FEA90
:10546000115C21EA0C5141F480110CF1FD0C5FEA52
:105470005C0C0CF5C07C02D3400041EB01014FF005
:1054800000034FF080424FEA812141EA90514FEAF8
:105490008020A1F180414FF0805E8C1A22BFB4EBD6
:1054A0000E04214602EB4E02400041EB01015FEA8F
:1054B0005E0EF2D171EB020407D3B0F1004574F136
:1054C000000422BF21462846521C400041EB010146
:1054D0004FF0804EC51A71EB020408D3B5EB0E05F0
:1054E00074F1000422BF2146284603EB4E0340001E
:1054F00041EB01014FEA5E0EBEF1800FEAD151EAA5
:10550000000418BF0224980A4FEA92215FEA34048B
:1055100040EA825001EB0C5100D170BD640050F1A3
:105520000000244241F1000108BF20F0010070BDDD
:10553000DEF5800E50F1000041F1000170BD50EA2F
:10554000013C00D170BD01F000414FF0000070BD82
:10555000BDE8704050EA013CDFF81CC07FF458AE53
:10556000AFF30080094258BF704701E0BDE87040CA
:105570004FF0000001497047170000040000F87F59
:1055800000F5000C1CF0FE4F09D0C1104FEA40702E
:1055900001F1605158BF7047A1F1E04170471CF420
:1055A000000F08D00146400008BF70474FF00000D0
:1055B0004FEA30017047DFF814C0420240F08E809D
:1055C000AFF3008040F4E00110467047180000047B
:1055D00090EA010F48BF81F0004100F1B482421A05
:1055E0003CBF801A89184FEAD0524FF07F4C1CEA1A
:1055F000410FA2EBD15318BF9CEA026F00F040802C
:105600004FF0004C4CEA00204CEA012121FA03FC47
:1056100010EB0C0C23D202F1FF325FEA1C2040EBAE
:10562000C25038BF70471CF07F0F4FEA400C18BFC4
:10563000BCF17F4F38BF7047C3F12003994008BFCA
:1056400020F00100BCF17F4F38BF7047A0F1C0408F
:105650004FF0FF0141EAD0514FEAC15070474FEA85
:105660003C00000A40EBC25028BF1CF0FF0F4FEA7D
:10567000400CE1D018BFBCF17F4F38BF7047E5E761
:105680009CEA026F05D010EA5C0F08BF00F00040F2
:105690007047BCEB410F4FEA400228BF9445DFF84A
:1056A00028C0C0F01580AFF30080B2EB410F05D0E9
:1056B00012F1807F08BF70470846704790EA010FDB
:1056C00058BF704701487047010000040000C07FC8
:1056D000014800F006BB00000000C07F014800F058
:1056E00000BB00000000C07F4FF47F0C1CEAD0120A
:1056F0001EBF1CEAD11392EA0C0F93EA0C0F00F0C4
:10570000A58090EA010F48BF42F4807240F4000C7B
:1057100041F400002CF07F4120F07F4000B5814231
:10572000A2EB03020FF2401CACEB504EC0F10000A4
:105730009EF800E04FEA4E0E00FB0EFC38BF490019
:105740004FEA2C1C02F5FA020CFB0EF34FEACE1EB8
:105750004FEA112C4FEAC1210EEB635E0EFB0CFCED
:105760004FEA1C5300FB03114FEA112C4FEA0131A1
:105770000EFB0CFC02F4807E42EB22424FEADC4C32
:1057800000FB0C11C14228BF09184CEB033301295F
:1057900024BF4EF0020E4EF0804E10EB410F24BF9E
:1057A0004EF0010E4EF0804E08BF4EF0040E4EF04B
:1057B00008015DF804EB43EBC25018BFB2F57C0F53
:1057C00038BF704741EAC07108BF20F00100B2F550
:1057D0007C0F38BF704729D512F0F00F1CBF00F1C5
:1057E000C04000F000407047008182838485868736
:1057F00088898B8C8D8E8F919293959697999A9C90
:105800009D9FA0A2A3A5A7A8AAACAEB0B2B3B5B7FE
:10581000B9BCBEC0C2C5C7C9CCCED1D4D7D9DCDFD4
:10582000E2E6E9ECF0F3F7FAFE0000004FEA400C84
:105830000CF1807CBCF17E4F28BF7047B0F1C040B6
:105840004FF07F404CBF40104008704790EA010F76
:105850000CEAD11348BF42F48072624538BF6345F9
:1058600007D213F47F0F23D080EA010000F000403C
:1058700070474FF0807C1CEB400F98BF1CEB410F32
:10588000DFF840C03FF624AFAFF300804FF0807CDC
:105890001CEB400F02BF1CEB410F0B4870471CEB89
:1058A000410F0CBF002020F0004040EAC25070477A
:1058B00012F47F0F04BF0448704742F0FF004FEA24
:1058C000C0507047040000040000C07FC2154FEABA
:1058D000002318BF43F0004305D4D2F19E0213D930
:1058E00023FA02F07047B0F14F4F0DD812F0FF02CB
:1058F00008BF23F000434FF00000D2F19E0223FACC
:1059000002F1A0EB01007047DFF82CC04FEA400124
:10591000B1F17F4F88BF4CF4803C3FF6DFAE1EBF35
:105920006FEAE07080F000407047AFF300806FEAEC
:10593000E07080F00040704748000204C2154FEA52
:10594000002318BF43F0004305D4D2F19E020AD3CE
:1059500023FA02F070474FEA4001B1F1FE4F02D244
:105960004FF000007047DFF828C04FEA4001B1F166
:105970007F4F88BF4CF4803C3FF6B0AE1CBF6FEA4F
:10598000E0707047AFF300806FEAE070704700008E
:105990006800020410F0004218BF404242F080420A
:1059A000B0FA80F18840A2EBC15202F1786208BFE0
:1059B0007047410642EB202018BF5FF0806C28BF83
:1059C00020F0010070474FF08042FFF7E9BF000070
:1059D0004FF47F0C1CEAD0121EBF1CEAD11392EACE
:1059E0000C0F93EA0C0F00F04A8090EA010F48BFB9
:1059F00042F480724FF0004C4CEA00204CEA012146
:105A00001A44A0FB01C3A2F50002BCF1000F18BFAD
:105A100043F0010302F4807CB3F1004F38BF5B0018
:105A200042EB2242180A40EBC25028BF13F07F0F0E
:105A300018BFB2F57C0F38BF704708BF20F00100D7
:105A4000B2F57C0F38BF70470BD582F0FF0212F51C
:105A5000803FC8BF704700F1C040D8BF00F0004091
:105A6000704700F5000C5FEA4C0C48BF7047B0F17E
:105A7000C0404FF07F404CBF40104008704790EA54
:105A8000010F0CEAD11348BF42F48072624538BF5F
:105A9000634504D280EA010000F0004070474FF0F7
:105AA000807C1CEB400F98BF1CEB410F4FF0030CA8
:105AB0004CF0806C3FF60CAEAFF3008012F47F0F19
:105AC0001FBF13F47F0F42F0FF02D005704701485B
:105AD000704700000000C07F10B412F47F0F4FEA3F
